:020000040800F2
:1000000000000824A90800087507000879070008FF
:100010008D0700088F070008910700080000000006
:10002000000000000000000000000000930700082E
:1000300095070008000000009707000899070008CE
:10004000F9080008F9080008F9080008F90800088C
:10005000F9080008F9080008F9080008F90800087C
:10006000F9080008F9080008F9080008F90800086C
:10007000F9080008F9080008F9080008F90800085C
:10008000F9080008F9080008F90800089D070008A9
:10009000F9080008F9080008F9080008F90800083C
:1000A000F9080008F9080008F9080008F90800082C
:1000B000F9080008F9080008F9080008F90800081C
:1000C000F9080008F9080008F9080008F90800080C
:1000D000F9080008F9080008F9080008F9080008FC
:1000E000F9080008F908000800000000F9080008F5
:1000F000F9080008F9080008F9080008F9080008DC
:10010000F9080008F9080008F9080008F9080008CB
:10011000F9080008F9080008F9080008F9080008BB
:10012000F9080008F9080008F9080008F9080008AB
:10013000F9080008F9080008F9080008F90800089B
:1001400000000000000000000000000000000000AF
:10015000F9080008F9080008F9080008F90800087B
:10016000F9080008F9080008F9080008F90800086B
:10017000F9080008F9080008F90800080000000064
:10018000F9080008F9080008F9080008F90800084B
:10019000F9080008F9080008F9080008F90800083B
:1001A000F9080008F9080008F9080008F90800082B
:1001B000F9080008F9080008F9080008F90800081B
:1001C000F9080008F9080008F9080008F90800080B
:1001D000F9080008F9080008F9080008F9080008FB
:1001E000F9080008F9080008F9080008F9080008EB
:1001F000F9080008F9080008F9080008F9080008DB
:10020000F9080008F9080008F9080008F9080008CA
:10021000F9080008F9080008F9080008F9080008BA
:10022000F9080008F9080008F908000800000000B3
:10023000F9080008F908000800000000F9080008A3
:10024000F9080008F9080008F9080008F90800088A
:10025000F9080008F9080008F9080008F90800087A
:10026000F9080008F9080008F9080008F90800086A
:10027000F9080008F9080008F90800080000000063
:10028000F9080008F9080008F90800080000000053
:0802900000000000F90800085D
:1002980010B5054C237833B9044B13B10448AFF3B8
:1002A80000800123237010BD7800002400000000A6
:1002B800202D000808B5034B1BB103490348AFF3D1
:1002C800008008BD000000007C000024202D0008EC
:1002D80010B5044C206802F003FC002323601B7057
:1002E800FFDE00BF9400002408B5FFF7F1FF00000F
:1002F8002DE9F041DFF8408000240D46064608EB62
:10030800000358F82000174683F8401683F8D047B2
:1003180002F0E6FB284602F0DBFB234648F82600FD
:100328009D4203DCA4080470BDE8F081F95CDA00A2
:10033800013391400C19F3E794000024F8B5104FED
:10034800164601220D463B18044657F8200083F84C
:10035800401683F8D02702F0C3FB284602F0B8FB0A
:1003680047F8240000242346A54202DC9B080370BA
:10037800F8BD315DE20001349140CB18F4E700BFCD
:100388009400002410B404680A46A3B2B3F5C87FE9
:1003980006D81378817B13F0030304D0012B07D010
:1003A8005DF8044B7047E0B25DF8044BFFF7A0BF5F
:1003B800E0B25DF8044BFFF7C1BF000008B50121AA
:1003C8000B4801F0B2F80B4A0B4B40210B4800F0E8
:1003D80053FD09490748FFF7D5FF002201210748C7
:1003E80000F000FE18B1BDE8084000F04BB808BDA9
:1003F80000040258FC090024F4090024500A0024CF
:10040800F7B5CDE900231646019D0023D900C1F1B7
:100418002007A1F1200226FA01F425FA01F105FAD4
:1004280007F725FA02F23C43144354EA01020CD1BF
:100438001B0408496A4608600748CB6000F0E8FCDE
:1004480008B100F01FF803B0F0BD0133082BDDD16F
:100458000023EEE7240A0024500A0024012A73F13D
:10046800000105DB9B0043EA92739200FFF7C8BFC7
:10047800514263EB43038A009B0042F0010243EAC6
:100488009173F3E708B572B6034C4FF480412046E8
:1004980001F04BF8F9E700BF0004025810B59CB012
:1004A8004C22002109A802F031FB2022002101A8DA
:1004B80002F02CFB022001F041F800230093224BAC
:1004C800DA6A22F00102DA62DB6A204A03F00103E9
:1004D8000093936923F4404343F480439361936901
:1004E80003F440430093009B93699804FCD50121D1
:1004F80040230C22022409A809941294CDE90C1374
:1005080000230421CDE91923CDE913314FF4805399
:10051800CDE91524CDE917141B9301F0D9FD08B1D5
:10052800FFF7B0FF3F2203232146CDE90300CDE9C1
:100538000500CDE9070001A8CDE9012302F0FAF88A
:100548000028EDD11CB010BD000400580048025826
:1005580000B58BB0002402F039FA0125FFF79EFFA1
:100568001422002102260DEB020002F0CFFA454BBF
:1005780044F201014448D3F8E02042F08002C3F875
:10058800E020D3F8E02002F080020192019AD3F82B
:10059800E02042F00202C3F8E020D3F8E02002F0A5
:1005A80002020292029AD3F8E02042F00102C3F854
:1005B800E020D3F8E02002F001020392039AD3F876
:1005C800E02042F01002C3F8E0200022D3F8E03027
:1005D80003F010030493049B00F0A2FF0022022101
:1005E8002A4800F09DFF44F2010305A92648CDE9F9
:1005F8000535CDE9074400F0A7FE05A92348CDE954
:100608000565CDE9074400F09FFE2148214B4FF4D2
:1006180080714FF0070C04820360032384744561E2
:100628000564C0E902132A23C0E906C31B23C0E9F5
:1006380008360C23C0E90A33C0E90C340423C0E9A6
:100648000E44C0E91134C0E91334C0E91534C0E9D7
:100658001745C0E9194300F0F1F908B1FFF712FF97
:10066800FFF742FE0C4C0D4A4FF0FF33C4E900235C
:10067800D4E900236420FFF7F1FE462002F0E6F9F2
:10068800F6E700BF00440258000402580010025860
:10069800500A002400A00040480A0024FEF5FFFF8D
:1006A800074B82B0D3F8F42042F00202C3F8F420DA
:1006B800D3F8F43003F002030193019B02B07047B2
:1006C8000044025810B5B6B004461422002102A80E
:1006D80002F01CFABC22002107A802F017FA2268CF
:1006E8001F4B9A423AD14FF4004307A807934FF0A3
:1006F8008053229301F036F808B1FFF7C3FE194B77
:10070800002402A91848D3F8EC2042F48072C3F8F8
:10071800EC20D3F8EC2002F480720092009AD3F80F
:10072800E02042F00102C3F8E0204FF4C052D3F8B1
:10073800E03003F001030193019B0223CDE902237A
:100748000923CDE90444069300F0FEFD1320224658
:10075800214600F0E1F8132000F010F936B010BD82
:1007680000A000400044025800000258FEE70000C4
:10077800034C08B54FF48041204600F0D6FEF9E757
:1007880000040258FEE7FEE7FEE77047704770472F
:1007980002F04AB9014800F073BC00BF500A0024B7
:1007A8000B4A0346116810B509B90A491160106867
:1007B80009490A4C0344091B8B4206D902F05EF929
:1007C8000C2303604FF0FF3010BD1360FCE700BF3F
:1007D800F00A0024080B002400000824000400008C
:1007E800254AD2F8883043F47003C2F88830234A87
:1007F800136803F00F03062B05D8136823F00F03C3
:1008080043F0070313601E4B1A6842F001021A6096
:1008180000221A611B4A19680A4018491A600A68B6
:10082800120705D50A6822F00F0242F007020A6093
:10083800002215499A61DA611A6299621349D962EC
:10084800134919635A639963DA6319645A64196816
:1008580021F4802119601A660E4B1B681B0C1B04BF
:10086800B3F1005F03D20C4B0122C3F808210B4BF4
:1008780043F2D2021A60704700ED00E000200052F7
:10088800004402587FEDF6EA000202020000FF0170
:10089800800201010010005C0080005100400052FD
:1008A800DFF834D0FFF79CFF0C480D490D4A0023B0
:1008B80002E0D458C4500433C4188C42F9D30A4A0D
:1008C8000A4C002301E013600432A242FBD302F079
:1008D800DBF8FFF73DFE7047000008240000002405
:1008E80074000024AC2D000878000024080B0024B4
:1008F800FEE7000007490302CA6803F4E06322F434
:10090800E0621204120C134343F0BF6343F4003354
:10091800CB60704700ED00E0164B30B5DC68C4F3DF
:100928000224C4F10705231D042D28BF0425062B26
:100938004FF0FF338CBF033C002403FA05F5002871
:1009480003FA04F321EA050122EA030201FA04F199
:1009580041EA02034FEA0313DBB206DB00F1604011
:1009680000F5614080F8003330BD00F00F00024A06
:100978001354F9E700ED00E014ED00E0002808DB6F
:100988000123420900F01F0003FA00F0014B43F86D
:100998002200704700E100E00138B0F1807F0BD2FF
:1009A8004FF0E023054AF0215861002082F8231017
:1009B800072298611A6170470120704700ED00E036
:1009C800F0B5D1E900470D698E68F7B9354345EAB6
:1009D8008444D1E9066535434E693543CE683543CD
:1009E8000E6A45EA0665866ED0F88400734300EB0C
:1009F800830640F8234000200F4C75600836CB89E9
:100A08000432E35C834205D8F0BD2C43344344F000
:100A18008044DEE712F8023C12F8015C1B0443EA4A
:100A2800056312F8045C2B4312F8035C43EA0523C0
:100A380033500430E3E700BF942D00082DE9F04F50
:100A480099B004464C22C84905A802F051F8002C78
:100A580000F0B681C54B22689A4204BF03F5807343
:100A6800636094F8983003F0FF0223B9204684F8B5
:100A78009920FFF727FE2268936923F010039361FA
:100A880001F0DEFF054623689A69110700F18981A4
:100A98009A6942F001029A6101F0D2FF0546236883
:100AA8009A69D20740F18E819A6942F002029A61EE
:100AB800227C012A9A690CBF22F0400242F04002CF
:100AC8009A61627C012A9A690CBF42F4804222F43E
:100AD80080429A61A27C012A9A690CBF22F4805252
:100AE80042F480529A619A69A06822F440720243E3
:100AF8009A619A6922F0A4029A611A6922F0100296
:100B08001A61E268012A40F064819A6942F004029D
:100B18009A61A269B0F5407F02F1FF31E26902F102
:100B2800FF324FEA022242EA4162216A01F1FF31B3
:100B380042EA0102616901F1FF3142EA0142DA61E8
:100B48000ED1E26A511E226B013A120142EA0122D9
:100B5800A16A01390A43616A013942EA0142DA604D
:100B6800256E2DB1D3F8C020616E0A43C3F8C020AA
:100B7800D4F85CA0D4F868B015EB0A0F0BD018A90C
:100B8800D3F8C82001EB8B0122F0070251F84C1C66
:100B98000A43C3F8C820D4E91072039267B118A8B1
:100BA8000399D3F8BC2000EB810122F0070251F829
:100BB8004C1C0A43C3F8BC20D4E9126C66B118A9CE
:100BC800D3F8BC2001EB8C0122F0700251F84C1CC8
:100BD80042EA0112C3F8BC20226DD4F85490029264
:100BE80062B118A9D3F8BC2001EB890122F4E062B4
:100BF80051F84C1C42EA0122C3F8BC205B4A9342DC
:100C080004D161688A6822F003028A600022584889
:100C1800D4F83C80C4F89C20C4F894204FF001021A
:100C280084F89820626B0092D3F8842000990240DF
:100C380042EA8102C3F88420D3F88410A26B21F41D
:100C48007F01019241EA0241C3F88410009901EB47
:100C5800020ED3F88810039A014041EA8E01C3F8C6
:100C68008810D3F8881021F4FE0141EA0841C3F83E
:100C780088100EEB4801D3F8A0E00EEA000E4EEA09
:100C8800810EC3F8A0E0D3F8A0E02EF4FE0E4EEAE1
:100C9800074E5743029AC3F8A0E03944D3F8B0E0AE
:100CA8000EEA000E4EEA810EC3F8B0E0D3F8B0E0C9
:100CB8002EF4FE0E4EEA064E0CFB06F609FB02FC6D
:100CC800C3F8B0E03144D3F8ACE00EEA000E4EEAC7
:100CD800810E6144C3F8ACE0D3F8F0E00EEA000EF0
:100CE8004EEA810EC3F8F0E0D3F8F0E0D4F858905B
:100CF8002EF47C1E019A01EB49014EEA094EC3F815
:100D0800F0E0D3F8C0E00EEA000040EA8101C3F841
:100D1800C010D3F8C01021F47C1141EA0A41C3F88D
:100D2800C010D3F8C01021F07C5141EA05610BFBDB
:100D380005F5C3F8C010009B03F1805303F52C534D
:100D48009B0003EB8202E366226702EBC80202EB18
:100D580087076267074A07EB8606A767E66706EB19
:100D68008C06C4F8806007E0382D000800A0004019
:100D78000300FFFFFCD3004006EBC9060BFB0AF992
:100D8800C4F8846006EB890606EB8505C4F888601C
:100D98009542C4F8905033D9D4F89C3043F02003DE
:100DA80009E001F04DFE401B0A287FF66CAED4F82E
:100DB8009C3043F00103C4F89C30032384F8983036
:100DC800012022E001F03CFE401B0A287FF667AEB6
:100DD800EDE7002A3FF49DAE022A0AD09969032A5A
:100DE80041F080019961196941F0100119617FF49E
:100DF80090AE9A6942F020028AE6002243F8042B5A
:100E0800D4F890209342F8D3002019B0BDE8F08FB1
:100E180070B590F898300446022B27D10668D6F8AA
:100E2800C03013F07C5F07D1D0F89C3043F020032A
:100E38000120C4F89C3018E0D6F8C45015F4001509
:100E480004D0D0F89C3043F40073F1E7D6F8C460BE
:100E5800C6F304463346FFF7B3FD0122216828464E
:100E6800B240C1F8D020C4F8942070BDD0F89C30AE
:100E780043F00803DCE70000F0B590F89840022C36
:100E880040F0A880402964D10468D4F8A05015F433
:100E9800FE0F04D1D0F89C3043F0200307E0D4F8CB
:100EA800A4506D0607D1D0F89C3043F48073C0F885
:100EB8009C3001204CE0D4F8A450EF0101D5D4F8BF
:100EC800A050D4F8A450446CC5F30525466F6C4374
:100ED80006EB8404276807F0804757602668002FD0
:100EE8005BD1C6F38A461660083454F8086CDFF8FC
:100EF800F0C006F00056966054F8086C06F00046FC
:100F0800166134F8046CD66154F8046C06F4702643
:100F1800D66054F8046C06F48016566154F8046CD4
:100F280006F40016966114F8016C06F07F06166246
:100F380054F8046CF60F56620026D7891CF807701F
:100F4800B7422DD8402902682FD1C2F8A8500020F6
:100F5800F0BD412917D10468D4F8B05015F4FE0F3C
:100F680098D0D4F8B4506E069DD0D4F8B450ED01A2
:100F780001D5D4F8B050D4F8B450C46CC5F30525E5
:100F8800866F6C43A4E7046D8C4283D9446DC56FAA
:100F98004C4305EB840400259CE726F06046A2E755
:100FA80014F8017B9F550136C7E7412902D1C2F8E1
:100FB800B850CCE71F294FF0010304D803FA01F118
:100FC800C2F89810C3E701F01F0103FA01F1C2F853
:100FD8009C10BCE7D0F89C3043F0080367E700BFDB
:100FE800942D000890F89830013B012B2DD8036808
:100FF800986D08421FD1D86D40F00100D86588056A
:1010080004D5D3F8E0001043C3F8E000480504D540
:10101800D3F8E4000243C3F8E42021F04042586DBD
:1010280022F44012024300205A650C4A536943EAED
:10103800917151617047986D31EA000003D1D86D04
:1010480040F00200DAE70320D8E7D0F89C3043F0FC
:101058000203C0F89C300120704700BF00A8004080
:1010680070477047704770477047704770477047C0
:1010780070477047704770477047704770477047B0
:101088002DE9F74FA94904460B694A69920702EA14
:10109800837203681D6D5E6D05EA060B1D6D5E6D3E
:1010A8000BF4704B05EA060A1D6D5E6D1F6D0AF0A4
:1010B8000F0A05EA06095D6D2F401D6D5E6D09F08A
:1010C800F00907F0715705EA06085E6D1D6D16F404
:1010D800807F08F060780CD015F4807F09D04FF439
:1010E800807C0192C3F850C000230B61FFF7C1FF59
:1010F800019A700515D5690513D523684FF4806CDE
:101108000192D3F8DC00D3F8E410C3F850C04FF0D4
:10111800000C864B01402046C3F810C0FFF7A5FF1E
:10112800019A4AB12368002120461965910F7F4B27
:1011380019611146FFF794FFBBF1000F09D023682E
:10114800002259462046C3F850B0784B1A61FFF781
:1011580088FFBAF1000F09D02368002251462046C3
:10116800C3F850A0714B1A61FFF728F9B9F1000FC5
:1011780009D02368002249462046C3F850906B4B9B
:101188001A61FFF76FFF32050BD52B0509D52368C8
:101198004FF4006220461A650022644B1A61FFF77B
:1011A80062FFB00510D5A9050ED523684FF400706D
:1011B800D3F8D810D3F8E020186500205B4B114015
:1011C80018612046FFF750FF32030BD52B0309D5D2
:1011D80023684FF4002220461A650022534B1A61F7
:1011E800FFF744FFF0030BD5E90309D523684FF453
:1011F800803220461A6500224C4B1A61FFF737FFF0
:1012080072030BD56B0309D523684FF4802220465F
:101218001A650022454B1A61FFF72AFFB0032268BE
:101228000DD5A9030BD54FF40033002113653F4BAF
:101238001961D4F89C3043F08003C4F89C30B8F1AD
:10124800000F08D0C2F850800022384B4146204693
:101258001A61FFF710FF226847B1344B0021176568
:101268001961D4F89C301F43C4F89C70304B9A42E3
:1012780060D163689A6892075CD01A6A596A11400B
:101288001A6A586A1F6A11F00F0102EA00085A6ABE
:101298001E6A07EA02075A6A1D6A08F0300806EA59
:1012A80002065A6A07F4C077D3F824A005EA0205B3
:1012B80006F4FC46D3F8209005F4F02503D0204628
:1012C8001962FFF7D9FEB8F1000F06D063684146EE
:1012D8002046C3F82080FFF7D0FE1AF0400F0DD04B
:1012E80019F0400F0AD063684020D96BDA6B090CFB
:1012F800186202F03F022046FFF7C0FE2FB1636874
:10130800394620461F62FFF7BAFE36B163681E628F
:10131800D4F89C301E43C4F89C605DB163681D62BC
:10132800D4F89C301D43C4F89C5003E000A800404A
:1013380000A00040D4F89C3013B12046FFF79AFE75
:1013480003B0BDE8F08F00BF2DE9F74F0023DFF8A9
:10135800CC914FF0B0440A6832FA03F502D103B0D9
:10136800BDE8F08F4FF0010E0EFA03FE1EEA0202EE
:1013780000F0BD804E684FEA43084FF0030C06F0BA
:1013880003050CFA08FC6F1E6FEA0C0C012F34D809
:10139800876807EA0C0ACF6807FA08F747EA0A07D6
:1013A8008760476827EA0E0EC6F300179F4047EA92
:1013B8000E074760C768022D07EA0C0E8F6807FA08
:1013C80008F747EA0E07C76019D14FEAD30A03F0B6
:1013D800070B4FF00F0E00EB8A0A4FEA8B0BDAF877
:1013E80020700EFA0BFE27EA0E0E0F6907FA0BF7AC
:1013F80047EA0E07CAF8207001E0032DDAD1076822
:1014080005FA08F516F4403F07EA0C0747EA05070E
:1014180007606CD0D9F8F45023F0030703F0030CED
:101428004FF00F0E45F0020507F1B0474FEA8C0C5C
:10143800C9F8F45007F58067D9F8F45005F00205AB
:101448000195019D0EFA0CF5D7F8088028EA050EDB
:10145800314DA8424DD005F58065A8424BD005F521
:101468008065A84249D005F58065A84247D005F5B2
:101478008065A84245D005F58065A84243D005F5AA
:101488008065A84241D005F58065A8423FD005F5A2
:101498008065A8423DD005F58065A8420CBF0925A6
:1014A8000A2505FA0CF516F4801F45EA0E05BD60FD
:1014B8006FEA020725680CBF3D40154316F4001F6C
:1014C800256065680CBF3D40154316F4003F656014
:1014D800D4F884500CBF3D401543F603C4F884503B
:1014E800D4F8805054BF3D401543C4F880500133B0
:1014F80031E70025D5E70125D3E70225D1E7032504
:10150800CFE70425CDE70525CBE70625C9E707255D
:10151800C7E70825C5E700BF000002580044025885
:101528000AB1816170470904FBE7436901EA0302D4
:1015380021EA030141EA02418161704738B5104C44
:10154800E36813F0040FE36805D103F00703181AE2
:1015580018BF012038BD23F007031843E06001F0ED
:101568006FFA054663689B0401D50020F2E701F095
:1015780067FA401BB0F57A7FF4D90120EAE700BF8B
:1015880000480258F8B53A4C06460D46A36A03F0DF
:101598000303032B69D0236823F08063236001F0E1
:1015A8004FFA074623681A014BD4A36A326823F41A
:1015B8007C3343EA0233A362B368F268013B013A21
:1015C8005B0212049BB202F4FE0213437268013AF2
:1015D800C2F3080213433269013A120602F0FE42CE
:1015E8001343A363E36A726923F0C0031343E362FE
:1015F800E36AB26923F020031343E362E36A23F04A
:101608001003E362E36BF26923F47F4323F0F803EA
:1016180043EAC203E363E36A43F01003E362E36A65
:10162800B5B943F40023E362114C236843F08063A7
:10163800236001F005FA054623681B010FD5002039
:1016480005E001F0FDF9C01B0228ABD90320F8BD65
:10165800012D0CBF43F4801343F40013E3E701F0BA
:10166800EFF9401B0228E7D9F0E70120EFE700BFB8
:1016780000440258F8B53A4C06460D46A36A03F0F2
:101688000303032B69D0236823F08053236001F000
:10169800D7F9074623689A004BD4A36A326823F027
:1016A8007C7343EA0253A362B368F268013B013AD0
:1016B8005B0212049BB202F4FE0213437268013A01
:1016C800C2F3080213433269013A120602F0FE42DD
:1016D80013432364E36A726923F440631343E362A8
:1016E800E36AB26923F400731343E362E36A23F401
:1016F8008073E362636CF26923F47F4323F0F80399
:1017080043EAC2036364E36A43F48073E362E36A0F
:10171800B5B943F48003E362114C236843F0805366
:10172800236001F08DF9054623689B000FD5002042
:1017380005E001F085F9C01B0228ABD90320F8BDEC
:10174800012D0CBF43F4000343F08073E3E701F07D
:1017580077F9401B0228E7D9F0E70120EFE700BF3F
:10176800004402582DE9F8430668054616F000665D
:1017780009D0436EB3F5001F2ED013D8F3B1B3F5DB
:10178800801F21D001262B68DC0540F1EA806B6DB3
:10179800042B00F2E580DFE813F024002B00DD00C5
:1017A80029002900B3F5401FECD1A64A0026696E2E
:1017B800136D23F440130B431365E4E7A14AD36A7E
:1017C80043F40033D362F0E702210430FFF7DAFE76
:1017D80006460028D7D1E8E702212430FFF74AFF60
:1017E800F6E7984AD36A43F40033D362344604E0F8
:1017F8000021281DFFF7C6FE0446002C40F0B380E8
:10180800904A696D136D23F007030B4313652B682A
:1018180098050DD5AB6D802B00F0C28000F2A58035
:10182800002B00F0B180402B00F0B4800126344634
:101838002B68590510D5D5F8A430B3F5800F00F002
:10184800D48000F2B580002B00F0C380B3F5001FF0
:1018580000F0C580012634462B681A0510D5D5F846
:10186800A830B3F1007F00F0E58000F2C680002BBD
:1018780000F0D480B3F1807F00F0D6800126344692
:101888002B689B010DD5AB6C202B00F0EF8000F28C
:10189800DB80002B00F0DB80102B00F0E1800126BC
:1018A80034462B68DF040FD5EB6DB3F5005F00F00D
:1018B800018100F2E380002B00F0F080B3F5805F37
:1018C80000F0F280012634462B6898040FD52B6E61
:1018D800B3F5003F00F00E8100F2F480002B00F019
:1018E800FA80B3F5803F00F0FF80012634462B686C
:1018F800590410D5D5F8AC30B3F1005F00F01B8166
:1019080000F20081002B00F00681B3F1805F00F047
:101918000C81012634462B681A040DD5EB6EB3F101
:10192800805F00F01081B3F1005F00F01A81002B96
:1019380000F00E81012634462B68DB0140F1278137
:101948006B6C032B00F26781DFE813F018011301B9
:101958005F011801002105F12400FFF78BFE4BE71A
:101968000126344653E7264651E7C02B03D0B3F58A
:10197800807F7FF45BAFCCB9324AA96D136D23F435
:10198800E0730B43136553E72E4AD36A43F40033DD
:10199800D362F0E70021281DFFF7F4FD0446EAE7CB
:1019A800002105F12400FFF765FEF7E726463FE72B
:1019B800B3F5C00F03D0B3F5000F7FF44BAFD4B924
:1019C800204AD5F8A410936D23F460030B43936564
:1019D80042E71C4AD36A43F40033D362EFE700219D
:1019E800281DFFF7CFFD0446E9E7002105F1240093
:1019F800FFF740FEF7E726462EE7B3F1407F03D016
:101A0800B3F1806F7FF43AAFD4B90E4AD5F8A81075
:101A1800936D23F0E0630B43936531E7094AD36A7A
:101A280043F40033D362EFE70021281DFFF7AAFD36
:101A38000446E9E7002105F12400FFF71BFEF7E75C
:101A480026461DE700440258302B7FF428AF9CB986
:101A58009D4AA96CD36C23F030030B43D36420E771
:101A6800994AD36A43F40033D362F0E70221281D70
:101A7800FFF788FD0446EAE7264612E7B3F5405F1C
:101A880003D0B3F5804F7FF41DAFCCB98E4AE96D12
:101A9800136D23F4E0430B43136515E78A4AD36AB1
:101AA80043F40033D362F0E70021281DFFF76AFDF5
:101AB8000446EAE7002105F12400FFF7DBFDF7E71C
:101AC800264601E723F48032B2F5802F03D0B3F520
:101AD800403F7FF40AAF9CB97B4A296E136D23F40B
:101AE800E0230B43136502E70121281DFFF74AFD98
:101AF8000446F0E7012105F12400FFF7BBFDF7E7F5
:101B08002646F4E623F08052B2F1804F03D0B3F1B9
:101B1800405F7FF4FEAEA4B96B4AD5F8AC10936D64
:101B280023F0E0430B439365F5E60121281DFFF7F9
:101B380029FD0446EFE7012105F12400FFF79AFD8E
:101B4800F7E72646E7E6604AD36A43F40033D362F0
:101B58006CB95D4AE96E136D23F040530B4313656E
:101B6800EAE60121281DFFF70DFD0446F0E72646A9
:101B7800E2E6554AD36A43F40033D362002C4DD1D0
:101B8800514A696CD36C23F003030B43D3642B686D
:101B98005F024DD54D4F3B6843F480733B6000F0C6
:101BA8004FFF80463B68D8053AD5002C6CD1464B90
:101BB800D5F8B0001A6F424012F4407F0BD01A6F6C
:101BC800196F22F4407241F480311967196F21F4BA
:101BD800803119671A67B0F5807F40D0D5F8B030EA
:101BE800394903F44072B2F5407F49D10869384A4F
:101BF80020F47C5002EA131202430A61C3F30B0378
:101C0800314A116F0B43136712E00221281DFFF7B9
:101C1800B9FC0446B2E701263446B8E72646B6E7DB
:101C280000F00EFFA0EB08006428BBD90326344659
:101C38002B68DA0708D5AB6F102B3CD026D85BB3DE
:101C4800082B32D0012634462B689B074FD56B6F83
:101C5800052B62D8DFE803F0433E5B43434300F0C3
:101C6800EFFEDFF86480074641F28839D8F8703013
:101C78009907B3D400F0E4FEC01B4845F6D9D5E770
:101C88000A6922F47C52B8E72646D1E723F0080215
:101C9800202A01D0182BD5D19CB90B4AA96F536DB6
:101CA80023F038030B435365CEE70121281DFFF7C6
:101CB80069FC0446F0E7012105F12400FFF7DAFC8E
:101CC800F7E72646C0E700BF00440258004802581C
:101CD800CFFFFF000121281DFFF754FC0446FCB983
:101CE800A64A696F536D23F007030B4353652B68AE
:101CF8005F0727D5D5F89030052B00F23981DFE84A
:101D080013F016001100310116001600160001210B
:101D180005F12400FFF7AEFCE0E701263446E6E7CC
:101D28002646E4E70121281DFFF72CFC0446002C79
:101D380040F02181914AD5F89010936D23F0070364
:101D48000B4393652B68980610D5D5F88C30B3F102
:101D5800005F00F02E8100F21381002B00F0198142
:101D6800B3F1805F00F01F81012634462B685906C5
:101D780010D5D5F89830B3F5006F00F03B8100F22C
:101D88002081002B00F02681B3F5806F00F02C81B4
:101D9800012634462B681A0610D5D5F89C30B3F5C1
:101DA800804F00F0488100F22D81002B00F0338134
:101DB800B3F5005F00F03981012634462B681B0714
:101DC80014D5D5F88030B3F5805F07D1022105F12D
:101DD8002400FFF74FFC002818BF0126674AD5F8F2
:101DE8008010536D23F440530B4353652B68DF0673
:101DF80014D5D5F89430B3F5807F07D1022105F1C9
:101E08002400FFF737FC002818BF01265B4AD5F8E5
:101E18009410936D23F440730B4393652B68180358
:101E28001AD5D5F8A010B1F5803F00F00C81B1F5B6
:101E3800003F06D0002940F00C81281DFFF7A2FBC7
:101E48000446002C40F008814C4AD5F8A010936D48
:101E580023F440330B4393652B6859031CD5D5F8FD
:101E68008430B3F5001F00F0F980B3F5401F08D0A7
:101E7800B3F5801F40F0F980404AD36A43F4003339
:101E8800D362002C40F0F4803C4AD5F88410536D9E
:101E980023F440130B4353652B68DA0309D5EB6C25
:101EA800002B00F0E780B3F5803F00F0F1800126B9
:101EB80034462B689B0007D5022105F12400FFF763
:101EC800D9FB002818BF01262B689F030AD5E96FA4
:101ED800B1F5807F00F0F28000F2E280002900F086
:101EE800E5800126DC0206D52449286F0A6D22F018
:101EF800004202430A65D80007D52049D5F8B40046
:101F08000A6922F4804202430A61990206D51B49F4
:101F1800A86E0A6D22F0807202430A655A0009D53C
:101F2800164A116921F4004111611169D5F8B80008
:101F380001431161002B06DA1049286DCA6C22F0A2
:101F480040520243CA641B0207D50C4AD5F88810D0
:101F5800536D23F440030B435365301E18BF012013
:101F6800BDE8F883012105F12400FFF783FBDDE6D6
:101F780001263446E6E62646E4E600BF0044025859
:101F880023F08052B2F1804F03D0B3F1405F7FF469
:101F9800EBAEA4B94D4AD5F88C10536D23F0E0434D
:101FA8000B435365E2E60021281DFFF7EBFA0446D0
:101FB800EFE7022105F12400FFF75CFBF7E726466F
:101FC800D4E623F48062B2F5805F03D0B3F5406FA6
:101FD8007FF4DEAEA4B93D4AD5F89810936D23F48A
:101FE800E0530B439365D5E60021281DFFF7CAFA95
:101FF8000446EFE7022105F12400FFF73BFBF7E772
:102008002646C7E623F40052B2F5004F03D0B3F5D5
:10201800C04F7FF4D1AEA4B92C4AD5F89C10936D6B
:1020280023F460430B439365C8E60021281DFFF79E
:10203800A9FA0446EFE7022105F12400FFF71AFB8D
:10204800F7E72646BAE6022105F12400FFF712FB5E
:10205800F6E601263446FFE62646FDE6012105F1AF
:102068002400FFF707FB04460BE70126344613E775
:10207800264611E7154AD36A43F40033D3626CB994
:10208800124AE96CD36C23F480330B43D36410E712
:102098000221281DFFF776FA0446F0E7264608E7EE
:1020A80021F48072B2F5007F7FF41BAF64B9074852
:1020B800426D22F440720A43426513E70348C26A3C
:1020C80042F40032C262F1E726460BE700440258A8
:1020D800F8B5044608B901208BE00368DF075ED431
:1020E80023689E0700F1AF802368DA0627D59E4B48
:1020F8001A69996A02F03802082A07D0182A40F0AB
:10210800078101F00302012A40F002811B68DB0508
:1021180002D5E369802BDED100F0AAFC41F203036B
:10212800216A9842904B00F2EC805A68202922F0EC
:10213800F8420CBF42F0804242EA81625A6023684A
:10214800190700F1278123689A0600F1488123685E
:102158005D071ED5854D2B6843F480732B6000F016
:102168006FFC06462B68DA0540F15E81A3687E4D58
:10217800012B40F060812B6F43F001032B6741F284
:10218800883700F05DFC784E0546336F9B0740F1B9
:102198007881606A002840F07B81002029E0724B3A
:1021A8001A69996A02F03802102A05D0182A0AD149
:1021B80001F00302022A06D11B689D0390D56368CB
:1021C800002B8DD187E76268B2F5803F12D11A687B
:1021D80042F480321A6000F033FC634E05463368DF
:1021E80098033FF57DAF00F02BFC401B6428F6D91F
:1021F8000320F8BD5C4D2B689AB923F480332B601B
:102208002B6823F480232B6000F01AFC06462B6809
:1022180099037FF565AF00F013FC801B6428F6D99D
:10222800E6E7B2F5A02F07D143F480232B602B6893
:1022380043F480332B60CEE723F480332B602B6884
:1022480023F48023F6E7484BE1681A69986A12F08C
:10225800380203D0182A2BD1820729D11B685B07C3
:1022680002D500293FF437AF3F4D2A6822F0190202
:102278000A432A6000F0E4FB06462B685F0711D585
:1022880000F0F6FB41F20303226998426B6822D8FA
:1022980023F47C33402A0CBF43F4003343EA02336F
:1022A8006B6021E700F0CCFB801B0228E5D99FE793
:1022B8001A68A9B122F019022B4D0A431A6000F0DE
:1022C800BFFB06462B685807DAD400F0B9FB801B21
:1022D8000228F7D98CE723F0FE4343EA0263DFE7DD
:1022E80022F00102204E1A6000F0AAFB054633686E
:1022F80059077FF5F9AE00F0A3FB401B0228F6D979
:1023080076E7DA6822F07C5242EA0162DA6016E780
:10231800E2696AB31A68144D42F080021A6000F04C
:102328008FFB06462B68DF0511D500F0A1FB41F2B3
:102338000303226A984210D86B68202A23F0F843D6
:102348000CBF43F0804343EA82636B60F7E600F01A
:1023580077FB801B0228E5D94AE7EB6823F07C531A
:1023680043EA0263EB60EAE6004402580048025878
:102378001A689F4E22F080021A6000F061FB054641
:102388003368D8057FF5DBAE00F05AFB401B022806
:10239800F6D92DE76369964D83B16B6F43F001035E
:1023A8006B6700F04DFB06466B6F9B073FF5CBAEA6
:1023B80000F046FB801B0228F6D919E76B6F23F063
:1023C80001036B6700F03CFB06466B6F9F077FF5C8
:1023D800BAAE00F035FB801B0228F6D908E7A369DE
:1023E800834D83B12B6843F480532B6000F028FBA6
:1023F80006462B6898043FF5AAAE00F021FB801B27
:102408000228F6D9F4E62B6823F480532B6000F0F9
:1024180017FB06462B6899047FF599AE00F010FB70
:10242800801B0228F6D9E3E600F00AFB801B64282B
:102438007FF698AEDCE6B3B92B6F41F2883723F00C
:1024480001032B672B6F23F004032B6700F0F8FAC6
:1024580006462B6F98077FF59CAE00F0F1FA801BBB
:10246800B842F6D9C4E6052B2B6F03D143F0040319
:102478002B6780E623F001032B672B6F23F00403FF
:102488007CE600F0DDFA401BB8427FF67EAEAFE690
:10249800574D2B6903F03803182B7AD02B68022884
:1024A80023F080732B6067D100F0CAFA06462B68C8
:1024B80099015BD4AB6AA26A23F47C7323F003030B
:1024C8001343E26A43EA0213AB62636BA26B013BFC
:1024D800013A5B0212049BB202F4FE021343226B20
:1024E800013AC2F308021343E26B013A120602F002
:1024F800FE4213432B63EB6A23F00103EB626B6B21
:10250800A26C23F47F4323F0F80343EAC2036B630E
:10251800EB6A226C23F00C031343EB62EB6A626CE8
:1025280023F002031343EB62EB6A43F48033EB625C
:10253800EB6A43F40033EB62EB6A43F48023EB620B
:10254800EB6A43F00103EB622B6843F080732B6066
:1025580000F076FA264D04462B689A013FF51DAE29
:1025680000F06EFA001B0228F6D941E600F068FA7E
:10257800801B02289BD93BE600F062FA04462B68D0
:102588009B017FF50AAE00F05BFA001B0228F6D922
:102598002EE60128AA6A2B6B3FF42BAE02F003014A
:1025A800A06A81427FF497ADC2F30512E16A8A42BC
:1025B8007FF491AD226BC3F30801013A91427FF495
:1025C8008AAD626BC3F34621013A91427FF483AD31
:1025D800A26BC3F30641013A91427FF47CADE06BF4
:1025E800C3F306630138181A18BF012001E600BFBB
:1025F80000440258484B1A6902F03802102A30B5D4
:1026080000F08680182A0CD0002A40F083801A68CF
:10261800424812F0200F03D01B68C3F3C103D8400F
:1026280030BD996A9D6ADC6A15F47C7FC5F3051094
:102638005A6BF5D0C2F3CC0204F0010407EE900AFD
:1026480001F003016243B7EE006AF8EEE76A012978
:1026580007EE902AFAEEE97A4CD002293CD00029FC
:1026680048D11A68920627D519682C4AC1F3C101C6
:102678001B6BCA40C3F3080307EE102AF8EEC75ACB
:1026880085EEA67A06EE903AF8EEE66A76EEA77A36
:1026980077EE867A204B67EE877A1B6BC3F3462367
:1026A800013307EE103AF8EEC76A87EEA67AFCEE19
:1026B800C77A17EE900AB3E71B6BC3F3080307EE5C
:1026C800103AB8EEC77A77EE277A77EE867A9FEDDA
:1026D800146A86EE267ADDE71B6BC3F3080307EE60
:1026E800103AB8EEC77A77EE277A77EE867A9FEDBA
:1026F8000D6AEEE71B6BC3F3080307EE103AB8EE5A
:10270800C77A77EE277A77EE867A9FED076AE0E751
:10271800064885E7064883E7004402580090D0033E
:102728000024744C20BCBE4B0024744A40787D01C0
:1027380000093D002DE9F0410D46044610B901207D
:10274800BDE8F081884A136803F00F038B42C0F09C
:10275800938023685F0700F19B801E070BD5834990
:102768006669C86900F07000864204D9CA6922F017
:1027780070023243CA61D8060BD57C49A669C8697C
:1027880000F4E060864204D9CA6922F4E062324368
:10279800CA6199060BD57549E669086A00F07000A8
:1027A800864204D90A6A22F0700232430A629A0702
:1027B8000BD56E49E668886900F00F00864204D997
:1027C8008A6922F00F0232438A61DF076ED42368D8
:1027D8009E0700F1A18064490A6802F00F02AA422C
:1027E80000F2A880580700F1B18019070BD55F499E
:1027F8006569C86900F07000854204D2CA6922F090
:1028080070022A43CA61DA060BD55849A569C86916
:1028180000F4E060854204D2CA6922F4E0622A43E7
:10282800CA619B060BD5514AE069116A01F0700133
:10283800884204D2136A23F0700303431362FFF73C
:10284800D9FE4A494A4A8B69C3F30323D35C03F090
:102858001F03D8408B6903F00F03D35C454A03F08C
:102868001F0320FA03F31360434B1860434BBDE882
:10287800F041186800F084B8136823F00F030B4385
:102888001360136803F00F038B427FF458AF60E7BF
:1028980036492669886900F0700086427FF65DAF88
:1028A8008A6922F0700232438A6156E72F4BA16889
:1028B8009A6922F470620A439A6162681B68022A64
:1028C8001DD113F4003F3FF43AAF284E41F2883847
:1028D800336923F007031343336100F0B1F8074667
:1028E8003369626803F03803B3EBC20F3FF46FAF8C
:1028F80000F0A6F8C01B4045F2D9032020E7032AC0
:1029080002D113F0007FDEE7012A02D113F4807FA1
:10291800D9E713F0040FD6E71449E668886900F090
:102928000F008642BFF457AF8A6922F00F02324384
:102938008A6150E70A6822F00F022A430A600A688F
:1029480002F00F02AA427FF4FAAE4BE70749256965
:10295800886900F070008542BFF447AF8A6922F0A9
:1029680070022A438A6140E700200052004402585E
:10297800842D000804000024000000240C0000241A
:1029880038B50F4B0546187808B9012038BD4FF403
:102998007A730C4AB3FBF0F31068B0FBF3F0FDF761
:1029A800FBFF04460028F0D10F2DEED80246294639
:1029B8004FF0FF30FDF7B0FF034B20461D60E5E701
:1029C80008000024000000240C00002410B5032097
:1029D800FDF790FFFFF70EFE0F49104A8B69C3F30E
:1029E8000323D35C03F01F03D8408B6903F00F0364
:1029F800D35C0B4A03F01F0320FA03F31360094B5F
:102A080018600F20FFF7BCFF044618B9FDF748FE11
:102A1800204610BD0124FBE700440258842D00081D
:102A28000400002400000024034A044B11681B78AA
:102A38000B441360704700BFF40A00240800002408
:102A4800014B1868704700BFF40A002438B50446E3
:102A5800FFF7F6FF0546631C1EBF044B1B78E418FE
:102A6800FFF7EEFF431BA342FAD338BD080000244A
:102A7800014B1868000C70470010005C014B186887
:102A8800704700BF1000002470B50D4D0D4C641B3D
:102A9800A4100026A64209D10B4D0C4C00F03CF9BD
:102AA800641BA4100026A64205D170BD55F8043B4E
:102AB80098470136EEE755F8043B98470136F2E7A8
:102AC800A42D0008A42D0008A42D0008A82D000896
:102AD800024B0146186800F08DB800BF10000024B2
:102AE800024B0146186800F019B800BF1000002416
:102AF8000A44914200F1FF3300D1704710B511F834
:102B0800014B03F8014F9142F9D110BD024403462D
:102B1800934200D1704703F8011BF9E737B5002944
:102B280044D051F8043C0190002BA1F10404B8BF33
:102B3800E41800F0E3F81E4A0198136833B963609B
:102B4800146003B0BDE8304000F0DEB8A34208D9F5
:102B5800256861198B4201BF19685B6849192160B2
:102B6800EDE71A465B680BB1A342FAD9116855180C
:102B7800A5420BD1246821445418A3421160E0D126
:102B88001C685B68536021441160DAE702D90C23A2
:102B98000360D6E7256861198B4204BF19685B6832
:102BA800636004BF491921605460CAE703B030BDAF
:102BB800F80A002470B50E4E0C463168054611B966
:102BC80000F08CF830602146284600F087F8431C56
:102BD8000AD0C41C24F00304A04207D0211A2846B6
:102BE80000F07CF8013001D14FF0FF34204670BD71
:102BF800FC0A00242DE9F041CD1C25F00305083519
:102C08000C2D38BF0C25002D074601DBA94205D93C
:102C18000C233B6000263046BDE8F0812E4E00F0C4
:102C28006DF833681C4634BB29463846FFF7C2FFA7
:102C3800431C04464DD134682646002E40D12368F3
:102C48003146384604EB030800F048F880453AD18D
:102C5800216803356D1A25F0030508350C2D38BF9A
:102C68000C2529463846FFF7A5FF01302BD02368ED
:102C78002B4423600EE02268521B1ED40B2A16D95F
:102C88006119A342256018BF5960636808BF3160A5
:102C980062514B60384604F10B0600F035F826F017
:102CA8000706231DF21AB6D09B1BA350B3E7626830
:102CB800A3420CBF32605A60ECE723466468B2E76F
:102CC80034467668B9E70C233B60384600F01CF8B8
:102CD800A1E72560DEE700BFF80A002438B5064DF5
:102CE8000023044608462B60FDF75AFD431C02D119
:102CF8002B6803B1236038BD000B0024014800F0A5
:102D080009B800BF040B0024014800F004B800BF54
:102D1800040B002470477047F8B500BFF8BC08BC26
:102D28009E467047F8B500BFF8BC08BC9E46704781
:102D3800000000000000000000000000000000008B
:102D48000000000001000000020000000300000075
:102D58000400000000000000050000000000000062
:102D68000000000000000000060000000000000055
:102D78000000000000000000070000000000000044
:102D88000102030401020304060708090001020303
:0C2D980004050607080C10141820304039
:042DA400BD02000864
:042DA8009902000884
:102DAC000090D0030090D003010000001000000040
:102DBC0014000024000000000000000000000000CF
:102DCC0000000000000000000000000000000000F7
:102DDC0000000000000000000000000000000000E7
:102DEC0000000000000000000000000000000000D7
:102DFC0000000000000000000000000000000000C7
:102E0C0000000000000000000000000000000000B6
:042E1C0000000000B2
:04000005080008A93E
:00000001FF
