:020000040800F2
:1000000000000824F10C0008FD0A0008050B000898
:10001000190B00081F0B0008250B0008000000004A
:100020000000000000000000000000002B0B000892
:10003000390B000800000000470B0008550B0008B2
:10004000410D0008410D0008410D0008410D000858
:10005000410D0008410D0008410D0008410D000848
:10006000410D0008410D0008410D0008410D000838
:10007000410D0008410D0008410D0008410D000828
:10008000410D0008410D0008410D0008610B0008FA
:10009000410D0008410D0008410D0008410D000808
:1000A000410D0008410D0008410D0008410D0008F8
:1000B000410D0008410D0008410D0008410D0008E8
:1000C000410D0008410D0008410D0008410D0008D8
:1000D000410D0008410D0008410D0008410D0008C8
:1000E000410D0008410D000800000000410D00080E
:1000F000410D0008410D0008410D0008410D0008A8
:10010000410D0008410D0008410D0008410D000897
:10011000410D0008410D0008410D0008410D000887
:10012000410D0008410D0008410D0008410D000877
:10013000410D0008410D0008410D0008410D000867
:1001400000000000000000000000000000000000AF
:10015000410D0008410D0008410D0008410D000847
:10016000410D0008410D0008410D0008410D000837
:10017000410D0008410D0008410D0008000000007D
:10018000410D0008410D0008410D0008410D000817
:10019000410D0008410D0008410D0008410D000807
:1001A000410D0008410D0008410D0008410D0008F7
:1001B000410D0008410D0008410D0008410D0008E7
:1001C000410D0008410D0008410D0008410D0008D7
:1001D000410D0008410D0008410D0008410D0008C7
:1001E000410D0008410D0008410D0008410D0008B7
:1001F000410D0008410D0008410D0008410D0008A7
:10020000410D0008410D0008410D0008410D000896
:10021000410D0008410D0008410D0008410D000886
:10022000410D0008410D0008410D000800000000CC
:10023000410D0008410D000800000000410D0008BC
:10024000410D0008410D0008410D0008410D000856
:10025000410D0008410D0008410D0008410D000846
:10026000410D0008410D0008410D0008410D000836
:10027000410D0008410D0008410D0008000000007C
:10028000410D0008410D0008410D0008000000006C
:0802900000000000410D000810
:1002980010B5054C237833B9044B13B10448AFF3B8
:1002A80000800123237010BD7800002400000000A6
:1002B800844A000808B5034B1BB103490348AFF350
:1002C800008008BD000000007C000024844A00086B
:1002D80080B582B000AF7860396001210D4802F026
:1002E80060F90D4B0D4A40210D4801F09BF80A4971
:1002F8000A4800F079F800220121094801F000FAC3
:100308000346002B01D000F061FB00BF0837BD4653
:1003180080BD00BF00040258400A0024180A0024C7
:10032800480A002480B582B000AF0023FB801AE0A1
:10033800FB88114A52F82330184604F083FAFB88E8
:100348000D4A002142F82310FB880B4A52F823304B
:1003580000221A70FB88084A1344002283F84026BA
:10036800FB880133FB80FB88B3F5C87FE0D300BF6F
:1003780000BF0837BD4680BD9400002480B500AF9B
:10038800FFF7D0FF164800F0C7FF0346002B01D047
:1003980000F01CFB00220121114801F0B1F90346CD
:1003A800002B01D000F012FB0E4B00225A600D4BBF
:1003B80000229A600B4B4FF40022DA60094B0022AE
:1003C8001A61084B00225A61064B4FF400129A61D9
:1003D800044B0022DA61034B00221A6200BF80BD81
:1003E800480A0024F409002480B584B000AF78607E
:1003F80039607B68DB681B0CFB737B681B68BB81FF
:100408003B681B7803F00303FB72BB89B3F5C87F15
:1004180015D8FB7A002B02D0012B08D010E0BB893D
:10042800DBB2F97B3A68184600F00EF808E0BB89A1
:10043800DBB2F97B3A68184600F068F800E000BFC4
:100448001037BD4680BD00002DE9F04387B000AFEE
:1004580003463A60FB710B46BB714FF000024FF048
:100468000003C7E90423FB79274A1344BA7983F8C0
:100478004026FB79244A1344002283F8D027FB79CD
:10048800214A52F82330184604F0DCF9BB79FE798A
:10049800184604F0CFF903461A461B4B43F82620AA
:1004A8000023FB6016E0FB683A6813441B781A4681
:1004B800FB68DB0002FA03F3DA171C461546D7E996
:1004C800042312EB040843EB0509C7E90489FB6818
:1004D8000133FB60BB79FA689A42E4DBD7E904018F
:1004E8004FF000024FF00003820842EA81728B0845
:1004F800F979054850F82110D3B20B7000BF1C37AA
:10050800BD46BDE8F08300BF940000242DE9F04308
:1005180087B000AF03463A60FB710B46BB714FF0E2
:1005280000024FF00003C7E90423FB79274A13446C
:10053800BA7983F84026FB79244A1344012283F8C8
:10054800D027FB79214A52F82330184604F07AF96B
:10055800BB79FE79184604F06DF903461A461B4B21
:1005680043F826200023FB6016E0FB683A68134432
:100578001B781A46FB68DB0002FA03F3DA171C46FD
:100588001546D7E9042312EB040843EB0509C7E92C
:100598000489FB680133FB60BB79FA689A42E4DBA3
:1005A800D7E904014FF000024FF00003820842EA45
:1005B80081728B08F979054850F82110D3B20B7075
:1005C80000BF1C37BD46BDE8F08300BF940000247F
:1005D800F0B589B000AF0146C7E900230B46FB819F
:1005E8003B467B610023FB610023BB611BE0D7E92D
:1005F8000023B969C900C1F12006A1F1200022FA3F
:1006080001F403FA06F6344323FA00F0044323FA0C
:1006180001F554EA050303D1BB691B04FB6105E03E
:10062800BB690133BB61BB69072BE0DDFB89094A64
:100638001360084AFB69D3607A690649064800F0E6
:1006480096FE0346002B01D000F0C0F900BF243706
:10065800BD46F0BDF4090024480A00242DE9B04342
:1006680084B000AF0146C7E900230B46FB81D7E9F8
:100678000023012A73F100030CDBD7E900014FF0D6
:1006880000024FF000038B0043EA90738200C7E931
:10069800002312E0D7E900230021544261EB03054F
:1006A8004FF000024FF00003AB0043EA9473A2003E
:1006B80042F001089946C7E90089D7E90023F9897A
:1006C8000846FFF785FF00BF1037BD46BDE8B08379
:1006D80080B500AF03F0C2FF00F01AF800F0FCF894
:1006E80000F094F8FFF74AFE0749084A4FF0FF3335
:1006F800C1E90023044BD3E900236420FFF7AEFFD0
:10070800462004F03DF8F5E7E80A0024FEF5FFFF6F
:1007180080B59CB000AF07F124034C220021184695
:1007280004F0A6F83B1D20220021184604F0A0F88A
:10073800022001F051FF00233B60324BDB6A314A53
:1007480023F00103D3622F4BDB6A03F001033B6004
:100758002D4B9B6923F440432B4A43F48043936118
:10076800294B9B6903F440433B603B6800BF264B21
:100778009B6903F40053B3F5005FF8D102237B6251
:1007880001233B6340237B630223BB640023FB6498
:1007980004233B650C237B650223BB650423FB65AF
:1007A80002233B660C237B660023BB664FF4805311
:1007B800FB6607F12403184602F0F2FF0346002BFC
:1007C80001D000F003F93F237B600323BB600023C3
:1007D800FB6000233B6100237B610023BB61002396
:1007E800FB6100233B623B1D0221184603F006FC17
:1007F8000346002B01D000F0E9F800BF7037BD4672
:1008080080BD00BF000400580048025880B500AF02
:100818002F4B304A1A602E4B4FF480729A602C4B43
:100828000322DA602A4B00221A74294B00225A74D8
:10083800274B00229A74264B01225A61244B072227
:100848009A61234B2A22DA61214B1B221A62204B20
:1008580002225A621E4B0C229A621D4B0C22DA624B
:100868001B4B0C221A631A4B00225A63184B0022A6
:100878009A63174B0022DA63154B01221A64144B52
:1008880004225A64124B00229A64114B0422DA643F
:100898000F4B00221A650E4B04225A650C4B00229E
:1008A8009A650B4B0022DA65094B01221A66084B40
:1008B80000225A66064B04229A66054800F04EFB51
:1008C8000346002B01D000F081F800BF80BD00BFB7
:1008D800480A002400A0004080B58AB000AF07F1A4
:1008E800140300221A605A609A60DA601A61344B65
:1008F800D3F8E030324A43F08003C2F8E030304B9E
:10090800D3F8E03003F080033B613B692C4BD3F80C
:10091800E0302B4A43F00203C2F8E030284BD3F80A
:10092800E03003F00203FB60FB68254BD3F8E030AE
:10093800234A43F00103C2F8E030214BD3F8E030FA
:1009480003F00103BB60BB681D4BD3F8E0301C4AC1
:1009580043F01003C2F8E030194BD3F8E03003F04D
:1009680010037B607B68002244F20101154801F006
:10097800FFFD00220221144801F0FAFD44F20103B0
:100988007B610123BB610023FB6100233B6207F10C
:10099800140319460B4801F03BFC02237B61012339
:1009A800BB610023FB6100233B6207F11403194676
:1009B800054801F02DFC00BF2837BD4680BD00BFAB
:1009C80000440258000402580010025880B500AFD5
:1009D80072B600BF4FF48041014801F0E2FDF9E72B
:1009E8000004025880B483B000AF0A4BD3F8F43047
:1009F800084A43F00203C2F8F430064BD3F8F43047
:100A080003F002037B607B6800BF0C37BD465DF8CE
:100A1800047B70470044025880B5B8B000AF7860D6
:100A280007F1CC0300221A605A609A60DA601A61F2
:100A380007F11003BC220021184603F019FF7B6858
:100A48001B68294A93424BD14FF400433B614FF056
:100A58008053FB6707F11003184601F0F7FD0346C2
:100A6800002B01D0FFF7B2FF204BD3F8EC301F4A20
:100A780043F48073C2F8EC301C4BD3F8EC3003F429
:100A88008073FB60FB68194BD3F8E030174A43F0DA
:100A98000103C2F8E030154BD3F8E03003F001034E
:100AA800BB60BB684FF4C053C7F8CC300223C7F80B
:100AB800D0300023C7F8D4300023C7F8D830092332
:100AC800C7F8DC3007F1CC031946094801F0A0FB50
:100AD80000220021132000F00CFA132000F023FA62
:100AE80000BFE037BD4680BD00A00040004402586A
:100AF8000000025880B400AFFEE7000080B500AFE8
:100B08004FF48041014801F04CFDF9E70004025818
:100B180080B400AFFEE780B400AFFEE780B400AF5A
:100B2800FEE780B400AF00BFBD465DF8047B7047A8
:100B380080B400AF00BFBD465DF8047B704780B449
:100B480000AF00BFBD465DF8047B704780B500AFBD
:100B580003F0F6FD00BF80BD80B500AF024800F08D
:100B680049FE00BF80BD00BF480A002480B586B09A
:100B780000AF7860144A154BD31A7B617B693B61DF
:100B8800134B1B68002B02D1114B124A1A60104BF1
:100B98001A687B6813443A699A4207D203F020FE28
:100BA80003460C221A604FF0FF3309E0084B1B681C
:100BB800FB60074B1A687B681344054A1360FB689F
:100BC80018461837BD4680BD000008240004000000
:100BD800F00A0024080B002480B400AF374BD3F888
:100BE8008830364A43F47003C2F88830344B1B68A7
:100BF80003F00F03062B07D8314B1B6823F00F03B4
:100C08002F4A43F0070313602E4B1B682D4A43F00D
:100C1800010313602B4B00221A612A4B1A682949D9
:100C2800294B13400B60264B1B6803F00803002B6D
:100C380007D0234B1B6823F00F03214A43F0070317
:100C48001360204B00229A611E4B0022DA611D4B73
:100C580000221A621B4B1D4A9A621A4B1C4ADA621E
:100C6800184B1C4A1A63174B00225A63154B194A32
:100C78009A63144B0022DA63124B164A1A64114B1A
:100C880000225A640F4B1B680E4A23F4802313601A
:100C98000C4B00221A66104B1A68104B1340B3F124
:100CA800005F02D20E4B01221A600E4B43F2D202B1
:100CB8001A6000BFBD465DF8047B704700ED00E098
:100CC80000200052004402587FEDF6EA00020202BA
:100CD8000000FF01800201010010005C0000FFFF1E
:100CE8000881005100400052DFF834D0FFF774FF4C
:100CF8000C480D490D4A002302E0D458C45004336F
:100D0800C4188C42F9D30A4A0A4C002301E0136044
:100D18000432A242FBD303F069FDFFF7D9FC704708
:100D2800000008240000002474000024104B000870
:100D380078000024080B0024FEE7000080B485B08A
:100D480000AF78607B6803F00703FB600B4BDB6840
:100D5800BB60BA684FF6FF031340BB60FB681A021A
:100D6800BB681A43064B1343BB60044ABB68D36095
:100D780000BF1437BD465DF8047B704700ED00E006
:100D88000000FA0580B400AF044BDB681B0A03F0CF
:100D980007031846BD465DF8047B704700ED00E088
:100DA80080B483B000AF0346FB80B7F90630002B50
:100DB8000BDBFB8803F01F020749B7F906305B0914
:100DC800012000FA02F241F8232000BF0C37BD468B
:100DD8005DF8047B704700BF00E100E080B483B099
:100DE80000AF03463960FB80B7F90630002B0ADBF9
:100DF8003B68DAB20C49B7F906301201D2B20B449B
:100E080083F800230AE03B68DAB20849FB8803F05C
:100E18000F03043B1201D2B20B441A7600BF0C3701
:100E2800BD465DF8047B704700E100E000ED00E09E
:100E380080B489B000AFF860B9607A60FB6803F0ED
:100E48000703FB61FB69C3F10703042B28BF0423D5
:100E5800BB61FB690433062B02D9FB69033B00E045
:100E680000237B614FF0FF32BB6902FA03F3DA43D8
:100E7800BB681A407B699A404FF0FF317B6901FAE1
:100E880003F3D9437B680B40134318462437BD4608
:100E98005DF8047B7047000080B582B000AF7860D1
:100EA8007B68013BB3F1807F01D301230FE00A4A3D
:100EB8007B68013B53600F214FF0FF30FFF78EFF37
:100EC800054B00229A60044B07221A60002318463B
:100ED8000837BD4680BD00BF10E000E080B582B095
:100EE80000AF78607868FFF729FF00BF0837BD4674
:100EF80080BD80B586B000AF0346B9607A60FB81DB
:100F0800FFF740FF78617A68B9687869FFF790FF62
:100F18000246B7F90E3011461846FFF75FFF00BFCB
:100F28001837BD4680BD80B582B000AF0346FB8050
:100F3800B7F906301846FFF733FF00BF0837BD463C
:100F480080BD80B582B000AF78607868FFF7A4FFF5
:100F5800034618460837BD4680BD000080B598B0E6
:100F680000AF7860844A07F10C0311464C221846FA
:100F780003F070FC7B68002B01D10123C6E17B687C
:100F88001B687E4A934206D17B681B6803F5807311
:100F98001A467B685A607B6893F89830DBB2002B5E
:100FA80006D17B68002283F899207868FFF734FD22
:100FB8007B681B689A697B681B6822F010029A613B
:100FC80003F0D2FBF86514E003F0CEFB0246FB6D9C
:100FD800D31A0A2B0DD97B68D3F89C3043F0010251
:100FE8007B68C3F89C207B68032283F89820012340
:100FF8008CE17B681B689B6903F00803082BE3D02E
:101008007B681B689A697B681B6842F001029A61D9
:1010180003F0AAFBF86514E003F0A6FB0246FB6D9B
:10102800D31A0A2B0DD97B68D3F89C3043F0010200
:101038007B68C3F89C207B68032283F898200123EF
:1010480064E17B681B689B6903F00103002BE3D014
:101058007B681B689A697B681B6842F002029A6188
:101068007B681B7C012B08D17B681B689A697B68AD
:101078001B6822F040029A6107E07B681B689A6946
:101088007B681B6842F040029A617B685B7C012B9D
:1010980008D17B681B689A697B681B6842F48042A8
:1010A8009A6107E07B681B689A697B681B6822F471
:1010B80080429A617B689B7C012B08D17B681B6806
:1010C8009A697B681B6822F480529A6107E07B6802
:1010D8001B689A697B681B6842F480529A617B6836
:1010E8001B689B6923F440717B689A687B681B685E
:1010F8000A439A617B681B689A697B681B6822F0BF
:10110800A4029A617B681B681A697B681B6822F0D5
:1011180010021A617B68DB68012B08D17B681B68A9
:101128009A697B681B6842F004029A6130E07B6828
:10113800DB68002B2CD07B68DB68022B20D07B6817
:101148001B689A697B681B6842F080029A617B6819
:101158001B681A697B681B6842F010021A617B6879
:10116800DB68032B14D17B681B689A697B681B6852
:1011780042F020029A610BE09C4A000800A000405F
:101188007B681B689A697B681B6842F020029A6139
:101198007B689B69013B5A067B68DB69013B1B0244
:1011A8001A437B681B6A013B42EA03017B685B695F
:1011B800013B1A047B681B680A43DA617B689B68F9
:1011C800B3F5407F15D17B689B6A5A1E7B68DB6A42
:1011D800013B1B021A437B681B6B013B1B0142EA64
:1011E80003017B685B6A013B1A047B681B680A433E
:1011F800DA607B681B6E002B0AD07B681B68D3F80B
:10120800C0107B685A6E7B681B680A43C3F8C0200D
:101218007B68DA6D7B681B6E1344002B11D07B68EA
:101228001B68D3F8C83023F007017B689B6E9B00CE
:1012380060333B4453F8542C7B681B680A43C3F85B
:10124800C8207B681B6C002B11D07B681B68D3F807
:10125800BC3023F007017B685B6C9B0060333B4428
:1012680053F8542C7B681B680A43C3F8BC207B687E
:101278009B6C002B12D07B681B68D3F8BC3023F022
:1012880070017B68DB6C9B0060333B4453F8543C33
:101298001A017B681B680A43C3F8BC207B681B6D76
:1012A800002B12D07B681B68D3F8BC3023F4E061B4
:1012B8007B685B6D9B0060333B4453F8543C1A02D7
:1012C8007B681B680A43C3F8BC207B681B68114A0B
:1012D800934207D17B685B689A687B685B6822F0F9
:1012E80003029A607B680022C3F894207B6800227E
:1012F800C3F89C207B68012283F89820786800F066
:1013080083FD034687F85B3097F85B3018466037F3
:10131800BD4680BD00A0004080B483B000AF7860B7
:101328007B6893F89830DBB2012B11D17B680222DD
:1013380083F898207B681B689A697B681B6822F091
:1013480001029A617B680022C3F89C20002308E010
:101358007B68D3F89C3043F004027B68C3F89C2078
:10136800012318460C37BD465DF8047B704780B5ED
:1013780086B000AFF860B9607A60FB6893F898307F
:10138800DBB2022B41D1FB681B68D3F8C03003F0F5
:101398007C53002B09D1FB68D3F89C3043F0200222
:1013A800FB68C3F89C20012338E0FB681B68D3F86E
:1013B800C43003F40013002B09D0FB68D3F89C3029
:1013C80043F40072FB68C3F89C20012326E0FB6805
:1013D8001B68D3F8C4301B0C03F01F037B617B69C7
:1013E8007A68B968F86800F095FEFB681B68012107
:1013F8007A6901FA02F2C3F8D02001227B699A4087
:10140800FB68C3F89420002308E0FB68D3F89C30FD
:1014180043F00802FB68C3F89C20012318461837DC
:10142800BD4680BD80B48BB000AFF860B9607A600B
:101438003B600023FB61FB6893F89830FB76FB7EEA
:10144800022B40F04B81BB68402B4DD1FB681B68D9
:10145800D3F8A03003F4FE03002B09D1FB68D3F8BE
:101468009C3043F02002FB68C3F89C2001233EE136
:10147800FB681B68D3F8A43003F07F03002B09D165
:10148800FB68D3F89C3043F48072FB68C3F89C2057
:1014980001232CE1FB681B68D3F8A4301B0E03F072
:1014A8000103012B0BD1FB681B68D3F8A030DB0FBD
:1014B80003F00103B3F1004F01D10123FB61FB6885
:1014C8001B68D3F8A4301B0A03F03F03FA691344DE
:1014D800FB61FB685A6FFB685B6CF96901FB03F3FE
:1014E8009B0013447B6269E0BB68412B4DD1FB68CC
:1014F8001B68D3F8B03003F4FE03002B09D1FB6856
:10150800D3F89C3043F02002FB68C3F89C200123E9
:10151800EDE0FB681B68D3F8B43003F07F03002BC1
:1015280009D1FB68D3F89C3043F48072FB68C3F898
:101538009C200123DBE0FB681B68D3F8B4301B0E4A
:1015480003F00103012B0BD1FB681B68D3F8B03003
:10155800DB0F03F00103B3F1004F01D10123FB615D
:10156800FB681B68D3F8B4301B0A03F03F03FA6921
:101578001344FB61FB689A6FFB68DB6CF96901FB3C
:1015880003F39B0013447B6218E0FB681B6DBA6889
:101598009A4209D3FB68D3F89C3043F02002FB68D9
:1015A800C3F89C200123A2E0FB68DA6FFB685B6D3F
:1015B800B96801FB03F39B0013447B627B6A1B68D9
:1015C80003F080427B685A607B685B68002B07D118
:1015D8007B6A1B689B0CC3F30A027B681A6005E0F0
:1015E8007B6A1B6823F060427B681A607B6A1B6811
:1015F80003F000527B689A607B6A1B6803F0004224
:101608007B681A617B6A04337B627B6A1B689AB2C7
:101618007B68DA617B6A1B6803F470227B68DA6096
:101628007B6A1B6803F480127B685A617B6A1B68BB
:1016380003F400127B689A617B6A1B681B0E03F037
:101648007F027B681A627B6A1B68DA0F7B685A62C2
:101658007B6A04337B627B6A7B6100233B620AE01E
:101668007A693B6A1A4439683B6A0B4412781A70E3
:101678003B6A01333B627B68DB681B0C1F4AD35C07
:101688001A463B6A9342EBD3BB68402B05D1FB68F3
:101698001B68FA69C3F8A8201EE0BB68412B05D176
:1016A800FB681B68FA69C3F8B82015E0BB681F2BF4
:1016B80008D8FB681B680121BA6801FA02F2C3F86E
:1016C800982009E0BB6803F01F02FB681B68012132
:1016D80001FA02F2C3F89C20002308E0FB68D3F863
:1016E8009C3043F00802FB68C3F89C20012318468D
:1016F8002C37BD465DF8047B704700BFF84A0008E8
:1017080080B487B000AFF860B9607A60FB6893F87E
:101718009830FB75FB7D012B02D0FB7D022B55D148
:10172800FB681B689A6DBB681340002B08D1FB68E7
:101738001B68DA6DFB681B6842F00102DA6514E089
:10174800FB681B689A6DBB681340BA689A4208D157
:10175800FB681B68DA6DFB681B6842F00202DA65F9
:1017680003E0FB681B680322DA65BB6803F40073B7
:10177800002B09D0FB681B68D3F8E010FB681B68D6
:101788007A680A43C3F8E020BB6803F48063002B3F
:1017980009D0FB681B68D3F8E410FB681B687A68FB
:1017A8000A43C3F8E420FB681B68596DBA680F4BFD
:1017B8001340FA6812680B4353650D4B5A69BB68AE
:1017C8009B0F0B4913434B61002308E0FB68D3F8D8
:1017D8009C3043F00202FB68C3F89C2001231846A2
:1017E8001C37BD465DF8047B704700BFFFFFCF3F45
:1017F80000A8004080B596B000AF78609A4B1B698E
:101808009B077B65984B5B699B077A6D13407B65EB
:101818007B681B681B6D03F470433B657B681B6822
:101828005B6D3A6D13403B657B681B681B6D03F06D
:101838000F03FB647B681B685B6DFA6C1340FB64E9
:101848007B681B681B6D03F0F003BB647B681B6837
:101858005B6DBA6C1340BB647B681B681B6D03F03F
:1018680071537B647B681B685B6D7A6C13407B6487
:101878007B681B681B6D03F060733B647B681B68A7
:101888005B6D3A6C13403B647B681B685B6DFB6364
:101898007B681B681B6DBB63FB6B1B0A03F00103B2
:1018A800002B10D0BB6B1B0A03F00103002B0AD0DE
:1018B8007B681B684FF480721A656B4B00221A61B3
:1018C800786800F054FAFB6B9B0A03F00103002BC5
:1018D8001DD0BB6B9B0A03F00103002B17D07B685C
:1018E8001B68D3F8DC307B637B681B68D3F8E43073
:1018F8007A6B13407B637B681B684FF480621A65C0
:10190800594B00221A61796B786800F007FA7B6DF1
:10191800002B0DD07B681A68796D544B0B4013650A
:10192800514A7B6D9B0F1361796D786800F0C0F99F
:101938003B6D002B0DD07B681A68396D4B4B0B4003
:101948001365494A3B6D9B0F1361396D786800F048
:10195800BAF9FB6C002B0DD07B681A68F96C434B05
:101968000B401365404AFB6C9B0F1361F96C786858
:10197800FEF7AEFCBB6C002B0DD07B681A68B96C07
:101988003A4B0B401365384ABB6C9B0F1361B96C1B
:10199800786800F0A3F9FB6BDB0A03F00103002B66
:1019A80010D0BB6BDB0A03F00103002B0AD07B6865
:1019B8001B684FF400621A652B4B00221A61786885
:1019C80000F097F9FB6B5B0A03F00103002B1DD0B5
:1019D800BB6B5B0A03F00103002B17D07B681B6805
:1019E800D3F8D8303B637B681B68D3F8E0303A6B98
:1019F80013403B637B681B684FF400721A651A4BEF
:101A080000221A61396B786800F07DF9FB6BDB0CFA
:101A180003F00103002B10D0BB6BDB0C03F00103B8
:101A2800002B0AD07B681B684FF400221A650E4B06
:101A380000221A61786800F07CF9FB6B1B0C03F03C
:101A48000103002B16D0BB6B1B0C03F00103002B0A
:101A580010D07B681B684FF480321A65024B002255
:101A68001A61786804E000BF00A80040FFFFCF3F7C
:101A780000F069F9FB6B9B0C03F00103002B10D0FD
:101A8800BB6B9B0C03F00103002B0AD07B681B681F
:101A98004FF480221A65834B00221A61786800F09F
:101AA8005CF9FB6B5B0C03F00103002B15D0BB6BDF
:101AB8005B0C03F00103002B0FD07B681B684FF40D
:101AC80000321A65774B00221A617B68D3F89C3084
:101AD80043F080027B68C3F89C203B6C002B0DD040
:101AE8007B681A68396C704B0B4013656D4A3B6C08
:101AF8009B0F1361396C786800F04DF97B6C002BF3
:101B080011D07B681A68796C674B0B401365654A7E
:101B18007B6C9B0F13617B68D3F89C207B6C1A430A
:101B28007B68C3F89C207B681B68604A934240F03E
:101B3800AC807B685B689B6803F00303002B00F0B4
:101B4800A4807B685B681B6A03F00F03FB627B68F9
:101B58005B685B6AFA6A1340FB627B685B681B6AB6
:101B680003F03003BB627B685B685B6ABA6A134048
:101B7800BB627B685B681B6A03F4C0737B627B682B
:101B88005B685B6A7A6A13407B627B685B681B6A86
:101B980003F4FC433B627B685B685B6A3A6A134008
:101BA8003B627B685B681B6A03F4F023FB617B681C
:101BB8005B685B6AFA691340FB617B685B685B6A18
:101BC800BB617B685B681B6A7B61FB6A002B07D083
:101BD8007B685B68FA6A1A62F96A786800F0E6F866
:101BE800BB6A002B07D07B685B68BA6A1A62B96A5D
:101BF800786800F0E6F8BB699B0903F00103002B45
:101C08001AD07B699B0903F00103002B14D07B6871
:101C18005B68DB6B1B0C9BB23B617B685B68DB6BB7
:101C280003F03F03FB607B685B6840221A62FA6836
:101C38003969786800F0D0F87B6A002B07D07B6898
:101C48005B687A6A1A62796A786800F0D1F83B6A48
:101C5800002B0BD07B685B683A6A1A627B68D3F802
:101C68009C203B6A1A437B68C3F89C20FB69002BC5
:101C78000BD07B685B68FA691A627B68D3F89C2092
:101C8800FB691A437B68C3F89C207B68D3F89C30B7
:101C9800002B02D0786800F074F800BF5837BD46B2
:101CA80080BD00BF00A80040FFFFCF3F00A000405C
:101CB80080B483B000AF7860396000BF0C37BD4690
:101CC8005DF8047B704780B483B000AF78603960FA
:101CD80000BF0C37BD465DF8047B704780B483B005
:101CE80000AF7860396000BF0C37BD465DF8047BF3
:101CF800704780B483B000AF786000BF0C37BD4632
:101D08005DF8047B704780B483B000AF78603960B9
:101D180000BF0C37BD465DF8047B704780B483B0C4
:101D280000AF7860396000BF0C37BD465DF8047BB2
:101D3800704780B483B000AF786000BF0C37BD46F1
:101D48005DF8047B704780B483B000AF786000BF53
:101D58000C37BD465DF8047B704780B483B000AF94
:101D6800786000BF0C37BD465DF8047B704780B4CF
:101D780083B000AF786000BF0C37BD465DF8047BC8
:101D8800704780B483B000AF786000BF0C37BD46A1
:101D98005DF8047B704780B483B000AF7860396029
:101DA80000BF0C37BD465DF8047B704780B483B034
:101DB80000AF7860396000BF0C37BD465DF8047B22
:101DC800704780B483B000AF7860396000BF0C37CB
:101DD800BD465DF8047B704780B485B000AFF860FD
:101DE800B9607A6000BF1437BD465DF8047B704760
:101DF80080B483B000AF7860396000BF0C37BD464F
:101E08005DF8047B7047000080B485B000AF78604F
:101E18007B685B6BBB607B681B68D3F88420A74B2F
:101E28001340BA6891007A6812680B43C2F884308C
:101E38007B681B68D3F8843023F47F017B689B6B35
:101E48001A047B681B680A43C3F884207B689B6B71
:101E5800BA681344BB607B681B68D3F88820974B2B
:101E68001340BA6891007A6812680B43C2F8883048
:101E78007B681B68D3F8883023F4FE017B68DB6B32
:101E88001A047B681B680A43C3F888207B68DB6BED
:101E98005B00BA681344BB607B681B68D3F8A0205A
:101EA800864B1340BA6891007A6812680B43C2F8EF
:101EB800A0307B681B68D3F8A03023F4FE017B6850
:101EC8001B6C1A047B681B680A43C3F8A0207B6854
:101ED8001B6C7A68526C02FB03F3BA681344BB604C
:101EE8007B681B68D3F8B020744B1340BA68910024
:101EF8007A6812680B43C2F8B0307B681B68D3F865
:101F0800B03023F4FE017B689B6C1A047B681B6865
:101F18000A43C3F8B0207B689B6C7A68D26C02FBDA
:101F280003F3BA681344BB607B681B68D3F8AC2022
:101F3800624B1340BA6891007A6812680B43C2F882
:101F4800AC307B681B6D7A68526D02FB03F3BA688C
:101F58001344BB607B681B68D3F8F020574B1340D1
:101F6800BA6891007A6812680B43C2F8F0307B684F
:101F78001B68D3F8F03023F47C117B689B6D1A043E
:101F88007B681B680A43C3F8F0207B689B6D5B0085
:101F9800BA681344BB607B681B68D3F8C020474B02
:101FA8001340BA6891007A6812680B43C2F8C030CF
:101FB8007B681B68D3F8C03023F47C117B68DB6D29
:101FC8001A047B681B680A43C3F8C0207B681B6837
:101FD800D3F8C03023F07C517B681B6E1A067B68EF
:101FE8001B680A43C3F8C0207B685A6B344B134400
:101FF8009A007B68DA667B68DA6E7B689B6B9B006D
:102008001A447B681A677B681A6F7B68DB6BDB0096
:102018001A447B685A677B685A6F7B681B6C7968BF
:10202800496C01FB03F39B001A447B689A677B6841
:102038009A6F7B689B6C7968C96C01FB03F39B0002
:102048001A447B68DA677B68DA6F7B681B6D79688E
:10205800496D01FB03F39B001A447B68C3F8802099
:102068007B68D3F880207B689B6DDB001A447B6813
:10207800C3F884207B68D3F884207B68DB6D79689B
:10208800896E01FB03F39B001A447B68C3F8882020
:102098007B68D3F888207B681B6E7968896E01FBA2
:1020A80003F39B001A447B68C3F890207B68D3F83D
:1020B8009030044A934215D906E000BF0300FFFFA1
:1020C800002B0010FCD300407B68D3F89C3043F011
:1020D80020027B68C3F89C207B68032283F8982041
:1020E800012310E07B68DB6EFB6005E0FB680022E3
:1020F8001A60FB680433FB607B68D3F89030FA6899
:102108009A42F3D3002318461437BD465DF8047B82
:10211800704700BF80B489B000AFF860B9607A60DA
:102128003B60BB685B68002B0AD1BB681A69BB6857
:102138009B681A43BB681B689B041343FB610AE056
:10214800BB681A69BB689B681A43BB681B68134362
:1021580043F08043FB61BB681B6A1A06BB68DB69F6
:102168001A43BB689B691A43BB685B691A43BB681F
:10217800DB6813433B61FB68D3F88420FB689B6EE4
:10218800396801FB03F39B001344BB61BB69FA691F
:102198001A60BB690433BB61BB693A691A60BB69E1
:1021A8000433BB6100237B6120E07B6903337A68D9
:1021B80013441B781A067B69023379680B441B7831
:1021C8001B041A437B69013379680B441B781B0293
:1021D800134379687A690A4412781A43BB691A600A
:1021E800BB690433BB617B6904337B61BB68DB6813
:1021F8001B0C064AD35C1A467B699342D5D300BFB1
:1022080000BF2437BD465DF8047B7047F84A0008D4
:1022180080B489B000AF786039600023FB61894BD6
:102228007B6194E13B681A680121FB6901FA03F3B9
:1022380013403B613B69002B00F086813B685B687B
:1022480003F00303012B05D03B685B6803F003032D
:10225800022B30D17B689B68BB61FB695B00032262
:1022680002FA03F3DB43BA691340BB613B68DA68DF
:10227800FB695B0002FA03F3BA691343BB617B682D
:10228800BA699A607B685B68BB610122FB6902FAE4
:1022980003F3DB43BA691340BB613B685B681B0906
:1022A80003F00102FB6902FA03F3BA691343BB6145
:1022B8007B68BA695A603B685B6803F00303032BC9
:1022C80017D07B68DB68BB61FB695B00032202FAFD
:1022D80003F3DB43BA691340BB613B689A68FB6947
:1022E8005B0002FA03F3BA691343BB617B68BA69FE
:1022F800DA603B685B6803F00303022B23D1FB69B8
:10230800DA087B68083253F82230BB61FB6903F0B6
:1023180007039B000F2202FA03F3DB43BA69134059
:10232800BB613B681A69FB6903F007039B0002FA6B
:1023380003F3BA691343BB61FB69DA087B680832A7
:10234800B96943F822107B681B68BB61FB695B00B5
:10235800032202FA03F3DB43BA691340BB613B680B
:102368005B6803F00302FB695B0002FA03F3BA69D6
:102378001343BB617B68BA691A603B685B6803F406
:102388004033002B00F0E0802F4BD3F8F4302E4A76
:1023980043F00203C2F8F4302B4BD3F8F43003F0C7
:1023A8000203FB60FB68294AFB699B08023352F869
:1023B8002330BB61FB6903F003039B000F2202FA81
:1023C80003F3DB43BA691340BB617B68204A93423D
:1023D80052D07B681F4A934231D07B681E4A934291
:1023E8002BD07B681D4A934225D07B681C4A9342B8
:1023F8001FD07B681B4A934219D07B681A4A9342C4
:1024080013D07B68194A93420DD07B68184A9342CF
:1024180007D07B68174A934201D109232DE00A238C
:102428002BE0082329E0072327E0062325E00523DE
:1024380023E0042321E003231FE002231DE00123FE
:102448001BE000BF800000580044025800040058F8
:10245800000002580004025800080258000C0258F4
:10246800001002580014025800180258001C0258A4
:1024780000200258002402580023FA6902F00302DF
:1024880092009340BA691343BB613849FB699B08C2
:102498000233BA6941F823204FF0B0431B68BB618F
:1024A8003B69DB43BA691340BB613B685B6803F473
:1024B8008013002B03D0BA693B691343BB614FF00B
:1024C800B042BB6913604FF0B0435B68BB613B69C6
:1024D800DB43BA691340BB613B685B6803F40013D4
:1024E800002B03D0BA693B691343BB614FF0B0427C
:1024F800BB6953607B695B68BB613B69DB43BA6955
:102508001340BB613B685B6803F40033002B03D0C6
:10251800BA693B691343BB617B69BA695A607B69D5
:102528001B68BB613B69DB43BA691340BB613B680D
:102538005B6803F48033002B03D0BA693B6913430B
:10254800BB617B69BA691A60FB690133FB613B684F
:102558001A68FB6922FA03F3002B7FF463AE00BF0D
:1025680000BF2437BD465DF8047B7047000400585F
:1025780080B483B000AF78600B467B8013467B70D5
:102588007B78002B03D07A887B689A6103E07B888C
:102598001A047B689A6100BF0C37BD465DF8047B5E
:1025A800704780B485B000AF78600B467B807B684D
:1025B8005B69FB607A88FB6813401A04FB68D9439F
:1025C8007B880B401A437B689A6100BF1437BD466D
:1025D8005DF8047B7047000080B584B000AF786078
:1025E800194BDB6803F00403042B0AD0164BDB6895
:1025F80003F007037A689A4201D001231FE0002301
:102608001DE0114BDB6823F007020F497B68134379
:10261800CB6002F0A9F8F86009E002F0A5F80246DC
:10262800FB68D31AB3F57A7F01D9012307E0064B7B
:102638005B6803F40053B3F5005FEED1002318463E
:102648001037BD4680BD00BF0048025880B586B02F
:1026580000AF78600023FB750023BB757B681B689F
:1026680003F00063002B3FD07B685B6EB3F5401F1F
:102678002AD0B3F5401F24D8B3F5001F18D0B3F5FE
:10268800001F1ED8002B03D0B3F5801F07D018E019
:10269800A34BDB6AA24A43F40033D36215E07B689C
:1026A80004330221184600F017FF0346FB750CE0BF
:1026B8007B6824330221184600F0C0FF0346FB75EF
:1026C80003E00123FB7500E000BFFB7D002B09D16F
:1026D800934B1B6D23F440127B685B6E9049134348
:1026E8000B6501E0FB7DBB757B681B6803F4807399
:1026F800002B3DD07B685B6D042B26D801A252F8D5
:1027080023F000BF212700082F27000841270008D1
:102718005927000859270008814BDB6A804A43F48F
:102728000033D36215E07B6804330021184600F0BB
:10273800D3FE0346FB750CE07B6824330021184662
:1027480000F07CFF0346FB7503E00123FB7500E006
:1027580000BFFB7D002B09D1714B1B6D23F00702D5
:102768007B685B6D6E4913430B6501E0FB7DBB75B0
:102778007B681B6803F40073002B42D07B689B6D59
:10278800B3F5807F2BD0B3F5807F25D8C02B28D018
:10279800C02B21D8802B16D0802B1DD8002B02D01F
:1027A800402B07D018E05E4BDB6A5D4A43F40033E8
:1027B800D36217E07B6804330021184600F08CFED2
:1027C8000346FB750EE07B6824330021184600F0B1
:1027D80035FF0346FB7505E00123FB7502E000BFEA
:1027E80000E000BFFB7D002B09D14D4B1B6D23F48E
:1027F800E0727B689B6D4A4913430B6501E0FB7DE2
:10280800BB757B681B6803F48063002B49D07B6829
:10281800D3F8A430B3F5000F30D0B3F5000F2AD8A1
:10282800B3F5C00F2CD0B3F5C00F24D8B3F5800F83
:1028380018D0B3F5800F1ED8002B03D0B3F5001FB6
:1028480007D018E0364BDB6A354A43F40033D362CD
:1028580017E07B6804330021184600F03DFE03466C
:10286800FB750EE07B6824330021184600F0E6FE75
:102878000346FB7505E00123FB7502E000BF00E09D
:1028880000BFFB7D002B0AD1254B9B6D23F4600212
:102898007B68D3F8A430224913438B6501E0FB7DA4
:1028A800BB757B681B6803F40063002B4BD07B6807
:1028B800D3F8A830B3F1806F30D0B3F1806F2AD845
:1028C800B3F1407F2ED0B3F1407F24D8B3F1007F1D
:1028D80018D0B3F1007F1ED8002B03D0B3F1807F4E
:1028E80007D018E00E4BDB6A0D4A43F40033D3627D
:1028F80019E07B6804330021184600F0EDFD03461B
:10290800FB7510E07B6824330021184600F096FE22
:102918000346FB7507E00123FB7504E000BF02E0F6
:102928000044025800BFFB7D002B0AD1994B9B6DD8
:1029380023F0E0627B68D3F8A830964913438B658F
:1029480001E0FB7DBB757B681B6803F00073002BFF
:1029580032D07B689B6C302B1CD0302B17D8202BA7
:102968000CD0202B13D8002B16D0102B0FD1894B4D
:10297800DB6A884A43F40033D3620EE07B68043391
:102988000221184600F0A8FD0346FB7505E0012367
:10299800FB7502E000BF00E000BFFB7D002B09D102
:1029A8007C4BDB6C23F030027B689B6C79491343CA
:1029B800CB6401E0FB7DBB757B681B6803F4805327
:1029C800002B47D07B68DB6DB3F5804F30D0B3F573
:1029D800804F2AD8B3F5405F2CD0B3F5405F24D898
:1029E800B3F5005F18D0B3F5005F1ED8002B03D0F5
:1029F800B3F5805F07D018E0664BDB6A654A43F49D
:102A08000033D36217E07B6804330021184600F0D6
:102A180063FD0346FB750EE07B68243300211846EE
:102A280000F00CFE0346FB7505E00123FB7502E090
:102A380000BF00E000BFFB7D002B09D1554B1B6D8B
:102A480023F4E0427B68DB6D524913430B6501E0D8
:102A5800FB7DBB757B681B6803F40053002B49D0D2
:102A68007B681B6EB3F5A02F2ED0B3F5A02F28D806
:102A7800B3F5802F2AD0B3F5802F22D8B3F5403F85
:102A880026D0B3F5403F1CD8B3F5003F10D0B3F5BE
:102A9800003F16D8002B1DD0B3F5803F11D17B68BD
:102AA80004330121184600F017FD0346FB7512E0B8
:102AB8007B6824330121184600F0C0FD0346FB75EE
:102AC80009E00123FB7506E000BF04E000BF02E057
:102AD80000BF00E000BFFB7D002B09D12D4B1B6D13
:102AE80023F4E0227B681B6E2A4913430B6501E03F
:102AF800FB7DBB757B681B6803F48043002B4DD0BE
:102B08007B68D3F8AC30B3F1A04F2ED0B3F1A04F0F
:102B180028D8B3F1804F2AD0B3F1804F22D8B3F12F
:102B2800405F26D0B3F1405F1CD8B3F1005F10D0EE
:102B3800B3F1005F16D8002B1DD0B3F1805F11D11F
:102B48007B6804330121184600F0C6FC0346FB7578
:102B580012E07B6824330121184600F06FFD03461C
:102B6800FB7509E00123FB7506E000BF04E000BF28
:102B780002E000BF00E000BFFB7D002B0CD1054B3D
:102B88009B6D23F0E0427B68D3F8AC3001491343D6
:102B98008B6503E000440258FB7DBB757B681B68AE
:102BA80003F40043002B2FD07B68DB6EB3F1005F8A
:102BB8000ED0B3F1005F14D8002B15D0B3F1805FAD
:102BC8000FD1AF4BDB6AAE4A43F40033D3620CE05B
:102BD8007B6804330121184600F07EFC0346FB7530
:102BE80003E00123FB7500E000BFFB7D002B09D14A
:102BF800A34B1B6D23F040527B68DB6EA049134347
:102C08000B6501E0FB7DBB757B681B6803F0807377
:102C1800002B32D07B685B6C032B1BD801A252F8C7
:102C280023F000BF632C00083D2C00084B2C000843
:102C3800632C0008924BDB6A914A43F40033D36259
:102C48000CE07B6804330221184600F045FC03467B
:102C5800FB7503E00123FB7500E000BFFB7D002B43
:102C680009D1874BDB6C23F003027B685B6C8449DA
:102C78001343CB6401E0FB7DBB757B681B6803F4E1
:102C88008003002B00F086807E4B1B687D4A43F44E
:102C98008073136001F068FD386109E001F064FD9C
:102CA80002463B69D31A642B02D90323FB7505E05E
:102CB800744B1B6803F48073002BEFD0FB7D002B53
:102CC80066D16F4B1A6F7B68D3F8B030534003F46A
:102CD8004073002B13D06A4B1B6F23F44073FB60C7
:102CE800674B1B6F664A43F480331367644B1B6F53
:102CF800634A23F480331367614AFB6813677B6870
:102D0800D3F8B030B3F5807F15D101F02DFD3861CF
:102D18000BE001F029FD02463B69D31A41F28832E3
:102D2800934202D90323FB7505E0554B1B6F03F053
:102D38000203002BEDD0FB7D002B26D17B68D3F856
:102D4800B03003F44073B3F5407F0DD14C4B1B6991
:102D580023F47C527B68D3F8B03019094A4B0B40F6
:102D6800474913430B6105E0454B1B69444A23F46B
:102D78007C531361424B1A6F7B68D3F8B030C3F3AE
:102D88000B033F4913430B6704E0FB7DBB7501E070
:102D9800FB7DBB757B681B6803F00103002B00F00B
:102DA80085807B689B6F282B66D801A252F823F098
:102DB800952E0008812E0008812E0008812E00081B
:102DC800812E0008812E0008812E0008812E00081F
:102DD8005D2E0008812E0008812E0008812E000833
:102DE800812E0008812E0008812E0008812E0008FF
:102DF8006F2E0008812E0008812E0008812E000801
:102E0800812E0008812E0008812E0008812E0008DE
:102E1800952E0008812E0008812E0008812E0008BA
:102E2800812E0008812E0008812E0008812E0008BE
:102E3800952E0008812E0008812E0008812E00089A
:102E4800812E0008812E0008812E0008812E00089E
:102E5800952E00087B6804330121184600F03CFBDE
:102E68000346FB7513E07B6824330121184600F004
:102E7800E5FB0346FB750AE00123FB7507E000BF8D
:102E88000044025800480258CFFFFF0000BFFB7DF6
:102E9800002B09D1964B5B6D23F038027B689B6F42
:102EA800934913434B6501E0FB7DBB757B681B6849
:102EB80003F00203002B38D07B685B6F052B21D809
:102EC80001A252F823F000BF132F0008E92E0008D2
:102ED800FB2E0008132F0008132F0008132F0008DB
:102EE8007B6804330121184600F0F6FA0346FB75A7
:102EF8000CE07B6824330121184600F09FFB034651
:102F0800FB7503E00123FB7500E000BFFB7D002B90
:102F180009D1774B5B6D23F007027B685B6F7449BF
:102F280013434B6501E0FB7DBB757B681B6803F0B1
:102F38000403002B3AD07B68D3F89030052B21D8B6
:102F480001A252F823F000BF932F0008692F000850
:102F58007B2F0008932F0008932F0008932F000859
:102F68007B6804330121184600F0B6FA0346FB7566
:102F78000CE07B6824330121184600F05FFB034610
:102F8800FB7503E00123FB7500E000BFFB7D002B10
:102F98000AD1574B9B6D23F007027B68D3F890301A
:102FA800534913438B6501E0FB7DBB757B681B6848
:102FB80003F02003002B4BD07B68D3F88C30B3F19F
:102FC800A04F2ED0B3F1A04F28D8B3F1804F2AD00C
:102FD800B3F1804F22D8B3F1405F26D0B3F1405F00
:102FE8001CD8B3F1005F10D0B3F1005F16D8002BE6
:102FF8001DD0B3F1805F11D17B68043300211846DE
:1030080000F06AFA0346FB7512E07B68243302215C
:10301800184600F013FB0346FB7509E00123FB7516
:1030280006E000BF04E000BF02E000BF00E000BF10
:10303800FB7D002B0AD12E4B5B6D23F0E0427B68B1
:10304800D3F88C302A4913434B6501E0FB7DBB75EF
:103058007B681B6803F04003002B4DD07B68D3F8D6
:103068009830B3F5A05F2ED0B3F5A05F28D8B3F59C
:10307800805F2AD0B3F5805F22D8B3F5406F26D0A1
:10308800B3F5406F1CD8B3F5006F10D0B3F5006FDF
:1030980016D8002B1DD0B3F5806F11D17B6804338F
:1030A8000021184600F018FA0346FB7512E07B6809
:1030B80024330221184600F0C1FA0346FB7509E0E3
:1030C8000123FB7506E000BF04E000BF02E000BF7B
:1030D80000E000BFFB7D002B0CD1054B9B6D23F45A
:1030E800E0527B68D3F89830014913438B6503E0BD
:1030F80000440258FB7DBB757B681B6803F08003A6
:10310800002B4BD07B68D3F89C30B3F5204F2ED0E2
:10311800B3F5204F28D8B3F5004F2AD0B3F5004FA8
:1031280022D8B3F5C04F26D0B3F5C04F1CD8B3F59D
:10313800804F10D0B3F5804F16D8002B1DD0B3F5B3
:10314800005F11D17B6804330021184600F0C4F9F0
:103158000346FB7512E07B6824330221184600F011
:103168006DFA0346FB7509E00123FB7506E000BF15
:1031780004E000BF02E000BF00E000BFFB7D002BC1
:103188000AD19D4B9B6D23F460427B68D3F89C3039
:10319800994913438B6501E0FB7DBB757B681B6810
:1031A80003F00803002B1AD07B68D3F88030B3F5FE
:1031B800805F0AD17B6824330221184600F03EFA6A
:1031C8000346002B01D00123BB758B4B5B6D23F4A9
:1031D80040527B68D3F88030874913434B657B683E
:1031E8001B6803F01003002B1AD07B68D3F89430C7
:1031F800B3F5807F0AD17B6824330221184600F09A
:103208001DFA0346002B01D00123BB757A4B9B6D39
:1032180023F440727B68D3F89430774913438B6565
:103228007B681B6803F40023002B34D07B68D3F839
:10323800A030B3F5003F1DD0B3F5003F17D8002BE1
:1032480003D0B3F5803F09D011E07B680433002137
:10325800184600F041F90346FB750CE07B682433FF
:103268000221184600F0EAF90346FB7503E0012342
:10327800FB7500E000BFFB7D002B0AD15E4B9B6D08
:1032880023F440327B68D3F8A0305B4913438B6545
:1032980001E0FB7DBB757B681B6803F48023002B72
:1032A80033D07B68D3F88430B3F5401F1CD0B3F516
:1032B800401F16D8B3F5801F03D0B3F5001F07D001
:1032C8000FE04D4BDB6A4C4A43F40033D3620CE009
:1032D8007B6824330121184600F0B0F90346FB75DA
:1032E80003E00123FB7500E000BFFB7D002B0AD142
:1032F800414B5B6D23F440127B68D3F884303E4920
:1033080013434B6501E0FB7DBB757B681B6803F4C9
:103318008033002B29D07B68DB6C002B03D0B3F5FE
:10332800803F07D00FE0344BDB6A334A43F4003365
:10333800D3620BE07B6804330221184600F0CCF816
:103348000346FB7502E00123FB7500BFFB7D002BE4
:1033580009D1294BDB6C23F480327B68DB6C26496E
:103368001343CB6401E0FB7DBB757B681B6803F0EE
:103378000053002B0AD07B6824330221184600F042
:103388005DF90346002B01D00123BB757B681B68E0
:1033980003F40033002B33D07B68DB6FB3F5407F39
:1033A80017D0B3F5407F11D8B3F5007F13D0B3F52C
:1033B800007F0BD8002B10D0B3F5807F06D10E4BC1
:1033C800DB6A0D4A43F40033D36207E00123FB753F
:1033D80004E000BF02E000BF00E000BFFB7D002B5F
:1033E8000CD1054B5B6D23F440727B68DB6F02499F
:1033F80013434B6504E000BF00440258FB7DBB75D6
:103408007B681B6803F48013002B08D0314B1B6DBD
:1034180023F000427B681B6F2E4913430B657B68C2
:103428001B6803F08053002B09D02A4B1B6923F437
:1034380080427B68D3F8B430264913430B617B681C
:103448001B6803F40013002B08D0224B1B6D23F0DC
:1034580080727B689B6E1F4913430B657B681B68F2
:1034680003F08043002B0DD01A4B1B69194A23F433
:1034780000431361174B1A697B68D3F8B8301549B4
:1034880013430B617B681B68002B08DA114BDB6C5C
:1034980023F040527B681B6D0E491343CB647B6855
:1034A8001B6803F40003002B09D00A4B5B6D23F45F
:1034B80040027B68D3F88830064913434B65BB7DCF
:1034C800002B01D1002300E0012318461837BD4620
:1034D80080BD00BF0044025880B584B000AF78605A
:1034E80039600023FB73534B9B6A03F00303032BE0
:1034F80001D1012399E04F4B1B684E4A23F08063AA
:10350800136001F031F9B86008E001F02DF90246C6
:10351800BB68D31A022B01D9032386E0454B1B68ED
:1035280003F00063002BF0D1424B9B6A23F47C32FA
:103538007B681B681B033F4913438B627B685B688E
:10354800013BC3F308027B689B68013B5B029BB2AB
:103558001A437B68DB68013B1B0403F4FE031A4330
:103568007B681B69013B1B0603F0FE43314913438B
:103578008B63304BDB6A23F0C0027B685B692D49A3
:103588001343CB622B4BDB6A23F020027B689B69D9
:1035980028491343CB62274BDB6A264A23F01003E2
:1035A800D362244BDA6B244B13407A68D269D20079
:1035B80020491343CB631F4BDB6A1E4A43F01003B9
:1035C800D3623B68002B06D11A4BDB6A194A43F4D5
:1035D8000023D3620FE03B68012B06D1154BDB6A51
:1035E800144A43F48013D36205E0124BDB6A114A94
:1035F80043F40013D3620F4B1B680E4A43F08063F9
:10360800136001F0B1F8B86008E001F0ADF80246C7
:10361800BB68D31A022B01D9032306E0054B1B68AC
:1036280003F00063002BF0D0FB7B18461037BD4633
:1036380080BD00BF004402580700FFFF80B584B07A
:1036480000AF786039600023FB73534B9B6A03F02B
:103658000303032B01D1012399E04F4B1B684E4A0A
:1036680023F08053136001F07FF8B86008E001F0A0
:103678007BF80246BB68D31A022B01D9032386E0E4
:10368800454B1B6803F00053002BF0D1424B9B6A5B
:1036980023F07C727B681B681B053F4913438B62D0
:1036A8007B685B68013BC3F308027B689B68013B4E
:1036B8005B029BB21A437B68DB68013B1B0403F483
:1036C800FE031A437B681B69013B1B0603F0FE439C
:1036D800314913430B64304BDB6A23F440627B6847
:1036E8005B692D491343CB622B4BDB6A23F40072D1
:1036F8007B689B6928491343CB62274BDB6A264AC0
:1037080023F48073D362244B5A6C244B13407A6899
:10371800D269D200204913434B641F4BDB6A1E4A0F
:1037280043F48073D3623B68002B06D11A4BDB6AE3
:10373800194A43F48003D3620FE03B68012B06D19A
:10374800154BDB6A144A43F40003D36205E0124BBD
:10375800DB6A114A43F08073D3620F4B1B680E4A31
:1037680043F08053136000F0FFFFB86008E000F0FA
:10377800FBFF0246BB68D31A022B01D9032306E0DC
:10378800054B1B6803F00053002BF0D0FB7B184659
:103798001037BD4680BD00BF004402580700FFFF38
:1037A80080B58CB000AF78607B68002B02D1012314
:1037B80000F01DBC7B681B6803F00103002B00F0C0
:1037C8008780994B1B6903F03803FB62964B9B6A11
:1037D800BB62FB6A102B07D0FB6A182B10D1BB6A9F
:1037E80003F00303022B0BD18F4B1B6803F4003348
:1037F800002B6CD07B685B68002B68D10123F6E353
:103808007B685B68B3F5803F06D1874B1B68864AA7
:1038180043F4803313602EE07B685B68002B0CD187
:10382800814B1B68804A23F4803313607E4B1B68EE
:103838007D4A23F4802313601DE07B685B68B3F541
:10384800A02F0CD1784B1B68774A43F48023136070
:10385800754B1B68744A43F4803313600BE0724B5A
:103868001B68714A23F4803313606F4B1B686E4AE0
:1038780023F4802313607B685B68002B13D000F06F
:1038880073FF786208E000F06FFF02467B6AD31A84
:10389800642B01D90323AAE3634B1B6803F40033A9
:1038A800002BF0D014E000F05FFF786208E000F031
:1038B8005BFF02467B6AD31A642B01D9032396E384
:1038C800594B1B6803F40033002BF0D100E000BF14
:1038D8007B681B6803F00203002B00F0CB80524B7F
:1038E8001B6903F038033B624F4B9B6AFB613B6AE1
:1038F800002B07D03B6A182B56D1FB6903F0030352
:10390800002B51D1484B1B6803F00403002B05D052
:103918007B68DB68002B01D1012368E3424B1B68FD
:1039280023F019027B68DB683F4913430B6000F002
:103938001BFF786208E000F017FF02467B6AD31A83
:10394800022B01D9032352E3374B1B6803F004030E
:10395800002BF0D000F038FF034641F203029342F7
:1039680017D87B681B69402B08D12F4B5B6823F461
:103978007C332D4A43F4003353607BE02A4B5B6869
:1039880023F47C327B681B691B03274913434B6074
:1039980070E0254B5B6823F0FE427B681B691B06C1
:1039A800214913434B6065E07B68DB68002B48D0F6
:1039B8001D4B1B6823F019027B68DB681A49134307
:1039C8000B6000F0D1FE786208E000F0CDFE024600
:1039D8007B6AD31A022B01D9032308E3124B1B6815
:1039E80003F00403002BF0D000F0EEFE034641F292
:1039F800030293421AD87B681B69402B08D10A4BF3
:103A08005B6823F47C33084A43F40033536031E0A5
:103A1800054B5B6823F47C327B681B691B030249F6
:103A280013434B6026E000BF004402589A4B5B6882
:103A380023F0FE427B681B691B06974913434B60C2
:103A480018E0954B1B68944A23F00103136000F0BB
:103A58008BFE786208E000F087FE02467B6AD31A84
:103A6800022B01D90323C2E28B4B1B6803F004032A
:103A7800002BF0D17B681B6803F01003002B00F0CB
:103A8800A980854B1B6903F03803BB61824B9B6A95
:103A98007B61BB69082B07D0BB69182B3AD17B69BE
:103AA80003F00303012B35D17B4B1B6803F48073B0
:103AB800002B05D07B68DB69802B01D0012396E2BF
:103AC80000F082FE034641F20302934217D87B6856
:103AD8001B6A202B08D1704B5B6823F0F8436E4AB1
:103AE80043F08043536075E06B4B5B6823F0F8420A
:103AF8007B681B6A9B06684913434B606AE0664B08
:103B0800DB6823F07C527B681B6A1B0662491343FF
:103B1800CB605FE07B68DB69002B42D05E4B1B68A3
:103B28005D4A43F08003136000F01EFE786208E0EF
:103B380000F01AFE02467B6AD31A022B01D903232E
:103B480055E2554B1B6803F48073002BF0D000F04E
:103B58003BFE034641F20302934217D87B681B6A77
:103B6800202B08D14C4B5B6823F0F8434A4A43F0BA
:103B7800804353602EE0484B5B6823F0F8427B6833
:103B88001B6A9B06444913434B6023E0424BDB68A6
:103B980023F07C527B681B6A1B063F491343CB60AA
:103BA80018E03D4B1B683C4A23F08003136000F08B
:103BB800DBFD786208E000F0D7FD02467B6AD31A85
:103BC800022B01D9032312E2334B1B6803F48073E1
:103BD800002BF0D17B681B6803F00803002B36D05C
:103BE8007B685B69002B19D02B4B5B6F2A4A43F02B
:103BF8000103536700F0B8FD786208E000F0B4FDF7
:103C080002467B6AD31A022B01D90323EFE1224B28
:103C18005B6F03F00203002BF0D018E01E4B5B6FC4
:103C28001D4A23F00103536700F09EFD786208E007
:103C380000F09AFD02467B6AD31A022B01D90323AE
:103C4800D5E1154B5B6F03F00203002BF0D17B68C5
:103C58001B6803F02003002B39D07B689B69002B7D
:103C68001CD00D4B1B680C4A43F48053136000F0C2
:103C78007BFD786208E000F077FD02467B6AD31A84
:103C8800022B01D90323B2E1034B1B6803F4005351
:103C9800002BF0D01BE000BF004402589B4B1B6870
:103CA8009A4A23F48053136000F05EFD786208E0BE
:103CB80000F05AFD02467B6AD31A022B01D903236E
:103CC80095E1924B1B6803F40053002BF0D17B68FD
:103CD8001B6803F00403002B00F081808C4B1B68E9
:103CE8008B4A43F48073136000F03EFD786208E06D
:103CF80000F03AFD02467B6AD31A642B01D90323EC
:103D080075E1834B1B6803F48073002BF0D07B684C
:103D18009B68012B06D17D4B1B6F7C4A43F0010346
:103D280013672DE07B689B68002B0CD1774B1B6FCA
:103D3800764A23F001031367744B1B6F734A23F011
:103D4800040313671CE07B689B68052B0CD16F4B41
:103D58001B6F6E4A43F0040313676C4B1B6F6B4A6F
:103D680043F0010313670BE0684B1B6F674A23F0AE
:103D780001031367654B1B6F644A23F00403136741
:103D88007B689B68002B15D000F0EEFC78620AE097
:103D980000F0EAFC02467B6AD31A41F28832934269
:103DA80001D9032323E1594B1B6F03F00203002BB6
:103DB800EED014E000F0D8FC78620AE000F0D4FC01
:103DC80002467B6AD31A41F28832934201D903230F
:103DD8000DE14E4B1B6F03F00203002BEED17B6805
:103DE8005B6A002B00F00281484B1B6903F0380323
:103DF800182B00F0BD807B685B6A022B40F09E8028
:103E0800424B1B68414A23F08073136000F0ACFCFE
:103E1800786208E000F0A8FC02467B6AD31A022BFD
:103E280001D90323E3E0394B1B6803F00073002B2F
:103E3800F0D1364B9A6A374B13407A68916A7A68A0
:103E4800D26A12010A43314913438B627B681B6BA8
:103E5800013BC3F308027B685B6B013B5B029BB2CF
:103E68001A437B689B6B013B1B0403F4FE031A4354
:103E78007B68DB6B013B1B0603F0FE4323491343BE
:103E88000B63224BDB6A214A23F00103D3621F4BE9
:103E98005A6B214B13407A68926CD2001B4913432A
:103EA8004B631A4BDB6A23F00C027B681B6C1749C7
:103EB8001343CB62154BDB6A23F002027B685B6C11
:103EC80012491343CB62114BDB6A104A43F4803327
:103ED800D3620E4BDB6A0D4A43F40033D3620B4BBB
:103EE800DB6A0A4A43F48023D362084BDB6A074A39
:103EF80043F00103D362054B1B68044A43F0807307
:103F0800136000F031FC786211E000BF00440258F1
:103F1800004802580CFCFFFF0700FFFF00F024FCDC
:103F280002467B6AD31A022B01D903235FE0324B86
:103F38001B6803F00073002BF0D057E02E4B1B6872
:103F48002D4A23F08073136000F00EFC786208E0BD
:103F580000F00AFC02467B6AD31A022B01D903231C
:103F680045E0254B1B6803F00073002BF0D13DE0C2
:103F7800214B9B6A3B61204B1B6BFB607B685B6A38
:103F8800012B31D03B6903F003027B689B6A9A429C
:103F98002AD13B691B0903F03F027B68DB6A9A421E
:103FA80022D1FB68C3F308027B681B6B013B9A4272
:103FB8001AD1FB685B0A03F07F027B685B6B013BED
:103FC8009A4211D1FB681B0C03F07F027B689B6B44
:103FD800013B9A4208D1FB681B0E03F07F027B6805
:103FE800DB6B013B9A4201D0012300E00023184615
:103FF8003037BD4680BD00BF0044025880B586B04A
:1040080000AF786039607B68002B01D101239CE107
:104018008A4B1B6803F00F033A689A4210D9874B02
:104028001B6823F00F0285493B6813430B60834BE1
:104038001B6803F00F033A689A4201D0012384E118
:104048007B681B6803F00403002B10D07B681A6997
:104058007B4B9B6903F070039A4208D9784B9B69A4
:1040680023F070027B681B69754913438B617B6879
:104078001B6803F00803002B10D07B685A69704B4B
:10408800DB6903F070039A4208D96D4BDB6923F0B2
:1040980070027B685B696A491343CB617B681B6864
:1040A80003F01003002B10D07B689A69644BDB691E
:1040B80003F4E0639A4208D9614BDB6923F4E062B8
:1040C8007B689B695E491343CB617B681B6803F07F
:1040D8002003002B10D07B68DA69594B1B6A03F068
:1040E80070039A4208D9564B1B6A23F070027B680A
:1040F800DB69534913430B627B681B6803F00203B7
:10410800002B10D07B68DA684D4B9B6903F00F03D6
:104118009A4208D94A4B9B6923F00F027B68DB68F7
:10412800474913438B617B681B6803F00103002B2D
:1041380055D0434B9B6923F470627B689B68404968
:1041480013438B617B685B68022B07D13C4B1B6870
:1041580003F40033002B21D10123F6E07B685B6870
:10416800032B07D1364B1B6803F00073002B15D1C6
:104178000123EAE07B685B68012B07D1304B1B68A1
:1041880003F48073002B09D10123DEE02C4B1B685C
:1041980003F00403002B01D10123D6E0284B1B694F
:1041A80023F007027B685B68254913430B6100F025
:1041B800DBFA78610AE000F0D7FA02467B69D31A85
:1041C80041F28832934201D90323BEE01C4B1B699C
:1041D80003F038027B685B68DB009A42EBD17B68AE
:1041E8001B6803F00203002B10D07B68DA68144BBD
:1041F8009B6903F00F039A4208D2114B9B6923F085
:104208000F027B68DB680E4913438B610B4B1B68FD
:1042180003F00F033A689A4214D2084B1B6823F044
:104228000F0206493B6813430B60044B1B6803F0FD
:104238000F033A689A4205D0012386E00020005215
:10424800004402587B681B6803F00403002B10D05D
:104258007B681A693F4B9B6903F070039A4208D246
:104268003C4B9B6923F070027B681B6939491343F7
:104278008B617B681B6803F00803002B10D07B68F8
:104288005A69344BDB6903F070039A4208D2314B08
:10429800DB6923F070027B685B692E491343CB61AD
:1042A8007B681B6803F01003002B10D07B689A69A9
:1042B800284BDB6903F4E0639A4208D2254BDB699B
:1042C80023F4E0627B689B6922491343CB617B68D6
:1042D8001B6803F02003002B10D07B68DA691D4BA4
:1042E8001B6A03F070039A4208D21A4B1B6A23F028
:1042F80070027B68DB69174913430B6200F034F8DE
:104308000246144B9B691B0A03F00F031249CB5C4E
:1043180003F01F0322FA03F33B610E4B9B6903F082
:104328000F030D4AD35C03F01F033A6922FA03F323
:104338000A4A13600A4A3B6913600A4B1B6818460D
:1043480000F0C8F90346FB73FB7B18461837BD46D7
:1043580080BD00BF00440258E84A00080400002459
:10436800000000240800002480B489B000AFB34BDB
:104378001B6903F03803182B00F2558101A252F88B
:1043880023F000BFF14300082F4600082F4600081D
:104398002F4600082F4600082F4600082F46000821
:1043A8002F460008174400082F4600082F4600082B
:1043B8002F4600082F4600082F4600082F46000801
:1043C8002F4600081D4400082F4600082F46000805
:1043D8002F4600082F4600082F4600082F460008E1
:1043E8002F46000823440008944B1B6803F0200361
:1043F800002B09D0914B1B68DB0803F00303904A9C
:1044080022FA03F3BB6111E18D4BBB610EE18D4BC9
:10441800BB610BE18C4BBB6108E1884B9B6A03F0E5
:1044280003037B61854B9B6A1B0903F03F033B61D8
:10443800824BDB6A03F00103FB60804B5B6BDB089C
:10444800C3F30C03FA6802FB03F307EE903AF8EEA5
:10445800677AC7ED027A3B69002B00F0E1807B693F
:10446800022B00F083807B69022B00F2A1807B691C
:10447800002B03D07B69012B56D099E06F4B1B684A
:1044880003F02003002B2DD06C4B1B68DB0803F0D6
:1044980003036B4A22FA03F37B607B6807EE903ACA
:1044A800F8EE676A3B6907EE903AF8EE677A86EEAF
:1044B800A77A624B1B6BC3F3080307EE903AF8EE3A
:1044C800676A97ED026ADFED615AC6EE257A76EEE5
:1044D800A77AF7EE006A77EEA67A67EE277AC7ED35
:1044E800077A87E03B6907EE903AF8EE677ADFEDE6
:1044F800586A86EEA77A514B1B6BC3F3080307EE85
:10450800903AF8EE676A97ED026ADFED505AC6EE08
:10451800257A76EEA77AF7EE006A77EEA67A67EE46
:10452800277AC7ED077A65E03B6907EE903AF8EE1F
:10453800677ADFED486A86EEA77A404B1B6BC3F3B8
:10454800080307EE903AF8EE676A97ED026ADFED26
:104558003F5AC6EE257A76EEA77AF7EE006A77EE2E
:10456800A67A67EE277AC7ED077A43E03B6907EE3C
:10457800903AF8EE677ADFED386A86EEA77A2F4B25
:104588001B6BC3F3080307EE903AF8EE676A97EDE2
:10459800026ADFED2E5AC6EE257A76EEA77AF7EE96
:1045A800006A77EEA67A67EE277AC7ED077A21E0E8
:1045B8003B6907EE903AF8EE677ADFED266A86EEF9
:1045C800A77A1E4B1B6BC3F3080307EE903AF8EE6D
:1045D800676A97ED026ADFED1D5AC6EE257A76EE18
:1045E800A77AF7EE006A77EEA67A67EE277AC7ED24
:1045F800077A00BF114B1B6B5B0A03F07F03013383
:104608003B603B6807EE903AB8EE677AD7ED076AE9
:10461800C6EE877AFCEEE77A17EE903ABB6105E0C2
:104628000023BB6102E0074BBB6100BFBB691846B2
:104638002437BD465DF8047B704700BF004402582C
:104648000090D00300093D0040787D01000000463D
:104658000024744C0024744A20BCBE4B80B582B040
:1046680000AF0320FCF73AFCFFF77EFE0246154B2D
:104678009B691B0A03F00F031349CB5C03F01F036C
:1046880022FA03F37B600F4B9B6903F00F030E4A7A
:10469800D35C03F01F037A6822FA03F30B4A136012
:1046A8000B4A7B6813600F2000F014F80346002BB8
:1046B80001D0012302E0FCF795F9002318460837DA
:1046C800BD4680BD00440258E84A000804000024A2
:1046D8000000002480B582B000AF7860154B1B78CD
:1046E800002B01D1012321E0134B1A68114B1B78D1
:1046F80019464FF47A73B3FBF1F3B2FBF3F31846A0
:10470800FCF71FFC0346002B01D001230EE07B6859
:104718000F2B0AD8002279684FF0FF30FCF7E9FB2D
:10472800064A7B681360002300E001231846083717
:10473800BD4680BD0C0000240000002408000024B1
:1047480080B400AF064B1B781A46064B1B6813440F
:10475800044A136000BFBD465DF8047B704700BF84
:104768000C000024F40A002480B400AF034B1B683B
:104778001846BD465DF8047B704700BFF40A002464
:1047880080B584B000AF7860FFF7EEFFB8607B6853
:10479800FB60FB68B3F1FF3F05D00A4B1B781A4654
:1047A800FB681344FB6000BFFFF7DEFF0246BB68EF
:1047B800D31AFA689A42F7D800BF00BF1037BD462F
:1047C80080BD00BF0C00002480B400AF034B1B6801
:1047D8001B0C1846BD465DF8047B70470010005C52
:1047E800014B1868704700BF1000002470B50D4DCC
:1047F8000D4C641BA4100026A64209D10B4D0C4C8D
:1048080000F03CF9641BA4100026A64205D170BD37
:1048180055F8043B98470136EEE755F8043B9847AE
:104828000136F2E7084B0008084B0008084B00085F
:104838000C4B0008024B0146186800F08DB800BF09
:1048480010000024024B0146186800F019B800BF98
:10485800100000240A44914200F1FF3300D1704750
:1048680010B511F8014B03F8014F9142F9D110BD71
:1048780002440346934200D1704703F8011BF9E74D
:1048880037B5002944D051F8043C0190002BA1F120
:104898000404B8BFE41800F0E3F81E4A019813684E
:1048A80033B96360146003B0BDE8304000F0DEB88F
:1048B800A34208D9256861198B4201BF19685B6852
:1048C80049192160EDE71A465B680BB1A342FAD992
:1048D80011685518A5420BD1246821445418A342E5
:1048E8001160E0D11C685B68536021441160DAE70D
:1048F80002D90C230360D6E7256861198B4204BFEF
:1049080019685B68636004BF491921605460CAE78D
:1049180003B030BDF80A002470B50E4E0C4631685D
:10492800054611B900F08CF830602146284600F0A1
:1049380087F8431C0AD0C41C24F00304A04207D003
:10494800211A284600F07CF8013001D14FF0FF34DD
:10495800204670BDFC0A00242DE9F041CD1C25F04D
:10496800030508350C2D38BF0C25002D074601DB43
:10497800A94205D90C233B6000263046BDE8F081EA
:104988002E4E00F06DF833681C4634BB2946384675
:10499800FFF7C2FF431C04464DD134682646002E5B
:1049A80040D123683146384604EB030800F048F844
:1049B80080453AD1216803356D1A25F0030508357D
:1049C8000C2D38BF0C2529463846FFF7A5FF0130C6
:1049D8002BD023682B4423600EE02268521B1ED480
:1049E8000B2A16D96119A342256018BF596063685C
:1049F80008BF316062514B60384604F10B0600F085
:104A080035F826F00706231DF21AB6D09B1BA350D3
:104A1800B3E76268A3420CBF32605A60ECE72346F2
:104A28006468B2E734467668B9E70C233B603846D9
:104A380000F01CF8A1E72560DEE700BFF80A0024B3
:104A480038B5064D0023044608462B60FCF78EF85F
:104A5800431C02D12B6803B1236038BD000B00242E
:104A6800014800F009B800BF040B0024014800F019
:104A780004B800BF040B002470477047F8B500BFA6
:104A8800F8BC08BC9E467047F8B500BFF8BC08BC27
:044A98009E4670477F
:104A9C00000000000000000000000000000000000A
:104AAC0000000000010000000200000003000000F4
:104ABC0004000000000000000500000000000000E1
:104ACC0000000000000000000600000000000000D4
:104ADC0000000000000000000700000000000000C3
:104AEC000102030401020304060708090001020382
:0C4AFC0004050607080C101418203040B8
:044B0800BD020008E2
:044B0C009902000802
:104B10000090D0030090D0031000000001000000BE
:104B2000140000240000000000000000000000004D
:104B30000000000000000000000000000000000075
:104B40000000000000000000000000000000000065
:104B50000000000000000000000000000000000055
:104B60000000000000000000000000000000000045
:104B70000000000000000000000000000000000035
:044B80000000000031
:0400000508000CF1F2
:00000001FF
