:020000040800F2
:1000000000000824A91A0008B5180008BD18000847
:10001000D1180008D7180008DD18000800000000FB
:10002000000000000000000000000000E3180008CD
:10003000F118000800000000FF1800080D19000862
:10004000F91A0008F91A0008F91A0008F91A000844
:10005000F91A0008F91A0008F91A0008F91A000834
:10006000F91A0008F91A0008F91A0008F91A000824
:10007000F91A0008F91A0008F91A0008F91A000814
:10008000F91A0008F91A0008F91A000819190008E5
:10009000F91A0008F91A0008F91A0008F91A0008F4
:1000A000F91A0008F91A0008F91A0008F91A0008E4
:1000B000F91A0008F91A0008F91A0008F91A0008D4
:1000C000F91A0008F91A0008F91A0008F91A0008C4
:1000D000F91A0008F91A0008F91A0008F91A0008B4
:1000E000F91A0008F91A000800000000F91A0008BF
:1000F000F91A0008F91A0008F91A0008F91A000894
:10010000F91A0008F91A0008F91A0008F91A000883
:10011000F91A0008F91A0008F91A0008F91A000873
:10012000F91A0008F91A0008F91A0008F91A000863
:10013000F91A0008F91A0008F91A0008F91A000853
:1001400000000000000000000000000000000000AF
:10015000F91A0008F91A0008F91A0008F91A000833
:10016000F91A0008F91A0008F91A0008F91A000823
:10017000F91A0008F91A0008F91A0008000000002E
:10018000F91A0008F91A0008F91A0008F91A000803
:10019000F91A0008F91A0008F91A0008F91A0008F3
:1001A000F91A0008F91A0008F91A0008F91A0008E3
:1001B000F91A0008F91A0008F91A0008F91A0008D3
:1001C000F91A0008F91A0008F91A0008F91A0008C3
:1001D000F91A0008F91A0008F91A0008F91A0008B3
:1001E000F91A0008F91A0008F91A0008F91A0008A3
:1001F000F91A0008F91A0008F91A0008F91A000893
:10020000F91A0008F91A0008F91A0008F91A000882
:10021000F91A0008F91A0008F91A0008F91A000872
:10022000F91A0008F91A0008F91A0008000000007D
:10023000F91A0008F91A000800000000F91A00086D
:10024000F91A0008F91A0008F91A0008F91A000842
:10025000F91A0008F91A0008F91A0008F91A000832
:10026000F91A0008F91A0008F91A0008F91A000822
:10027000F91A0008F91A0008F91A0008000000002D
:10028000F91A0008F91A0008F91A0008000000001D
:0802900000000000F91A00084B
:1002980010B5054C237833B9044B13B10448AFF3B8
:1002A80000800123237010BD90000024000000008E
:1002B800085E000808B5034B1BB103490348AFF3B8
:1002C800008008BD0000000094000024085E0008BB
:1002D80081F0004102E000BF83F0004330B54FEAEF
:1002E80041044FEA430594EA050F08BF90EA020F5C
:1002F8001FBF54EA000C55EA020C7FEA645C7FEAEF
:10030800655C00F0E2804FEA5454D4EB5555B8BF11
:100318006D420CDD2C4480EA020281EA030382EA82
:10032800000083EA010180EA020281EA0303362D14
:1003380088BF30BD11F0004F4FEA01314FF4801CE7
:100348004CEA113102D0404261EB410113F0004FF9
:100358004FEA03334CEA133302D0524263EB4303B0
:1003680094EA050F00F0A780A4F10104D5F1200E4E
:100378000DDB02FA0EFC22FA05F2801841F10001A9
:1003880003FA0EF2801843FA05F359410EE0A5F17D
:1003980020050EF1200E012A03FA0EFC28BF4CF0AE
:1003A800020C43FA05F3C01851EBE37101F0004564
:1003B80007D54FF0000EDCF1000C7EEB00006EEB71
:1003C8000101B1F5801F1BD3B1F5001F0CD34908FB
:1003D8005FEA30004FEA3C0C04F101044FEA445252
:1003E80012F5800F80F09A80BCF1004F08BF5FEAD9
:1003F800500C50F1000041EB045141EA050130BDB9
:100408005FEA4C0C404141EB0101013C28BFB1F5CA
:10041800801FE9D291F0000F04BF01460020B1FA15
:1004280081F308BF2033A3F10B03B3F120020CDAE8
:100438000C3208DD02F1140CC2F10C0201FA0CF0C6
:1004480021FA02F10CE002F11402D8BFC2F1200C2B
:1004580001FA02F120FA0CFCDCBF41EA0C019040E1
:10046800E41AA2BF01EB0451294330BD6FEA04042A
:100478001F3C1CDA0C340EDC04F11404C4F1200215
:1004880020FA04F001FA02F340EA030021FA04F327
:1004980045EA030130BDC4F10C04C4F1200220FA7E
:1004A80002F001FA04F340EA0300294630BD21FABC
:1004B80004F0294630BD94F0000F83F4801306BF82
:1004C80081F480110134013D4EE77FEA645C18BF76
:1004D8007FEA655C29D094EA050F08BF90EA020F0D
:1004E80005D054EA000C04BF1946104630BD91EA05
:1004F800030F1EBF0021002030BD5FEA545C05D108
:100508004000494128BF41F0004130BD14F5800446
:100518003CBF01F5801130BD01F0004545F0FE41BA
:1005280041F470014FF0000030BD7FEA645C1ABFEF
:10053800194610467FEA655C1CBF0B46024650EA26
:10054800013406BF52EA033591EA030F41F4002152
:1005580030BD00BF90F0000F04BF0021704730B5D8
:100568004FF4806404F132044FF000054FF00001AD
:1005780050E700BF90F0000F04BF0021704730B56E
:100588004FF4806404F1320410F0004548BF404243
:100598004FF000013EE700BF42004FEAE2014FEA98
:1005A80031014FEA02701FBF12F07F4393F07F4F73
:1005B80081F06051704732F07F4208BF704793F076
:1005C8007F4F04BF41F40021704730B54FF4607489
:1005D80001F0004521F000411CE700BF50EA01028C
:1005E80008BF704730B54FF000050AE050EA010235
:1005F80008BF704730B511F0004502D5404261EBA5
:1006080041014FF4806404F132045FEA915C3FF4E5
:10061800D8AE4FF003025FEADC0C18BF03325FEA82
:10062800DC0C18BF033202EBDC02C2F1200300FA33
:1006380003FC20FA02F001FA03FE40EA0E0021FA58
:1006480002F11444BDE600BF08B502460B4643EC70
:10065800172BB5EEC07BF1EE10FA03D4BDE80840C5
:1006680000F00AB8B1EE477B51EC170B00F004F824
:10067800404261EB410108BD9FED0B6B41EC170B4C
:100688009FED0B5B27EE066BBCEEC66BB8EE464BD8
:10069800A4EE457BFCEEC77B16EE101A17EE900A07
:1006A800704700BFAFF30080000000000000F03D7D
:1006B800000000000000F04180B582B000AF786013
:1006C800396001210E4802F05AFE0E4B18680E4B95
:1006D8000E4A402101F082FD0B490C4800F018F841
:1006E800084B1B6800220121184601F0F7FE03465B
:1006F800002B01D001F046F800BF0837BD4680BD89
:100708000004025800000024580A0024300A00247B
:1007180080B584B000AF786039607B681B68B3F53A
:10072800C87F01D901233DE07B68DB681B0CFB73A4
:100738003B681B7803F00303BB73BB7B032B2FD8E9
:1007480001A252F823F000BF6107000873070008F0
:1007580085070008970700087B681B689BB2F97B30
:100768003A68184600F01AF91BE07B681B689BB2D0
:10077800F97B3A68184600F079F912E07B681B6843
:100788009BB2F97B3A68184600F0D8F909E07B6813
:100798001B689BB2F97B3A68184600F037FA00E00C
:1007A80000BF002318461037BD4680BD80B500AF96
:1007B8003E4B1B683E4A1A603C4B1B684FF48072E4
:1007C8009A603A4B1B680322DA60384B1B68002298
:1007D8001A74364B1B6800225A74344B1B6800226B
:1007E8009A74324B1B6801225A61304B1B680722EE
:1007F8009A612E4B1B682A22DA612C4B1B681B223C
:100808001A622A4B1B6802225A62284B1B680C2268
:100818009A62264B1B680C22DA62244B1B680C2256
:100828001A63224B1B6800225A63204B1B68002264
:100838009A631E4B1B680022DA631C4B1B6801225B
:100848001A641A4B1B6804225A64184B1B6800224E
:100858009A64164B1B680422DA64144B1B68002246
:100868001A65124B1B6804225A65104B1B6800223C
:100878009A650E4B1B680022DA650C4B1B68202218
:100888001A660A4B1B6800225A66084B1B6804222A
:100898009A66064B1B68184601F03CFA0346002B83
:1008A80001D0012300E00023184680BD0000002489
:1008B80000A0004080B582B000AF0023FB8020E09C
:1008C800FB88144A52F82330184604F085FEFB884A
:1008D800104A002142F82310FB880E4A52F82330B0
:1008E80000221A70FB880B4A1344002283F8402622
:1008F800FB88084A1344042283F8D027FB88013375
:10090800FB80FB88B3F5C87FDAD300BF00BF083788
:10091800BD4680BDAC00002480B500AFFFF746FFA0
:100928000346002B01D0012332E0FFF7C3FF194B28
:100938001B68184601F0CCFB0346002B01D00123AD
:1009480026E0144B1B6800220121184601F0C6FD61
:100958000346002B01D001231AE00F4B00225A60F6
:100968000D4B00229A600C4B4FF40022DA600A4BC0
:1009780000221A61084B00225A61074B4FF40012FB
:100988009A61054B0022DA61034B00221A620023A8
:10099800184680BD000000240C0A002490B589B0D8
:1009A80000AF03463A60FB800B467B714FF00002B4
:1009B8004FF00003C7E9022307F108037B61FB88B6
:1009C800294A13447A7983F84026FB88264A134437
:1009D800002283F8D027FB88234A52F82330184690
:1009E80004F0FAFD7B79FC88184604F0EDFD034617
:1009F8001A461D4B43F824200023FB610AE0FB69DB
:100A08003A681A44FB6979690B4412781A70FB69D1
:100A18000133FB617B79FA699A42F0DBD7E902017D
:100A28004FF000024FF00003820842EA81728B08FF
:100A3800C7E902230023BB610DE0BB697A691A4448
:100A4800FB88094951F82310BB690B4412781A70C6
:100A5800BB690133BB617B79BA699A42EDDB00BFA0
:100A680000BF2437BD4690BDAC00002490B589B0C6
:100A780000AF03463A60FB800B467B714FF00002E3
:100A88004FF00003C7E9022307F108037B61FB88E5
:100A9800294A13447A7983F84026FB88264A134466
:100AA800012283F8D027FB88234A52F823301846BE
:100AB80004F092FD7B79FC88184604F085FD034616
:100AC8001A461D4B43F824200023FB610AE0FB690A
:100AD8003A681A44FB6979690B4412781A70FB6901
:100AE8000133FB617B79FA699A42F0DBD7E90201AD
:100AF8004FF000024FF00003820842EA81728B082F
:100B0800C7E902230023BB610DE0BB697A691A4477
:100B1800FB88094951F82310BB690B4412781A70F5
:100B2800BB690133BB617B79BA699A42EDDB00BFCF
:100B380000BF2437BD4690BDAC00002490B589B0F5
:100B480000AF03463A60FB800B467B714FF0000212
:100B58004FF00003C7E9022307F108037B61FB8814
:100B6800294A13447A7983F84026FB88264A134495
:100B7800022283F8D027FB88234A52F823301846EC
:100B880004F02AFD7B79FC88184604F01DFD034615
:100B98001A461D4B43F824200023FB610AE0FB6939
:100BA8003A681A44FB6979690B4412781A70FB6930
:100BB8000133FB617B79FA699A42F0DBD7E90201DC
:100BC8004FF000024FF00003820842EA81728B085E
:100BD800C7E902230023BB610DE0BB697A691A44A7
:100BE800FB88094951F82310BB690B4412781A7025
:100BF800BB690133BB617B79BA699A42EDDB00BFFF
:100C080000BF2437BD4690BDAC0000242DE9F04359
:100C180089B000AF03463A60FB800B467B714FF00A
:100C280000024FF00003C7E9022307F108033B6104
:100C3800FB88314A13447A7983F84026FB882E4A88
:100C48001344032283F8D027FB882B4A52F8233019
:100C5800184604F0C1FC7B79FE88184604F0B4FC01
:100C680003461A46244B43F826204FF000024FF063
:100C78000003C7E906230FE0BB693A681A44BB6959
:100C880039690B4412781A70D7E9062312F1010862
:100C980043F10009C7E906897B7900221C461546FD
:100CA800D7E90623A242AB41E6D3D7E902014FF0C8
:100CB80000024FF00003820842EA81728B08C7E9FC
:100CC800022300237B610DE07B693A691A44FB88A3
:100CD800094951F823107B690B4412781A707B6913
:100CE80001337B617B797A699A42EDDB00BF00BFF3
:100CF8002437BD46BDE8F083AC000024B0B489B009
:100D080000AF0346FB804FF000024FF00003C7E935
:100D1800022307F108037B61FB882A4A134493F8EE
:100D2800D037002B02D0012B1BD03DE00023FB6104
:100D38000DE0FB88234A52F82320FB691A44FB691B
:100D480079690B4412781A70FB690133FB61FB88DF
:100D58001C4A134493F840361A46FB699342E8DB71
:100D680027E00023BB610DE0FB88164A52F82320D8
:100D7800BB691A44BB6979690B4412781A70BB695C
:100D88000133BB61FB880F4A134493F840361A4677
:100D9800BB699342E8DBD7E902230021544261EBA7
:100DA8000305C7E9024504E04FF001024FF00003D4
:100DB80001E0D7E90223104619462437BD46B0BCE6
:100DC800704700BFAC00002480B52DED028B88B0C1
:100DD80000AF0346FB80FB883E4A134493F8D037A4
:100DE800022B02D04FF07E536BE04FF000024FF021
:100DF8000003C7E902230023FB750023BB754FF0EE
:100E08000003FB6107F108033B610023BB610DE0B0
:100E1800FB88304A52F82320BB691A44BB693969F8
:100E28000B4412781A70BB690133BB61FB88294AED
:100E3800134493F840361A46BB699342E8DBD7E976
:100E48000223D3B203F03F03FB75D7E902014FF049
:100E580000024FF00003820942EA81628B09D3B293
:100E680003F00103BB75D7E902014FF000024FF010
:100E78000003C20942EA4162CB0910461946FFF74E
:100E8800ADFB41EC180BFB7D5B4207EE903AB8EEE8
:100E9800E77BB0EE471BB2EE040B04F0EDFCB0EEBE
:100EA800407B28EE077BF7EEC77BC7ED077ABB7D53
:100EB800012B05D1D7ED077AF1EE677AC7ED077AEE
:100EC800FB6907EE903AB0EE670A2037BD46BDECE5
:100ED800028B80BDAC00002480B52DED028B88B05C
:100EE80000AF0346FB80FB883E4A134493F8D03793
:100EF800032B02D0B7EE007B6CE04FF000024FF0FE
:100F08000003C7E902230023FB750023BB754FF0DC
:100F18000003FB6107F108033B610023BB610DE09F
:100F2800FB88304A52F82320BB691A44BB693969E7
:100F38000B4412781A70BB690133BB61FB88294ADC
:100F4800134493F840361A46BB699342E8DBD7E965
:100F580002231346FB75D7E902014FF000024FF058
:100F68000003420A42EAC1524B0AD3B203F001031A
:100F7800BB75D7E902014FF000024FF00003820A67
:100F880042EA81528B0A10461946FFF727FB41ECCB
:100F9800180BFB7D5B4207EE903AB8EEE77BB0EEAC
:100FA800471BB2EE040B04F067FCB0EE407B28EE62
:100FB800077BF7EEC77BC7ED077ABB7D012B05D111
:100FC800D7ED077AF1EE677AC7ED077AD7ED077A9A
:100FD800B7EEE77AB0EE470B2037BD46BDEC028B83
:100FE80080BD00BFAC0000242DE9F04F8DB000AFEC
:100FF8000146C7E902230B46FB8204F0A3FA034625
:1010080000223B607A60D7E90023C7E9082307F18B
:101018000803FB610023FB620023BB621BE0D7E9E6
:101028000223B96AC900C1F12006A1F1200022FA01
:1010380001F403FA06F6344323FA00F0044323FAD2
:1010480001F554EA050303D1BB6A1B04FB6205E002
:10105800BB6A0133BB62BB6A072BE0DDFB8A194A16
:101068001360184AFB6AD36012E004F06BFA034677
:1010780000229A469346D7E90823BAEB02086BEB9D
:101088000309B8F10B0F79F1000301D3022314E02F
:101098000D4B1B68184601F00FFA0346002BE4D0ED
:1010A800094B1B68FA690749184601F03CF80346E2
:1010B800002B01D0012300E0002318463437BD4639
:1010C800BDE8F08F0C0A0024000000242DE9B0438D
:1010D80084B000AF0146C7E900230B46FB81D7E97E
:1010E8000023002B0CDBD7E900014FF000024FF082
:1010F80000038B0043EA90738200C7E9002312E0E3
:10110800D7E900230021544261EB03054FF00002A8
:101118004FF00003AB0043EA9473A20042F00108C9
:101128009946C7E90089D7E90023F9890846FFF7F6
:101138005BFF0346002B01D0012300E00023184683
:101148001037BD46BDE8B0832DE9B04F2DED028BB9
:101158008EB000AF034687ED0A0A0A46FB851346A0
:1011680087F82D30D7ED0A7AB7EEE78A97F82D3051
:1011780007EE903AB8EE677BB0EE471BB2EE040B71
:1011880004F07AFBB0EE407B28EE077B51EC170B9E
:10119800FFF75AFA02460B46C7E90C23D7ED0A7A3D
:1011A800F5EEC07AF1EE10FA24DBD7E90C014FF026
:1011B80000024FF000034B0243EAD053420297F873
:1011C8002D108900C81739627862D7E90845214689
:1011D8001143B96129461943F961D7E906120B464B
:1011E80043F00203BB601346FB60D7E90234C7E94A
:1011F8000C3427E0D7E90C230021544261EB0305A6
:101208004FF000024FF000036B0243EAD45362022E
:1012180042F4807A9B4697F82D309B00DA173B61A1
:101228007A61D7E904120B464AEA030813464BEAE7
:10123800030948F002033B60C7F80490D7E900347B
:10124800C7E90C34D7E90C23F98D0846FFF7CCFE23
:101258000346002B01D0012300E00023184638374D
:10126800BD46BDEC028BBDE8B08F2DE9B04F90B004
:1012780000AF034687ED0A0B0A46FB86134687F83C
:10128800353097F8353007EE903AB8EE677BB0EE18
:10129800471BB2EE040B04F0EFFAB0EE406B97ED8B
:1012A8000A7B26EE077B51EC170BFFF7CDF90246B8
:1012B8000B46C7E90E2397ED0A7BB5EEC07BF1EE2E
:1012C80010FA24DBD7E90E014FF000024FF00003BB
:1012D8000B0343EA1053020397F835108900C81727
:1012E80039627862D7E9084521461143B961294630
:1012F8001943F961D7E906120B4643F00303BB60B3
:101308001346FB60D7E90234C7E90E3427E0D7E972
:101318000E230021544261EB03054FF000024FF009
:1013280000032B0343EA1453220342F4006A9B464A
:1013380097F835309B00DA173B617A61D7E90412D8
:101348000B464AEA030813464BEA030948F003032D
:101358003B60C7F80490D7E90034C7E90E34D7E9F1
:101368000E23F98E0846FFF73FFE0346002B01D0F7
:10137800012300E0002318464037BD46BDE8B08F82
:10138800B0B582B000AF04F057F800F09FF800F055
:101398007FF900F017F9FFF7BFFA00237B6034E00C
:1013A8007B689BB21A465200134499B23E4BD3E96C
:1013B80000230846FFF78AFE7B689BB21A46520054
:1013C80013449BB201339BB2384AD2ED007A384AB3
:1013D80012781146B0EE670A1846FFF7B5FE7B682B
:1013E8009BB21A46520013449BB202339BB2314A55
:1013F80092ED007B304A12781146B0EE470B184642
:10140800FFF733FF7B6801337B607B68842BC7DD84
:101418004FF4C670FFF772FC02460B462749C1E934
:10142800002340F28D10FFF7CFFCF0EE407A244BFA
:10143800C3ED007A4FF4C770FFF74EFDB0EE407B66
:10144800204B83ED007B184BD3E90023541C43F158
:101458000005154BC3E90045144BD3ED007AB7EEF0
:10146800E77A9FED0D6B37EE067BF7EEC77B0F4BE8
:10147800C3ED007A0F4B93ED007B9FED096B37EEC0
:10148800067B0C4B83ED007B02210F4801F077FFB0
:1014980083E700BFAFF30080FCA9F1D24D62503F53
:1014A8002D431CEBE2361A3F000B002404000024F5
:1014B800080000241000002418000024080B002451
:1014C800100B0024180B00240010025880B59CB0A3
:1014D80000AF07F124034C220021184604F092F8CB
:1014E8003B1D20220021184604F08CF8022001F050
:1014F80061FF00233B60314BDB6A304A23F0010374
:10150800D3622E4BDB6A03F001033B602C4B9B69D3
:1015180023F440432A4A43F480439361284B9B6950
:1015280003F440433B603B6800BF254B9B6903F4D1
:101538000053B3F5005FF8D101237B624FF4803389
:10154800BB620223BB640223FB6402233B651023B6
:101558007B650223BB650423FB6502233B660C23E2
:101568007B660023BB660023FB6607F1240318464D
:1015780003F004F80346002B01D000F003F93F23E1
:101588007B600323BB600023FB6000233B610023D7
:101598007B610023BB610023FB6100233B623B1D91
:1015A8000221184603F018FC0346002B01D000F076
:1015B800E9F800BF7037BD4680BD00BF0004005881
:1015C8000048025880B500AF2F4B304A1A602E4BA6
:1015D8004FF480729A602C4B0022DA602A4B00226A
:1015E8001A74294B00225A74274B00229A74264BEE
:1015F80001225A61244B07229A61234B2A22DA617D
:10160800214B1B221A62204B02225A621E4B0C22CB
:101618009A621D4B0C22DA621B4B0C221A631A4B7E
:1016280000225A63184B00229A63174B0022DA6390
:10163800154B01221A64144B04225A64124B0022DF
:101648009A64114B0422DA640F4B00221A650E4B80
:1016580004225A650C4B00229A650B4B0022DA656E
:10166800094B20221A66084B00225A66064B0422B0
:101678009A66054800F04EFB0346002B01D000F0A7
:1016880081F800BF80BD00BF600A002400A00040B0
:1016980080B58AB000AF07F1140300221A605A60BF
:1016A8009A60DA601A61344BD3F8E030324A43F07A
:1016B8008003C2F8E030304BD3F8E03003F0800309
:1016C8003B613B692C4BD3F8E0302B4A43F00203D3
:1016D800C2F8E030284BD3F8E03003F00203FB6097
:1016E800FB68254BD3F8E030234A43F00103C2F8E6
:1016F800E030214BD3F8E03003F00103BB60BB6856
:101708001D4BD3F8E0301C4A43F01003C2F8E03018
:10171800194BD3F8E03003F010037B607B6800229C
:1017280044F20101154801F011FE0022022114487B
:1017380001F00CFE44F201037B610123BB6100232D
:10174800FB6100233B6207F1140319460B4801F0C3
:101758004DFC02237B610123BB610023FB61002355
:101768003B6207F114031946054801F03FFC00BF2E
:101778002837BD4680BD00BF004402580004025807
:101788000010025880B500AF72B600BF4FF4804118
:10179800014801F0F4FDF9E70004025880B483B071
:1017A80000AF0A4BD3F8F430084A43F00203C2F8FA
:1017B800F430064BD3F8F43003F002037B607B6807
:1017C80000BF0C37BD465DF8047B704700440258E3
:1017D80080B5B8B000AF786007F1CC0300221A607A
:1017E8005A609A60DA601A6107F11003BC2200217E
:1017F800184603F007FF7B681B68294A93424BD1C0
:101808004FF400433B614FF08053FB6707F110032F
:10181800184601F009FE0346002B01D0FFF7B2FF7E
:10182800204BD3F8EC301F4A43F48073C2F8EC30F5
:101838001C4BD3F8EC3003F48073FB60FB68194B46
:10184800D3F8E030174A43F00103C2F8E030154BF3
:10185800D3F8E03003F00103BB60BB684FF4C0531A
:10186800C7F8CC300223C7F8D0300023C7F8D430EB
:101878000023C7F8D8300923C7F8DC3007F1CC03B8
:101888001946094801F0B2FB00220021132000F09C
:101898000CFA132000F023FA00BFE037BD4680BDE4
:1018A80000A00040004402580000025880B400AF75
:1018B800FEE7000080B500AF4FF48041014801F019
:1018C8005EFDF9E70004025880B400AFFEE780B47B
:1018D80000AFFEE780B400AFFEE780B400AF00BF02
:1018E800BD465DF8047B704780B400AF00BFBD46BD
:1018F8005DF8047B704780B400AF00BFBD465DF85B
:10190800047B704780B500AF03F008FE00BF80BDC0
:1019180080B500AF024800F05BFE00BF80BD00BF8D
:10192800600A002480B586B000AF7860144A154B71
:10193800D31A7B617B693B61134B1B68002B02D177
:10194800114B124A1A60104B1A687B6813443A69A3
:101958009A4207D203F00EFE03460C221A604FF09B
:10196800FF3309E0084B1B68FB60074B1A687B686C
:101978001344054A1360FB6818461837BD4680BDF6
:101988000000082400040000200B0024380B002469
:1019980080B400AF374BD3F88830364A43F470032D
:1019A800C2F88830344B1B6803F00F03062B07D8A6
:1019B800314B1B6823F00F032F4A43F007031360D2
:1019C8002E4B1B682D4A43F0010313602B4B00225A
:1019D8001A612A4B1A682949294B13400B60264B78
:1019E8001B6803F00803002B07D0234B1B6823F068
:1019F8000F03214A43F007031360204B00229A612A
:101A08001E4B0022DA611D4B00221A621B4B1D4A35
:101A18009A621A4B1C4ADA62184B1C4A1A63174B13
:101A280000225A63154B194A9A63144B0022DA6351
:101A3800124B164A1A64114B00225A640F4B1B684A
:101A48000E4A23F4802313600C4B00221A66104BB5
:101A58001A68104B1340B3F1005F02D20E4B0122FB
:101A68001A600E4B43F2D2021A6000BFBD465DF801
:101A7800047B704700ED00E000200052004402584B
:101A88007FEDF6EA000202020000FF018002010178
:101A98000010005C0000FFFF088100510040005268
:101AA800DFF834D0FFF774FF0C480D490D4A0023C6
:101AB80002E0D458C4500433C4188C42F9D30A4AFB
:101AC8000A4C002301E013600432A242FBD303F066
:101AD80057FDFFF755FC704700000824000000245C
:101AE800900000245077000890000024380B002450
:101AF800FEE7000080B485B000AF78607B6803F033
:101B08000703FB600B4BDB68BB60BA684FF6FF034B
:101B18001340BB60FB681A02BB681A43064B1343A9
:101B2800BB60044ABB68D36000BF1437BD465DF88C
:101B3800047B704700ED00E00000FA0580B400AFB8
:101B4800044BDB681B0A03F007031846BD465DF823
:101B5800047B704700ED00E080B483B000AF03461B
:101B6800FB80B7F90630002B0BDBFB8803F01F0264
:101B78000749B7F906305B09012000FA02F241F87B
:101B8800232000BF0C37BD465DF8047B704700BFBB
:101B980000E100E080B483B000AF03463960FB8009
:101BA800B7F90630002B0ADB3B68DAB20C49B7F903
:101BB80006301201D2B20B4483F800230AE03B68D6
:101BC800DAB20849FB8803F00F03043B1201D2B2D2
:101BD8000B441A7600BF0C37BD465DF8047B70478E
:101BE80000E100E000ED00E080B489B000AFF860EB
:101BF800B9607A60FB6803F00703FB61FB69C3F116
:101C08000703042B28BF0423BB61FB690433062B9D
:101C180002D9FB69033B00E000237B614FF0FF32F0
:101C2800BB6902FA03F3DA43BB681A407B699A403E
:101C38004FF0FF317B6901FA03F3D9437B680B400E
:101C4800134318462437BD465DF8047B70470000EF
:101C580080B582B000AF78607B68013BB3F1807FCC
:101C680001D301230FE00A4A7B68013B53600F212F
:101C78004FF0FF30FFF78EFF054B00229A60044BB0
:101C880007221A60002318460837BD4680BD00BFEA
:101C980010E000E080B582B000AF78607868FFF7A8
:101CA80029FF00BF0837BD4680BD80B586B000AFAC
:101CB8000346B9607A60FB81FFF740FF78617A6874
:101CC800B9687869FFF790FF0246B7F90E301146F8
:101CD8001846FFF75FFF00BF1837BD4680BD80B5C7
:101CE80082B000AF0346FB80B7F906301846FFF70D
:101CF80033FF00BF0837BD4680BD80B582B000AF56
:101D080078607868FFF7A4FF034618460837BD4691
:101D180080BD000080B598B000AF7860844A07F1B4
:101D28000C0311464C22184603F05EFC7B68002B1E
:101D380001D10123C6E17B681B687E4A934206D124
:101D48007B681B6803F580731A467B685A607B685A
:101D580093F89830DBB2002B06D17B68002283F819
:101D680099207868FFF734FD7B681B689A697B685F
:101D78001B6822F010029A6103F0E4FBF86514E096
:101D880003F0E0FB0246FB6DD31A0A2B0DD97B68E2
:101D9800D3F89C3043F001027B68C3F89C207B6831
:101DA800032283F8982001238CE17B681B689B69D8
:101DB80003F00803082BE3D07B681B689A697B68EB
:101DC8001B6842F001029A6103F0BCFBF86514E05D
:101DD80003F0B8FB0246FB6DD31A0A2B0DD97B68BA
:101DE800D3F89C3043F001027B68C3F89C207B68E1
:101DF800032283F89820012364E17B681B689B69B0
:101E080003F00103002BE3D07B681B689A697B68A9
:101E18001B6842F002029A617B681B7C012B08D187
:101E28007B681B689A697B681B6822F040029A618C
:101E380007E07B681B689A697B681B6842F0400270
:101E48009A617B685B7C012B08D17B681B689A6967
:101E58007B681B6842F480429A6107E07B681B68D4
:101E68009A697B681B6822F480429A617B689B7C34
:101E7800012B08D17B681B689A697B681B6822F470
:101E880080529A6107E07B681B689A697B681B68C7
:101E980042F480529A617B681B689B6923F4407105
:101EA8007B689A687B681B680A439A617B681B6831
:101EB8009A697B681B6822F0A4029A617B681B6898
:101EC8001A697B681B6822F010021A617B68DB685C
:101ED800012B08D17B681B689A697B681B6842F0F4
:101EE80004029A6130E07B68DB68002B2CD07B68A9
:101EF800DB68022B20D07B681B689A697B681B68AB
:101F080042F080029A617B681B681A697B681B68CB
:101F180042F010021A617B68DB68032B14D17B68DE
:101F28001B689A697B681B6842F020029A610BE083
:101F3800205E000800A000407B681B689A697B68E7
:101F48001B6842F020029A617B689B69013B5A0634
:101F58007B68DB69013B1B021A437B681B6A013BF8
:101F680042EA03017B685B69013B1A047B681B68D2
:101F78000A43DA617B689B68B3F5407F15D17B68BB
:101F88009B6A5A1E7B68DB6A013B1B021A437B680B
:101F98001B6B013B1B0142EA03017B685B6A013B47
:101FA8001A047B681B680A43DA607B681B6E002B87
:101FB8000AD07B681B68D3F8C0107B685A6E7B68B0
:101FC8001B680A43C3F8C0207B68DA6D7B681B6E08
:101FD8001344002B11D07B681B68D3F8C83023F05A
:101FE80007017B689B6E9B0060333B4453F8542C7D
:101FF8007B681B680A43C3F8C8207B681B6C002BEE
:1020080011D07B681B68D3F8BC3023F007017B68CC
:102018005B6C9B0060333B4453F8542C7B681B6813
:102028000A43C3F8BC207B689B6C002B12D07B68EA
:102038001B68D3F8BC3023F070017B68DB6C9B0015
:1020480060333B4453F8543C1A017B681B680A43CD
:10205800C3F8BC207B681B6D002B12D07B681B6803
:10206800D3F8BC3023F4E0617B685B6D9B00603380
:102078003B4453F8543C1A027B681B680A43C3F874
:10208800BC207B681B68114A934207D17B685B6858
:102098009A687B685B6822F003029A607B6800227A
:1020A800C3F894207B680022C3F89C207B68012237
:1020B80083F89820786800F095FD034687F85B3030
:1020C80097F85B3018466037BD4680BD00A00040D9
:1020D80080B483B000AF78607B6893F89830DBB247
:1020E800012B11D17B68022283F898207B681B683A
:1020F8009A697B681B6822F001029A617B6800225A
:10210800C3F89C20002308E07B68D3F89C3043F098
:1021180004027B68C3F89C20012318460C37BD468F
:102128005DF8047B704780B586B000AFF860B96091
:102138007A60FB6893F89830DBB2022B41D1FB68D8
:102148001B68D3F8C03003F07C53002B09D1FB681F
:10215800D3F89C3043F02002FB68C3F89C2001238D
:1021680038E0FB681B68D3F8C43003F40013002B75
:1021780009D0FB68D3F89C3043F40072FB68C3F8BD
:102188009C20012326E0FB681B68D3F8C4301B0C95
:1021980003F01F037B617B697A68B968F86800F00F
:1021A800A7FEFB681B6801217A6901FA02F2C3F8ED
:1021B800D02001227B699A40FB68C3F89420002351
:1021C80008E0FB68D3F89C3043F00802FB68C3F8CA
:1021D8009C20012318461837BD4680BD80B48BB0BB
:1021E80000AFF860B9607A603B600023FB61FB6870
:1021F80093F89830FB76FB7E022B40F04B81BB684E
:10220800402B4DD1FB681B68D3F8A03003F4FE03C4
:10221800002B09D1FB68D3F89C3043F02002FB68FF
:10222800C3F89C2001233EE1FB681B68D3F8A43067
:1022380003F07F03002B09D1FB68D3F89C3043F4EB
:102248008072FB68C3F89C2001232CE1FB681B68A3
:10225800D3F8A4301B0E03F00103012B0BD1FB684C
:102268001B68D3F8A030DB0F03F00103B3F1004F74
:1022780001D10123FB61FB681B68D3F8A4301B0A5A
:1022880003F03F03FA691344FB61FB685A6FFB686C
:102298005B6CF96901FB03F39B0013447B6269E003
:1022A800BB68412B4DD1FB681B68D3F8B03003F4F1
:1022B800FE03002B09D1FB68D3F89C3043F02002C1
:1022C800FB68C3F89C200123EDE0FB681B68D3F88A
:1022D800B43003F07F03002B09D1FB68D3F89C309E
:1022E80043F48072FB68C3F89C200123DBE0FB68A1
:1022F8001B68D3F8B4301B0E03F00103012B0BD17C
:10230800FB681B68D3F8B030DB0F03F00103B3F1AF
:10231800004F01D10123FB61FB681B68D3F8B4307F
:102328001B0A03F03F03FA691344FB61FB689A6FC9
:10233800FB68DB6CF96901FB03F39B0013447B62C8
:1023480018E0FB681B6DBA689A4209D3FB68D3F89A
:102358009C3043F02002FB68C3F89C200123A2E0D4
:10236800FB68DA6FFB685B6DB96801FB03F39B00E0
:1023780013447B627B6A1B6803F080427B685A6067
:102388007B685B68002B07D17B6A1B689B0CC3F3D7
:102398000A027B681A6005E07B6A1B6823F06042CA
:1023A8007B681A607B6A1B6803F000527B689A603E
:1023B8007B6A1B6803F000427B681A617B6A0433FE
:1023C8007B627B6A1B689AB27B68DA617B6A1B68EE
:1023D80003F470227B68DA607B6A1B6803F480125E
:1023E8007B685A617B6A1B6803F400127B689A61F8
:1023F8007B6A1B681B0E03F07F027B681A627B6A8C
:102408001B68DA0F7B685A627B6A04337B627B6ADB
:102418007B6100233B620AE07A693B6A1A443968A7
:102428003B6A0B4412781A703B6A01333B627B6843
:10243800DB681B0C1F4AD35C1A463B6A9342EBD3FA
:10244800BB68402B05D1FB681B68FA69C3F8A82054
:102458001EE0BB68412B05D1FB681B68FA69C3F80D
:10246800B82015E0BB681F2B08D8FB681B68012142
:10247800BA6801FA02F2C3F8982009E0BB6803F0D1
:102488001F02FB681B68012101FA02F2C3F89C20B5
:10249800002308E0FB68D3F89C3043F00802FB688F
:1024A800C3F89C20012318462C37BD465DF8047BF1
:1024B800704700BF7C5E000880B485B000AF7860CC
:1024C8007B681B68D3F8C43003F03F03FB60FB68EC
:1024D80018461437BD465DF8047B704780B487B052
:1024E80000AFF860B9607A60FB6893F89830FB75C4
:1024F800FB7D012B02D0FB7D022B55D1FB681B68AD
:102508009A6DBB681340002B08D1FB681B68DA6D15
:10251800FB681B6842F00102DA6514E0FB681B687F
:102528009A6DBB681340BA689A4208D1FB681B6869
:10253800DA6DFB681B6842F00202DA6503E0FB68AB
:102548001B680322DA65BB6803F40073002B09D00B
:10255800FB681B68D3F8E010FB681B687A680A43BD
:10256800C3F8E020BB6803F48063002B09D0FB6844
:102578001B68D3F8E410FB681B687A680A43C3F841
:10258800E420FB681B68596DBA680F4B1340FA6862
:1025980012680B4353650D4B5A69BB689B0F0B4977
:1025A80013434B61002308E0FB68D3F89C3043F0E9
:1025B8000202FB68C3F89C20012318461C37BD465D
:1025C8005DF8047B704700BFFFFFCF3F00A80040C5
:1025D80080B596B000AF78609A4B1B699B077B6506
:1025E800984B5B699B077A6D13407B657B681B681A
:1025F8001B6D03F470433B657B681B685B6D3A6D2C
:1026080013403B657B681B681B6D03F00F03FB647D
:102618007B681B685B6DFA6C1340FB647B681B6806
:102628001B6D03F0F003BB647B681B685B6DBA6CC1
:102638001340BB647B681B681B6D03F071537B649C
:102648007B681B685B6D7A6C13407B647B681B68D6
:102658001B6D03F060733B647B681B685B6D3A6CB1
:1026680013403B647B681B685B6DFB637B681B687E
:102678001B6DBB63FB6B1B0A03F00103002B10D01F
:10268800BB6B1B0A03F00103002B0AD07B681B6895
:102698004FF480721A656B4B00221A61786800F05B
:1026A80054FAFB6B9B0A03F00103002B1DD0BB6B94
:1026B8009B0A03F00103002B17D07B681B68D3F833
:1026C800DC307B637B681B68D3F8E4307A6B13409B
:1026D8007B637B681B684FF480621A65594B002244
:1026E8001A61796B786800F007FA7B6D002B0DD0C2
:1026F8007B681A68796D544B0B401365514A7B6DA2
:102708009B0F1361796D786800F0C0F93B6D002B61
:102718000DD07B681A68396D4B4B0B401365494ADD
:102728003B6D9B0F1361396D786800F0BAF9FB6C4B
:10273800002B0DD07B681A68F96C434B0B4013656E
:10274800404AFB6C9B0F1361F96C7868FDF7B4FF86
:10275800BB6C002B0DD07B681A68B96C3A4B0B40E8
:102768001365384ABB6C9B0F1361B96C786800F02D
:10277800A3F9FB6BDB0A03F00103002B10D0BB6B42
:10278800DB0A03F00103002B0AD07B681B684FF4B7
:1027980000621A652B4B00221A61786800F097F9DD
:1027A800FB6B5B0A03F00103002B1DD0BB6B5B0ABC
:1027B80003F00103002B17D07B681B68D3F8D830CF
:1027C8003B637B681B68D3F8E0303A6B13403B638C
:1027D8007B681B684FF400721A651A4B00221A6155
:1027E800396B786800F07DF9FB6BDB0C03F00103B3
:1027F800002B10D0BB6BDB0C03F00103002B0AD0BD
:102808007B681B684FF400221A650E4B00221A6180
:10281800786800F07CF9FB6B1B0C03F00103002BBC
:1028280016D0BB6B1B0C03F00103002B10D07B6888
:102838001B684FF480321A65024B00221A617868CF
:1028480004E000BF00A80040FFFFCF3F00F069F997
:10285800FB6B9B0C03F00103002B10D0BB6B9B0C94
:1028680003F00103002B0AD07B681B684FF4802219
:102878001A65834B00221A61786800F05CF9FB6BDB
:102888005B0C03F00103002B15D0BB6B5B0C03F052
:102898000103002B0FD07B681B684FF400321A65C8
:1028A800774B00221A617B68D3F89C3043F0800292
:1028B8007B68C3F89C203B6C002B0DD07B681A68A2
:1028C800396C704B0B4013656D4A3B6C9B0F136161
:1028D800396C786800F04DF97B6C002B11D07B685F
:1028E8001A68796C674B0B401365654A7B6C9B0FC4
:1028F80013617B68D3F89C207B6C1A437B68C3F810
:102908009C207B681B68604A934240F0AC807B68DF
:102918005B689B6803F00303002B00F0A4807B68CE
:102928005B681B6A03F00F03FB627B685B685B6A8A
:10293800FA6A1340FB627B685B681B6A03F030032A
:10294800BB627B685B685B6ABA6A1340BB627B6880
:102958005B681B6A03F4C0737B627B685B685B6AB5
:102968007A6A13407B627B685B681B6A03F4FC43EA
:102978003B627B685B685B6A3A6A13403B627B68D0
:102988005B681B6A03F4F023FB617B685B685B6A26
:10299800FA691340FB617B685B685B6ABB617B68B3
:1029A8005B681B6A7B61FB6A002B07D07B685B68EE
:1029B800FA6A1A62F96A786800F0E6F8BB6A002BCE
:1029C80007D07B685B68BA6A1A62B96A786800F0EF
:1029D800E6F8BB699B0903F00103002B1AD07B6959
:1029E8009B0903F00103002B14D07B685B68DB6B49
:1029F8001B0C9BB23B617B685B68DB6B03F03F039E
:102A0800FB607B685B6840221A62FA6839697868FB
:102A180000F0D0F87B6A002B07D07B685B687A6A85
:102A28001A62796A786800F0D1F83B6A002B0BD0FB
:102A38007B685B683A6A1A627B68D3F89C203B6AB9
:102A48001A437B68C3F89C20FB69002B0BD07B687A
:102A58005B68FA691A627B68D3F89C20FB691A43A1
:102A68007B68C3F89C207B68D3F89C30002B02D08D
:102A7800786800F074F800BF5837BD4680BD00BFC5
:102A880000A80040FFFFCF3F00A0004080B483B003
:102A980000AF7860396000BF0C37BD465DF8047B35
:102AA800704780B483B000AF7860396000BF0C37DE
:102AB800BD465DF8047B704780B483B000AF786092
:102AC800396000BF0C37BD465DF8047B704780B4A1
:102AD80083B000AF786000BF0C37BD465DF8047B5B
:102AE800704780B483B000AF7860396000BF0C379E
:102AF800BD465DF8047B704780B483B000AF786052
:102B0800396000BF0C37BD465DF8047B704780B460
:102B180083B000AF786000BF0C37BD465DF8047B1A
:102B2800704780B483B000AF786000BF0C37BD46F3
:102B38005DF8047B704780B483B000AF786000BF55
:102B48000C37BD465DF8047B704780B483B000AF96
:102B5800786000BF0C37BD465DF8047B704780B4D1
:102B680083B000AF786000BF0C37BD465DF8047BCA
:102B7800704780B483B000AF7860396000BF0C370D
:102B8800BD465DF8047B704780B483B000AF7860C1
:102B9800396000BF0C37BD465DF8047B704780B4D0
:102BA80083B000AF7860396000BF0C37BD465DF870
:102BB800047B704780B485B000AFF860B9607A6074
:102BC80000BF1437BD465DF8047B704780B483B0FE
:102BD80000AF7860396000BF0C37BD465DF8047BF4
:102BE8007047000080B485B000AF78607B685B6B8D
:102BF800BB607B681B68D3F88420A74B1340BA6876
:102C080091007A6812680B43C2F884307B681B68AD
:102C1800D3F8843023F47F017B689B6B1A047B68AC
:102C28001B680A43C3F884207B689B6BBA6813440B
:102C3800BB607B681B68D3F88820974B1340BA6841
:102C480091007A6812680B43C2F888307B681B6869
:102C5800D3F8883023F4FE017B68DB6B1A047B68A9
:102C68001B680A43C3F888207B68DB6B5B00BA6883
:102C78001344BB607B681B68D3F8A020864B1340C5
:102C8800BA6891007A6812680B43C2F8A0307B6872
:102C98001B68D3F8A03023F4FE017B681B6C1A0470
:102CA8007B681B680A43C3F8A0207B681B6C7A68A2
:102CB800526C02FB03F3BA681344BB607B681B6861
:102CC800D3F8B020744B1340BA6891007A68126840
:102CD8000B43C2F8B0307B681B68D3F8B03023F4DC
:102CE800FE017B689B6C1A047B681B680A43C3F867
:102CF800B0207B689B6C7A68D26C02FB03F3BA68DD
:102D08001344BB607B681B68D3F8AC20624B13404C
:102D1800BA6891007A6812680B43C2F8AC307B68D5
:102D28001B6D7A68526D02FB03F3BA681344BB60EB
:102D38007B681B68D3F8F020574B1340BA689100A2
:102D48007A6812680B43C2F8F0307B681B68D3F8C6
:102D5800F03023F47C117B689B6D1A047B681B6838
:102D68000A43C3F8F0207B689B6D5B00BA68134484
:102D7800BB607B681B68D3F8C020474B1340BA6818
:102D880091007A6812680B43C2F8C0307B681B68F0
:102D9800D3F8C03023F47C117B68DB6D1A047B68A0
:102DA8001B680A43C3F8C0207B681B68D3F8C0308F
:102DB80023F07C517B681B6E1A067B681B680A43EC
:102DC800C3F8C0207B685A6B344B13449A007B6865
:102DD800DA667B68DA6E7B689B6B9B001A447B68BB
:102DE8001A677B681A6F7B68DB6BDB001A447B68A9
:102DF8005A677B685A6F7B681B6C7968496C01FB62
:102E080003F39B001A447B689A677B689A6F7B6818
:102E18009B6C7968C96C01FB03F39B001A447B68BF
:102E2800DA677B68DA6F7B681B6D7968496D01FB2F
:102E380003F39B001A447B68C3F880207B68D3F8AF
:102E480080207B689B6DDB001A447B68C3F8842074
:102E58007B68D3F884207B68DB6D7968896E01FB19
:102E680003F39B001A447B68C3F888207B68D3F877
:102E780088207B681B6E7968896E01FB03F39B00D1
:102E88001A447B68C3F890207B68D3F89030044AD2
:102E9800934215D906E000BF0300FFFF002B001086
:102EA800FCD300407B68D3F89C3043F020027B6859
:102EB800C3F89C207B68032283F89820012310E044
:102EC8007B68DB6EFB6005E0FB6800221A60FB682C
:102ED8000433FB607B68D3F89030FA689A42F3D3E6
:102EE800002318461437BD465DF8047B704700BFC1
:102EF80080B489B000AFF860B9607A603B60BB68A5
:102F08005B68002B0AD1BB681A69BB689B681A43C7
:102F1800BB681B689B041343FB610AE0BB681A6922
:102F2800BB689B681A43BB681B68134343F0804324
:102F3800FB61BB681B6A1A06BB68DB691A43BB687E
:102F48009B691A43BB685B691A43BB68DB68134318
:102F58003B61FB68D3F88420FB689B6E396801FBF2
:102F680003F39B001344BB61BB69FA691A60BB6930
:102F78000433BB61BB693A691A60BB690433BB613E
:102F880000237B6120E07B6903337A6813441B7854
:102F98001A067B69023379680B441B781B041A43B1
:102FA8007B69013379680B441B781B0213437968EA
:102FB8007A690A4412781A43BB691A60BB690433F8
:102FC800BB617B6904337B61BB68DB681B0C064A09
:102FD800D35C1A467B699342D5D300BF00BF243720
:102FE800BD465DF8047B70477C5E000880B489B0FC
:102FF80000AF786039600023FB61894B7B6194E105
:103008003B681A680121FB6901FA03F313403B612D
:103018003B69002B00F086813B685B6803F0030383
:10302800012B05D03B685B6803F00303022B30D10A
:103038007B689B68BB61FB695B00032202FA03F3B0
:10304800DB43BA691340BB613B68DA68FB695B0024
:1030580002FA03F3BA691343BB617B68BA699A60E1
:103068007B685B68BB610122FB6902FA03F3DB43FF
:10307800BA691340BB613B685B681B0903F0010236
:10308800FB6902FA03F3BA691343BB617B68BA6947
:103098005A603B685B6803F00303032B17D07B6817
:1030A800DB68BB61FB695B00032202FA03F3DB43C5
:1030B800BA691340BB613B689A68FB695B0002FA16
:1030C80003F3BA691343BB617B68BA69DA603B688A
:1030D8005B6803F00303022B23D1FB69DA087B68E2
:1030E800083253F82230BB61FB6903F007039B00E9
:1030F8000F2202FA03F3DB43BA691340BB613B6852
:103108001A69FB6903F007039B0002FA03F3BA6923
:103118001343BB61FB69DA087B680832B96943F875
:1031280022107B681B68BB61FB695B00032202FA03
:1031380003F3DB43BA691340BB613B685B6803F088
:103148000302FB695B0002FA03F3BA691343BB612C
:103158007B68BA691A603B685B6803F44033002BEC
:1031680000F0E0802F4BD3F8F4302E4A43F00203EE
:10317800C2F8F4302B4BD3F8F43003F00203FB60B1
:10318800FB68294AFB699B08023352F82330BB616C
:10319800FB6903F003039B000F2202FA03F3DB43EE
:1031A800BA691340BB617B68204A934252D07B685E
:1031B8001F4A934231D07B681E4A93422BD07B68CA
:1031C8001D4A934225D07B681C4A93421FD07B68D6
:1031D8001B4A934219D07B681A4A934213D07B68E2
:1031E800194A93420DD07B68184A934207D07B68EE
:1031F800174A934201D109232DE00A232BE0082323
:1032080029E0072327E0062325E0052323E00423FC
:1032180021E003231FE002231DE001231BE000BF80
:10322800800000580044025800040058000002586A
:103238000004025800080258000C025800100258F6
:103248000014025800180258001C025800200258A6
:10325800002402580023FA6902F003029200934006
:10326800BA691343BB613849FB699B080233BA69E1
:1032780041F823204FF0B0431B68BB613B69DB4337
:10328800BA691340BB613B685B6803F48013002B89
:1032980003D0BA693B691343BB614FF0B042BB69C5
:1032A80013604FF0B0435B68BB613B69DB43BA69AD
:1032B8001340BB613B685B6803F40013002B03D029
:1032C800BA693B691343BB614FF0B042BB695360B5
:1032D8007B695B68BB613B69DB43BA691340BB61CF
:1032E8003B685B6803F40033002B03D0BA693B6981
:1032F8001343BB617B69BA695A607B691B68BB6110
:103308003B69DB43BA691340BB613B685B6803F404
:103318008033002B03D0BA693B691343BB617B69D7
:10332800BA691A60FB690133FB613B681A68FB697B
:1033380022FA03F3002B7FF463AE00BF00BF2437EB
:10334800BD465DF8047B70470004005880B483B024
:1033580000AF78600B467B8013467B707B78002B30
:1033680003D07A887B689A6103E07B881A047B68BB
:103378009A6100BF0C37BD465DF8047B704780B486
:1033880085B000AF78600B467B807B685B69FB602B
:103398007A88FB6813401A04FB68D9437B880B4082
:1033A8001A437B689A6100BF1437BD465DF8047BF9
:1033B8007047000080B584B000AF7860194BDB68B7
:1033C80003F00403042B0AD0164BDB6803F0070351
:1033D8007A689A4201D001231FE000231DE0114BB7
:1033E800DB6823F007020F497B681343CB6002F0C8
:1033F800A9F8F86009E002F0A5F80246FB68D31ABC
:10340800B3F57A7F01D9012307E0064B5B6803F423
:103418000053B3F5005FEED1002318461037BD46C0
:1034280080BD00BF0048025880B586B000AF786004
:103438000023FB750023BB757B681B6803F00063E2
:10344800002B3FD07B685B6EB3F5401F2AD0B3F5E5
:10345800401F24D8B3F5001F18D0B3F5001F1ED89D
:10346800002B03D0B3F5801F07D018E0A34BDB6A0D
:10347800A24A43F40033D36215E07B680433022187
:10348800184600F017FF0346FB750CE07B682433F1
:103498000221184600F0C0FF0346FB7503E0012334
:1034A800FB7500E000BFFB7D002B09D1934B1B6D22
:1034B80023F440127B685B6E904913430B6501E06F
:1034C800FB7DBB757B681B6803F48073002B3DD0C4
:1034D8007B685B6D042B26D801A252F823F000BF4D
:1034E800FD3400080B3500081D3500083535000887
:1034F80035350008814BDB6A804A43F40033D362D8
:1035080015E07B6804330021184600F0D3FE03461B
:10351800FB750CE07B6824330021184600F07CFF23
:103528000346FB7503E00123FB7500E000BFFB7D4C
:10353800002B09D1714B1B6D23F007027B685B6D73
:103548006E4913430B6501E0FB7DBB757B681B6807
:1035580003F40073002B42D07B689B6DB3F5807F2A
:103568002BD0B3F5807F25D8C02B28D0C02B21D8ED
:10357800802B16D0802B1DD8002B02D0402B07D0D3
:1035880018E05E4BDB6A5D4A43F40033D36217E010
:103598007B6804330021184600F08CFE0346FB7557
:1035A8000EE07B6824330021184600F035FF0346FF
:1035B800FB7505E00123FB7502E000BF00E000BFDA
:1035C800FB7D002B09D14D4B1B6D23F4E0727B680A
:1035D8009B6D4A4913430B6501E0FB7DBB757B6816
:1035E8001B6803F48063002B49D07B68D3F8A430B0
:1035F800B3F5000F30D0B3F5000F2AD8B3F5C00FDC
:103608002CD0B3F5C00F24D8B3F5800F18D0B3F57C
:10361800800F1ED8002B03D0B3F5001F07D018E089
:10362800364BDB6A354A43F40033D36217E07B68D4
:1036380004330021184600F03DFE0346FB750EE0FA
:103648007B6824330021184600F0E6FE0346FB752C
:1036580005E00123FB7502E000BF00E000BFFB7D31
:10366800002B0AD1254B9B6D23F460027B68D3F8AD
:10367800A430224913438B6501E0FB7DBB757B6851
:103688001B6803F40063002B4BD07B68D3F8A83089
:10369800B3F1806F30D0B3F1806F2AD8B3F1407F97
:1036A8002ED0B3F1407F24D8B3F1007F18D0B3F106
:1036B800007F1ED8002B03D0B3F1807F07D018E01D
:1036C8000E4BDB6A0D4A43F40033D36219E07B6882
:1036D80004330021184600F0EDFD0346FB7510E0A9
:1036E8007B6824330021184600F096FE0346FB75DC
:1036F80007E00123FB7504E000BF02E00044025824
:1037080000BFFB7D002B0AD1994B9B6D23F0E06233
:103718007B68D3F8A830964913438B6501E0FB7D9D
:10372800BB757B681B6803F00073002B32D07B6885
:103738009B6C302B1CD0302B17D8202B0CD0202B77
:1037480013D8002B16D0102B0FD1894BDB6A884A6F
:1037580043F40033D3620EE07B6804330221184639
:1037680000F0A8FD0346FB7505E00123FB7502E0A8
:1037780000BF00E000BFFB7D002B09D17C4BDB6C58
:1037880023F030027B689B6C79491343CB6401E0DA
:10379800FB7DBB757B681B6803F48053002B47D007
:1037A8007B68DB6DB3F5804F30D0B3F5804F2AD8F6
:1037B800B3F5405F2CD0B3F5405F24D8B3F5005F74
:1037C80018D0B3F5005F1ED8002B03D0B3F5805F87
:1037D80007D018E0664BDB6A654A43F40033D362CE
:1037E80017E07B6804330021184600F063FD0346A8
:1037F800FB750EE07B6824330021184600F00CFEB0
:103808000346FB7505E00123FB7502E000BF00E0FD
:1038180000BFFB7D002B09D1554B1B6D23F4E04203
:103828007B68DB6D524913430B6501E0FB7DBB757B
:103838007B681B6803F40053002B49D07B681B6E20
:10384800B3F5A02F2ED0B3F5A02F28D8B3F5802F2D
:103858002AD0B3F5802F22D8B3F5403F26D0B3F550
:10386800403F1CD8B3F5003F10D0B3F5003F16D841
:10387800002B1DD0B3F5803F11D17B6804330121A3
:10388800184600F017FD0346FB7512E07B682433E9
:103898000121184600F0C0FD0346FB7509E001232D
:1038A800FB7506E000BF04E000BF02E000BF00E0D7
:1038B80000BFFB7D002B09D12D4B1B6D23F4E022AB
:1038C8007B681B6E2A4913430B6501E0FB7DBB75C2
:1038D8007B681B6803F48043002B4DD07B68D3F8CA
:1038E800AC30B3F1A04F2ED0B3F1A04F28D8B3F12C
:1038F800804F2AD0B3F1804F22D8B3F1405F26D051
:10390800B3F1405F1CD8B3F1005F10D0B3F1005F92
:1039180016D8002B1DD0B3F1805F11D17B6804331A
:103928000121184600F0C6FC0346FB7512E07B68CF
:1039380024330121184600F06FFD0346FB7509E0AA
:103948000123FB7506E000BF04E000BF02E000BFF2
:1039580000E000BFFB7D002B0CD1054B9B6D23F0D5
:10396800E0427B68D3F8AC30014913438B6503E030
:1039780000440258FB7DBB757B681B6803F4004359
:10398800002B2FD07B68DB6EB3F1005F0ED0B3F154
:10399800005F14D8002B15D0B3F1805F0FD1AF4B67
:1039A800DB6AAE4A43F40033D3620CE07B6804332D
:1039B8000121184600F07EFC0346FB7503E0012355
:1039C800FB7500E000BFFB7D002B09D1A34B1B6DED
:1039D80023F040527B68DB6EA04913430B6501E07E
:1039E800FB7DBB757B681B6803F08073002B32D0AE
:1039F8007B685B6C032B1BD801A252F823F000BF35
:103A08003F3A0008193A0008273A00083F3A0008E8
:103A1800924BDB6A914A43F40033D3620CE07B6833
:103A280004330221184600F045FC0346FB7503E009
:103A38000123FB7500E000BFFB7D002B09D1874BFC
:103A4800DB6C23F003027B685B6C84491343CB6413
:103A580001E0FB7DBB757B681B6803F48003002BCA
:103A680000F086807E4B1B687D4A43F480731360A8
:103A780001F068FD386109E001F064FD02463B6928
:103A8800D31A642B02D90323FB7505E0744B1B681A
:103A980003F48073002BEFD0FB7D002B66D16F4BB6
:103AA8001A6F7B68D3F8B030534003F44073002B8F
:103AB80013D06A4B1B6F23F44073FB60674B1B6F7B
:103AC800664A43F480331367644B1B6F634A23F4DD
:103AD80080331367614AFB6813677B68D3F8B0309B
:103AE800B3F5807F15D101F02DFD38610BE001F0B1
:103AF80029FD02463B69D31A41F28832934202D922
:103B08000323FB7505E0554B1B6F03F00203002BE5
:103B1800EDD0FB7D002B26D17B68D3F8B03003F4C1
:103B28004073B3F5407F0DD14C4B1B6923F47C5295
:103B38007B68D3F8B03019094A4B0B404749134307
:103B48000B6105E0454B1B69444A23F47C53136120
:103B5800424B1A6F7B68D3F8B030C3F30B033F496D
:103B680013430B6704E0FB7DBB7501E0FB7DBB7570
:103B78007B681B6803F00103002B00F085807B68DD
:103B88009B6F282B66D801A252F823F0713C0008DD
:103B98005D3C00085D3C00085D3C00085D3C000899
:103BA8005D3C00085D3C00085D3C0008393C0008AD
:103BB8005D3C00085D3C00085D3C00085D3C000879
:103BC8005D3C00085D3C00085D3C00084B3C00087B
:103BD8005D3C00085D3C00085D3C00085D3C000859
:103BE8005D3C00085D3C00085D3C0008713C000835
:103BF8005D3C00085D3C00085D3C00085D3C000839
:103C08005D3C00085D3C00085D3C0008713C000814
:103C18005D3C00085D3C00085D3C00085D3C000818
:103C28005D3C00085D3C00085D3C0008713C0008F4
:103C38007B6804330121184600F03CFB0346FB7502
:103C480013E07B6824330121184600F0E5FB0346A6
:103C5800FB750AE00123FB7507E000BF004402582A
:103C680000480258CFFFFF0000BFFB7D002B09D1A1
:103C7800964B5B6D23F038027B689B6F9349134327
:103C88004B6501E0FB7DBB757B681B6803F0020395
:103C9800002B38D07B685B6F052B21D801A252F826
:103CA80023F000BFEF3C0008C53C0008D73C0008E3
:103CB800EF3C0008EF3C0008EF3C00087B68043349
:103CC8000121184600F0F6FA0346FB750CE07B6804
:103CD80024330121184600F09FFB0346FB7503E0DF
:103CE8000123FB7500E000BFFB7D002B09D1774B5A
:103CF8005B6D23F007027B685B6F744913434B6568
:103D080001E0FB7DBB757B681B6803F00403002B97
:103D18003AD07B68D3F89030052B21D801A252F80D
:103D280023F000BF6F3D0008453D0008573D0008DF
:103D38006F3D00086F3D00086F3D00087B68043345
:103D48000121184600F0B6FA0346FB750CE07B68C3
:103D580024330121184600F05FFB0346FB7503E09E
:103D68000123FB7500E000BFFB7D002B0AD1574BF8
:103D78009B6D23F007027B68D3F8903053491343B7
:103D88008B6501E0FB7DBB757B681B6803F0200336
:103D9800002B4BD07B68D3F88C30B3F1A04F2ED0DA
:103DA800B3F1A04F28D8B3F1804F2AD0B3F1804F98
:103DB80022D8B3F1405F26D0B3F1405F1CD8B3F1ED
:103DC800005F10D0B3F1005F16D8002B1DD0B3F1FF
:103DD800805F11D17B6804330021184600F06AFA2D
:103DE8000346FB7512E07B6824330221184600F075
:103DF80013FB0346FB7509E00123FB7506E000BFD2
:103E080004E000BF02E000BF00E000BFFB7D002B24
:103E18000AD12E4B5B6D23F0E0427B68D3F88C30DF
:103E28002A4913434B6501E0FB7DBB757B681B6822
:103E380003F04003002B4DD07B68D3F89830B3F5DE
:103E4800A05F2ED0B3F5A05F28D8B3F5805F2AD045
:103E5800B3F5805F22D8B3F5406F26D0B3F5406F35
:103E68001CD8B3F5006F10D0B3F5006F16D8002B2F
:103E78001DD0B3F5806F11D17B680433002118463B
:103E880000F018FA0346FB7512E07B682433022120
:103E9800184600F0C1FA0346FB7509E00123FB75DB
:103EA80006E000BF04E000BF02E000BF00E000BF82
:103EB800FB7D002B0CD1054B9B6D23F4E0527B68F6
:103EC800D3F89830014913438B6503E00044025846
:103ED800FB7DBB757B681B6803F08003002B4BD010
:103EE8007B68D3F89C30B3F5204F2ED0B3F5204F24
:103EF80028D8B3F5004F2AD0B3F5004F22D8B3F530
:103F0800C04F26D0B3F5C04F1CD8B3F5804F10D0A2
:103F1800B3F5804F16D8002B1DD0B3F5005F11D133
:103F28007B6804330021184600F0C4F90346FB758A
:103F380012E07B6824330221184600F06DFA03462C
:103F4800FB7509E00123FB7506E000BF04E000BF34
:103F580002E000BF00E000BFFB7D002B0AD19D4BB3
:103F68009B6D23F460427B68D3F89C3099491343D6
:103F78008B6501E0FB7DBB757B681B6803F008035C
:103F8800002B1AD07B68D3F88030B3F5805F0AD154
:103F98007B6824330221184600F03EFA0346002BC2
:103FA80001D00123BB758B4B5B6D23F440527B68BA
:103FB800D3F88030874913434B657B681B6803F04F
:103FC8001003002B1AD07B68D3F89430B3F5807FA8
:103FD8000AD17B6824330221184600F01DFA0346F3
:103FE800002B01D00123BB757A4B9B6D23F44072E3
:103FF8007B68D3F89430774913438B657B681B68DB
:1040080003F40023002B34D07B68D3F8A030B3F539
:10401800003F1DD0B3F5003F17D8002B03D0B3F5F0
:10402800803F09D011E07B6804330021184600F076
:1040380041F90346FB750CE07B68243302211846DE
:1040480000F0EAF90346FB7503E00123FB7500E085
:1040580000BFFB7D002B0AD15E4B9B6D23F44032E1
:104068007B68D3F8A0305B4913438B6501E0FB7D87
:10407800BB757B681B6803F48023002B33D07B68F7
:10408800D3F88430B3F5401F1CD0B3F5401F16D8C1
:10409800B3F5801F03D0B3F5001F07D00FE04D4BD9
:1040A800DB6A4C4A43F40033D3620CE07B68243368
:1040B8000121184600F0B0F90346FB7503E001231F
:1040C800FB7500E000BFFB7D002B0AD1414B5B6D07
:1040D80023F440127B68D3F884303E4913434B6580
:1040E80001E0FB7DBB757B681B6803F48033002B04
:1040F80029D07B68DB6C002B03D0B3F5803F07D059
:104108000FE0344BDB6A334A43F40033D3620BE0ED
:104118007B6804330221184600F0CCF80346FB758F
:1041280002E00123FB7500BFFB7D002B09D1294B61
:10413800DB6C23F480327B68DB6C26491343CB6449
:1041480001E0FB7DBB757B681B6803F00053002B07
:104158000AD07B6824330221184600F05DF9034633
:10416800002B01D00123BB757B681B6803F4003367
:10417800002B33D07B68DB6FB3F5407F17D0B3F5E6
:10418800407F11D8B3F5007F13D0B3F5007F0BD86B
:10419800002B10D0B3F5807F06D10E4BDB6A0D4A99
:1041A80043F40033D36207E00123FB7504E000BF4A
:1041B80002E000BF00E000BFFB7D002B0CD1054BE7
:1041C8005B6D23F440727B68DB6F024913434B65D8
:1041D80004E000BF00440258FB7DBB757B681B6888
:1041E80003F48013002B08D0314B1B6D23F00042E1
:1041F8007B681B6F2E4913430B657B681B6803F0B4
:104208008053002B09D02A4B1B6923F480427B681A
:10421800D3F8B430264913430B617B681B6803F459
:104228000013002B08D0224B1B6D23F080727B6893
:104238009B6E1F4913430B657B681B6803F0804323
:10424800002B0DD01A4B1B69194A23F40043136144
:10425800174B1A697B68D3F8B830154913430B61BB
:104268007B681B68002B08DA114BDB6C23F040528B
:104278007B681B6D0E491343CB647B681B6803F492
:104288000003002B09D00A4B5B6D23F440027B68C6
:10429800D3F88830064913434B65BB7D002B01D109
:1042A800002300E0012318461837BD4680BD00BF33
:1042B8000044025880B584B000AF786039600023AC
:1042C800FB73534B9B6A03F00303032B01D10123B8
:1042D80099E04F4B1B684E4A23F08063136001F04E
:1042E80031F9B86008E001F02DF90246BB68D31A2D
:1042F800022B01D9032386E0454B1B6803F00063BA
:10430800002BF0D1424B9B6A23F47C327B681B68FC
:104318001B033F4913438B627B685B68013BC3F314
:1043280008027B689B68013B5B029BB21A437B686F
:10433800DB68013B1B0403F4FE031A437B681B691B
:10434800013B1B0603F0FE43314913438B63304B9B
:10435800DB6A23F0C0027B685B692D491343CB629B
:104368002B4BDB6A23F020027B689B6928491343A7
:10437800CB62274BDB6A264A23F01003D362244B17
:10438800DA6B244B13407A68D269D2002049134370
:10439800CB631F4BDB6A1E4A43F01003D3623B68B2
:1043A800002B06D11A4BDB6A194A43F40023D36267
:1043B8000FE03B68012B06D1154BDB6A144A43F426
:1043C8008013D36205E0124BDB6A114A43F40013F1
:1043D800D3620F4B1B680E4A43F08063136001F0F1
:1043E800B1F8B86008E001F0ADF80246BB68D31A2E
:1043F800022B01D9032306E0054B1B6803F0006379
:10440800002BF0D0FB7B18461037BD4680BD00BF9F
:10441800004402580700FFFF80B584B000AF786001
:1044280039600023FB73534B9B6A03F00303032B90
:1044380001D1012399E04F4B1B684E4A23F080536A
:10444800136001F07FF8B86008E001F07BF80246DD
:10445800BB68D31A022B01D9032386E0454B1B689E
:1044680003F00053002BF0D1424B9B6A23F07C727F
:104478007B681B681B053F4913438B627B685B683D
:10448800013BC3F308027B689B68013B5B029BB25C
:104498001A437B68DB68013B1B0403F4FE031A43E1
:1044A8007B681B69013B1B0603F0FE43314913433C
:1044B8000B64304BDB6A23F440627B685B692D49EF
:1044C8001343CB622B4BDB6A23F400727B689B6936
:1044D80028491343CB62274BDB6A264A23F48073AF
:1044E800D362244B5A6C244B13407A68D269D200A9
:1044F800204913434B641F4BDB6A1E4A43F4807305
:10450800D3623B68002B06D11A4BDB6A194A43F485
:104518008003D3620FE03B68012B06D1154BDB6AA1
:10452800144A43F40003D36205E0124BDB6A114AD4
:1045380043F08073D3620F4B1B680E4A43F08053DD
:10454800136000F0FFFFB86008E000F0FBFF0246D0
:10455800BB68D31A022B01D9032306E0054B1B685D
:1045680003F00053002BF0D0FB7B18461037BD46F4
:1045780080BD00BF004402580700FFFF80B58CB023
:1045880000AF78607B68002B02D1012300F01DBCCE
:104598007B681B6803F00103002B00F08780994BB0
:1045A8001B6903F03803FB62964B9B6ABB62FB6A8C
:1045B800102B07D0FB6A182B10D1BB6A03F003033A
:1045C800022B0BD18F4B1B6803F40033002B6CD0EC
:1045D8007B685B68002B68D10123F6E37B685B6826
:1045E800B3F5803F06D1874B1B68864A43F4803376
:1045F80013602EE07B685B68002B0CD1814B1B6835
:10460800804A23F4803313607E4B1B687D4A23F471
:10461800802313601DE07B685B68B3F5A02F0CD185
:10462800784B1B68774A43F480231360754B1B68EB
:10463800744A43F4803313600BE0724B1B68714A71
:1046480023F4803313606F4B1B686E4A23F4802376
:1046580013607B685B68002B13D000F073FF7862EF
:1046680008E000F06FFF02467B6AD31A642B01D979
:104678000323AAE3634B1B6803F40033002BF0D039
:1046880014E000F05FFF786208E000F05BFF02468C
:104698007B6AD31A642B01D9032396E3594B1B6811
:1046A80003F40033002BF0D100E000BF7B681B68E7
:1046B80003F00203002B00F0CB80524B1B6903F080
:1046C80038033B624F4B9B6AFB613B6A002B07D068
:1046D8003B6A182B56D1FB6903F00303002B51D119
:1046E800484B1B6803F00403002B05D07B68DB688C
:1046F800002B01D1012368E3424B1B6823F0190208
:104708007B68DB683F4913430B6000F01BFF78624E
:1047180008E000F017FF02467B6AD31A022B01D982
:10472800032352E3374B1B6803F00403002BF0D03C
:1047380000F014FF034641F20302934217D87B6846
:104748001B69402B08D12F4B5B6823F47C332D4A1F
:1047580043F4003353607BE02A4B5B6823F47C32DC
:104768007B681B691B03274913434B6070E0254B8B
:104778005B6823F0FE427B681B691B0621491343D3
:104788004B6065E07B68DB68002B48D01D4B1B68DD
:1047980023F019027B68DB681A4913430B6000F0A9
:1047A800D1FE786208E000F0CDFE02467B6AD31A9B
:1047B800022B01D9032308E3124B1B6803F00403FF
:1047C800002BF0D000F0CAFE034641F203029342E8
:1047D8001AD87B681B69402B08D10A4B5B6823F405
:1047E8007C33084A43F40033536031E0054B5B687F
:1047F80023F47C327B681B691B03024913434B601B
:1048080026E000BF004402589A4B5B6823F0FE4242
:104818007B681B691B06974913434B6018E0954B4F
:104828001B68944A23F00103136000F08BFE786242
:1048380008E000F087FE02467B6AD31A022B01D9F2
:104848000323C2E28B4B1B6803F00403002BF0D157
:104858007B681B6803F01003002B00F0A980854BD0
:104868001B6903F03803BB61824B9B6A7B61BB69A0
:10487800082B07D0BB69182B3AD17B6903F00303D7
:10488800012B35D17B4B1B6803F48073002B05D0BB
:104898007B68DB69802B01D0012396E200F05EFE85
:1048A800034641F20302934217D87B681B6A202B08
:1048B80008D1704B5B6823F0F8436E4A43F080439D
:1048C800536075E06B4B5B6823F0F8427B681B6AAA
:1048D8009B06684913434B606AE0664BDB6823F02C
:1048E8007C527B681B6A1B0662491343CB605FE0FE
:1048F8007B68DB69002B42D05E4B1B685D4A43F046
:104908008003136000F01EFE786208E000F01AFED3
:1049180002467B6AD31A022B01D9032355E2554B71
:104928001B6803F48073002BF0D000F017FE0346D9
:1049380041F20302934217D87B681B6A202B08D1E7
:104948004C4B5B6823F0F8434A4A43F0804353607A
:104958002EE0484B5B6823F0F8427B681B6A9B0695
:10496800444913434B6023E0424BDB6823F07C52FD
:104978007B681B6A1B063F491343CB6018E03D4B1D
:104988001B683C4A23F08003136000F0DBFD78626B
:1049980008E000F0D7FD02467B6AD31A022B01D942
:1049A800032312E2334B1B6803F48073002BF0D10E
:1049B8007B681B6803F00803002B36D07B685B69B3
:1049C800002B19D02B4B5B6F2A4A43F00103536726
:1049D80000F0B8FD786208E000F0B4FD02467B6A9A
:1049E800D31A022B01D90323EFE1224B5B6F03F0AB
:1049F8000203002BF0D018E01E4B5B6F1D4A23F01A
:104A08000103536700F09EFD786208E000F09AFD0C
:104A180002467B6AD31A022B01D90323D5E1154B31
:104A28005B6F03F00203002BF0D17B681B6803F077
:104A38002003002B39D07B689B69002B1CD00D4BC1
:104A48001B680C4A43F48053136000F07BFD7862C6
:104A580008E000F077FD02467B6AD31A022B01D9E1
:104A68000323B2E1034B1B6803F40053002BF0D07F
:104A78001BE000BF004402589B4B1B689A4A23F472
:104A88008053136000F05EFD786208E000F05AFD84
:104A980002467B6AD31A022B01D9032395E1924B74
:104AA8001B6803F40053002BF0D17B681B6803F0EC
:104AB8000403002B00F081808C4B1B688B4A43F465
:104AC8008073136000F03EFD786208E000F03AFD64
:104AD80002467B6AD31A642B01D9032375E1834B01
:104AE8001B6803F48073002BF0D07B689B68012B54
:104AF80006D17D4B1B6F7C4A43F0010313672DE001
:104B08007B689B68002B0CD1774B1B6F764A23F090
:104B180001031367744B1B6F734A23F00403136775
:104B28001CE07B689B68052B0CD16F4B1B6F6E4A92
:104B380043F0040313676C4B1B6F6B4A43F001038C
:104B480013670BE0684B1B6F674A23F00103136779
:104B5800654B1B6F644A23F0040313677B689B68EB
:104B6800002B15D000F0EEFC78620AE000F0EAFCB9
:104B780002467B6AD31A41F28832934201D9032351
:104B880023E1594B1B6F03F00203002BEED014E016
:104B980000F0D8FC78620AE000F0D4FC02467B6A98
:104BA800D31A41F28832934201D903230DE14E4BC7
:104BB8001B6F03F00203002BEED17B685B6A002BAE
:104BC80000F00281484B1B6903F03803182B00F0F2
:104BD800BD807B685B6A022B40F09E80424B1B685D
:104BE800414A23F08073136000F0ACFC786208E05F
:104BF80000F0A8FC02467B6AD31A022B01D90323D2
:104C0800E3E0394B1B6803F00073002BF0D1364BFF
:104C18009A6A374B13407A68916A7A68D26A1201A5
:104C28000A43314913438B627B681B6B013BC3F317
:104C380008027B685B6B013B5B029BB21A437B6893
:104C48009B6B013B1B0403F4FE031A437B68DB6B7D
:104C5800013B1B0603F0FE43234913430B63224B1E
:104C6800DB6A214A23F00103D3621F4B5A6B214BA5
:104C780013407A68926CD2001B4913434B631A4B5A
:104C8800DB6A23F00C027B681B6C17491343CB6269
:104C9800154BDB6A23F002027B685B6C12491343F5
:104CA800CB62114BDB6A104A43F48033D3620E4B5C
:104CB800DB6A0D4A43F40033D3620B4BDB6A0A4AC2
:104CC80043F48023D362084BDB6A074A43F00103AD
:104CD800D362054B1B68044A43F08073136000F0ED
:104CE80031FC786211E000BF0044025800480258C5
:104CF8000CFCFFFF0700FFFF00F024FC02467B6A64
:104D0800D31A022B01D903235FE0324B1B6803F04F
:104D18000073002BF0D057E02E4B1B682D4A23F070
:104D28008073136000F00EFC786208E000F00AFC63
:104D380002467B6AD31A022B01D9032345E0254B8F
:104D48001B6803F00073002BF0D13DE0214B9B6AF8
:104D58003B61204B1B6BFB607B685B6A012B31D08E
:104D68003B6903F003027B689B6A9A422AD13B693C
:104D78001B0903F03F027B68DB6A9A4222D1FB6879
:104D8800C3F308027B681B6B013B9A421AD1FB688C
:104D98005B0A03F07F027B685B6B013B9A4211D18F
:104DA800FB681B0C03F07F027B689B6B013B9A42FC
:104DB80008D1FB681B0E03F07F027B68DB6B013BAD
:104DC8009A4201D0012300E0002318463037BD463F
:104DD80080BD00BF0044025880B586B000AF78603F
:104DE80039607B68002B01D101239CE18A4B1B6849
:104DF80003F00F033A689A4210D9874B1B6823F0D7
:104E08000F0285493B6813430B60834B1B6803F013
:104E18000F033A689A4201D0012384E17B681B683A
:104E280003F00403002B10D07B681A697B4B9B6945
:104E380003F070039A4208D9784B9B6923F07002FB
:104E48007B681B69754913438B617B681B6803F09A
:104E58000803002B10D07B685A69704BDB6903F09C
:104E680070039A4208D96D4BDB6923F070027B68A6
:104E78005B696A491343CB617B681B6803F01003C5
:104E8800002B10D07B689A69644BDB6903F4E063FC
:104E98009A4208D9614BDB6923F4E0627B689B691D
:104EA8005E491343CB617B681B6803F02003002B2A
:104EB80010D07B68DA69594B1B6A03F070039A4279
:104EC80008D9564B1B6A23F070027B68DB6953498B
:104ED80013430B627B681B6803F00203002B10D09E
:104EE8007B68DA684D4B9B6903F00F039A4208D937
:104EF8004A4B9B6923F00F027B68DB6847491343E1
:104F08008B617B681B6803F00103002B55D0434B72
:104F18009B6923F470627B689B68404913438B61EB
:104F28007B685B68022B07D13C4B1B6803F400339A
:104F3800002B21D10123F6E07B685B68032B07D1A6
:104F4800364B1B6803F00073002B15D10123EAE0F0
:104F58007B685B68012B07D1304B1B6803F48073B7
:104F6800002B09D10123DEE02C4B1B6803F004035E
:104F7800002B01D10123D6E0284B1B6923F007023F
:104F88007B685B68254913430B6100F0DBFA7861A5
:104F98000AE000F0D7FA02467B69D31A41F2883258
:104FA800934201D90323BEE01C4B1B6903F038026E
:104FB8007B685B68DB009A42EBD17B681B6803F077
:104FC8000203002B10D07B68DA68144B9B6903F04E
:104FD8000F039A4208D2114B9B6923F00F027B689A
:104FE800DB680E4913438B610B4B1B6803F00F03FF
:104FF8003A689A4214D2084B1B6823F00F020649FC
:105008003B6813430B60044B1B6803F00F033A68BB
:105018009A4205D0012386E000200052004402583D
:105028007B681B6803F00403002B10D07B681A69A7
:105038003F4B9B6903F070039A4208D23C4B9B6933
:1050480023F070027B681B69394913438B617B68C5
:105058001B6803F00803002B10D07B685A69344B97
:10506800DB6903F070039A4208D2314BDB6923F005
:1050780070027B685B692E491343CB617B681B68B0
:1050880003F01003002B10D07B689A69284BDB696A
:1050980003F4E0639A4208D2254BDB6923F4E0620B
:1050A8007B689B6922491343CB617B681B6803F0CB
:1050B8002003002B10D07B68DA691D4B1B6A03F0B4
:1050C80070039A4208D21A4B1B6A23F070027B685D
:1050D800DB69174913430B6200F034F80246144B9E
:1050E8009B691B0A03F00F031249CB5C03F01F03F3
:1050F80022FA03F33B610E4B9B6903F00F030D4A41
:10510800D35C03F01F033A6922FA03F30A4A1360D7
:105118000A4A3B6913600A4B1B68184600F0C8F935
:105128000346FB73FB7B18461837BD4680BD00BF9E
:10513800004402586C5E0008200000241C00002473
:105148002400002480B489B000AFB34B1B6903F07E
:105158003803182B00F2558101A252F823F000BF42
:10516800CD5100080B5400080B5400080B540008DC
:105178000B5400080B5400080B5400080B5400088B
:10518800F35100080B5400080B5400080B54000896
:105198000B5400080B5400080B5400080B5400086B
:1051A800F95100080B5400080B5400080B54000870
:1051B8000B5400080B5400080B5400080B5400084B
:1051C800FF510008944B1B6803F02003002B09D003
:1051D800914B1B68DB0803F00303904A22FA03F3A0
:1051E800BB6111E18D4BBB610EE18D4BBB610BE1E6
:1051F8008C4BBB6108E1884B9B6A03F003037B611E
:10520800854B9B6A1B0903F03F033B61824BDB6ABA
:1052180003F00103FB60804B5B6BDB08C3F30C03FB
:10522800FA6802FB03F307EE903AF8EE677AC7EDE7
:10523800027A3B69002B00F0E1807B69022B00F0C9
:1052480083807B69022B00F2A1807B69002B03D04D
:105258007B69012B56D099E06F4B1B6803F0200344
:10526800002B2DD06C4B1B68DB0803F003036B4A43
:1052780022FA03F37B607B6807EE903AF8EE676AE0
:105288003B6907EE903AF8EE677A86EEA77A624BAA
:105298001B6BC3F3080307EE903AF8EE676A97EDC5
:1052A800026ADFED615AC6EE257A76EEA77AF7EE46
:1052B800006A77EEA67A67EE277AC7ED077A87E065
:1052C8003B6907EE903AF8EE677ADFED586A86EEAA
:1052D800A77A514B1B6BC3F3080307EE903AF8EE1D
:1052E800676A97ED026ADFED505AC6EE257A76EEC8
:1052F800A77AF7EE006A77EEA67A67EE277AC7ED07
:10530800077A65E03B6907EE903AF8EE677ADFEDD9
:10531800486A86EEA77A404B1B6BC3F3080307EE77
:10532800903AF8EE676A97ED026ADFED3F5AC6EEEB
:10533800257A76EEA77AF7EE006A77EEA67A67EE18
:10534800277AC7ED077A43E03B6907EE903AF8EE13
:10535800677ADFED386A86EEA77A2F4B1B6BC3F3AB
:10536800080307EE903AF8EE676A97ED026ADFEDF8
:105378002E5AC6EE257A76EEA77AF7EE006A77EE11
:10538800A67A67EE277AC7ED077A21E03B6907EE30
:10539800903AF8EE677ADFED266A86EEA77A1E4B1A
:1053A8001B6BC3F3080307EE903AF8EE676A97EDB4
:1053B800026ADFED1D5AC6EE257A76EEA77AF7EE79
:1053C800006A77EEA67A67EE277AC7ED077A00BFFC
:1053D800114B1B6B5B0A03F07F0301333B603B6897
:1053E80007EE903AB8EE677AD7ED076AC6EE877A85
:1053F800FCEEE77A17EE903ABB6105E00023BB614B
:1054080002E0074BBB6100BFBB6918462437BD46A5
:105418005DF8047B704700BF004402580090D00339
:1054280000093D0040787D01000000460024744CCE
:105438000024744A20BCBE4B80B582B000AF032064
:10544800FCF728FCFFF77EFE0246154B9B691B0AFA
:1054580003F00F031349CB5C03F01F0322FA03F395
:105468007B600F4B9B6903F00F030E4AD35C03F07C
:105478001F037A6822FA03F30B4A13600B4A7B680E
:1054880013600F2000F014F80346002B01D001230D
:1054980002E0FCF783F9002318460837BD4680BDB3
:1054A800004402586C5E0008200000241C00002400
:1054B80080B582B000AF7860154B1B78002B01D106
:1054C800012321E0134B1A68114B1B7819464FF43E
:1054D8007A73B3FBF1F3B2FBF3F31846FCF70DFC58
:1054E8000346002B01D001230EE07B680F2B0AD85E
:1054F800002279684FF0FF30FCF7D7FB064A7B683B
:105508001360002300E0012318460837BD4680BD1C
:10551800280000241C0000242400002480B400AFCC
:10552800064B1B781A46064B1B681344044A136043
:1055380000BFBD465DF8047B704700BF280000240B
:10554800240B002480B400AF034B1B681846BD46EB
:105558005DF8047B704700BF240B002480B400AFC3
:10556800034B1B681B0C1846BD465DF8047B70474F
:105578000010005C014B1868704700BF2C00002425
:1055880070B50D4D0D4C641BA4100026A64209D120
:105598000B4D0C4C00F034FC641BA4100026A642F2
:1055A80005D170BD55F8043B98470136EEE755F82C
:1055B800043B98470136F2E7487700084877000827
:1055C800487700084C770008024B0146186800F03D
:1055D8008DB800BF2C000024024B0146186800F06B
:1055E80019B800BF2C0000240A44914200F1FF338F
:1055F80000D1704710B511F8014B03F8014F9142E3
:10560800F9D110BD02440346934200D1704703F814
:10561800011BF9E737B5002944D051F8043C019043
:10562800002BA1F10404B8BFE41800F0E3F81E4A07
:105638000198136833B96360146003B0BDE8304063
:1056480000F0DEB8A34208D9256861198B4201BF72
:1056580019685B6849192160EDE71A465B680BB168
:10566800A342FAD911685518A5420BD124682144E0
:105678005418A3421160E0D11C685B685360214450
:105688001160DAE702D90C230360D6E725686119AF
:105698008B4204BF19685B68636004BF49192160C5
:1056A8005460CAE703B030BD280B002470B50E4E15
:1056B8000C463168054611B900F08CF83060214677
:1056C800284600F087F8431C0AD0C41C24F00304C1
:1056D800A04207D0211A284600F07CF8013001D1F9
:1056E8004FF0FF34204670BD2C0B00242DE9F0410B
:1056F800CD1C25F0030508350C2D38BF0C25002DD1
:10570800074601DBA94205D90C233B600026304639
:10571800BDE8F0812E4E00F06DF833681C4634BBAE
:1057280029463846FFF7C2FF431C04464DD134686A
:105738002646002E40D123683146384604EB03083C
:1057480000F048F880453AD1216803356D1A25F0F4
:10575800030508350C2D38BF0C2529463846FFF7B8
:10576800A5FF01302BD023682B4423600EE022686C
:10577800521B1ED40B2A16D96119A342256018BFE3
:105788005960636808BF316062514B60384604F164
:105798000B0600F035F826F00706231DF21AB6D0DE
:1057A8009B1BA350B3E76268A3420CBF32605A60E8
:1057B800ECE723466468B2E734467668B9E70C2319
:1057C8003B60384600F01CF8A1E72560DEE700BF23
:1057D800280B002438B5064D0023044608462B60E4
:1057E800FCF7A0F8431C02D12B6803B1236038BD35
:1057F800300B0024014800F009B800BF340B002426
:10580800014800F004B800BF340B0024704770470B
:10581800C1F30A5240F2FE339A4270B52ADD40F2D3
:1058280033439A4224DC9B1AA3F120064FF0FF323F
:1058380002FA03F402FA06F6C3F1200522FA05F586
:1058480034432C439A4020EA020221EA040422430A
:10585800A3F12004C3F120020CD1D84001FA02F3CD
:105868001843E140084300F00100D0F1020070BD88
:105878000220FCE70020FAE72DE9F04710EE904AF5
:105888002DED0A8B4FEA145A11EE907A0AF1FF3285
:1058980040F2FD739A4210EE106A11EE100A86B0BB
:1058A800D4464FEA175506D8C5F30A03A3F2BE3308
:1058B8007F2B40F25681021847EB07016FF0010E6B
:1058C80012F1FF3941F1FF386FF40013CE4573EB45
:1058D80008083FD252EA01034FF000030CD1B61971
:1058E80084F400246441B342A3F58013A341C0F0BB
:1058F8008C80B7EE000B28E0A34DAC4208BF9E4257
:1059080007D1001887F400277F4183429F4BBB4192
:10591800EDE7B6199E486441B34270EB040574D3B1
:10592800814208BF9A4270D19A4A944208BF9E4267
:10593800DFD094426FEA070734BF00240124FF0F29
:10594800BC4240F0D98121EE010B06B0BDEC0A8BB8
:10595800BDE8F08716EB060844EB040918F1FF319F
:1059680069F100028E45934123D220EE000B002CF2
:1059780012DA3946FFF74CFF01280DD1B1EE400B82
:1059880058EA09030AD1002FDFDA06B0BDEC0A8B0A
:10599800BDE8F04700F0F0B90020F1E7002FD4DAB5
:1059A800B7EE006B86EE007B8DED007B9DED000B66
:1059B800CBE7002C2CDA3946FFF72AFF30B906B0BE
:1059C800BDEC0A8BBDE8F04700F0EEB9012814BF22
:1059D80000204FF4802024F00044CAF30A0CC5F3D9
:1059E8000A02A2F2BE337F2B2DD9674B00209C42BE
:1059F80008BF86423FF47DAF40F2BD318A420CD8E1
:105A0800B7EE000BB042A34104D231EE000B9CE785
:105A18000020E4E730EE410B97E7012E74EB030317
:105A280040F2FF7234BF0123002395428CBF00254A
:105A38000125AB4200F09D8006B0BDEC0A8BBDE8A5
:105A4800F04700F091B9BCF1000F0BD19FED4C7BF2
:105A580020EE077B53EC172B17EE106A23F0004457
:105A6800A4F150744C4BBFEE006B2344C3F3463291
:105A780019151B0D1B05A4EB0309484B04EE101A5E
:105A880003EB4211B6F1000891ED127B49EC158B3E
:105A980091ED162BA5EE076B93ED007B93ED025B62
:105AA800B8EEC44BA4EE072B91ED187B36EE02AB93
:105AB80032EE4A2BA4EE057B93ED045B32EE062B07
:105AC80037EE027B26EE055B93ED084B26EE050BC1
